:020000040000FA
:06000000020AA10201C882
:03002B00021F575A
:030033000206D0F2
:030043000208FCB4
:03004B0002079A0F
:0300530002011B8C
:03005B000207A9F0
:030063000207B5DC
:03006B000206B6D4
:03007B0002064A30
:10008300020164010101010503010F10FEFF0300DA
:100093000300030003000300030003000300030045
:1000A30005000A00140028004F009E0000005012B3
:1000B3005012501250120C11061150124E20000013
:1000C30000007421000000000C0000000C0001007F
:1000D30000CA1300000000000066140000000000C6
:1000E300000000E904FF0102002C110000009F1131
:1000F30064000202000800000501071E02051E023B
:100103000A03B80B803E01FFFF020206060606063D
:100113000014141414140006C0E074F21203DAE598
:10012300A7F8E5A1F95854106008121B3E53A1EF3C
:10013300802AE8A2E0C0D0E9A2E092F01209DE151D
:100143008182F05017906198E0F89014ABE0C39867
:10015300A2D265D0335002E8F053A1FE7F0102041E
:1001630091C0E074F21203DA9061A4E0F8759B0089
:10017300E59158540860087591F7121B80802AE5B1
:100183009158541060087591EF121B86801BE8A2EA
:10019300E0C0D0E591A2E092F01209DE158182F071
:1001A3005007E0C2E0F0121CA69061A3E0F8E5E975
:1001B300585404600E121C7C75E9FB906193E0A215
:1001C300E640F28097C0E074F21203DA9061A5E092
:1001D300F8E5BF585404600653BFFB121CBE02016E
:1001E3005FC3E498F8E499F91202258026C3E49AE0
:1001F300FAE49BFBE920E7E9120225E498F8E49985
:10020300F922C3E498F8E499F9120225E498F8E492
:1002130099F9C3E49AFAE49BFB22EB20E7CFE920A8
:10022300E7E0B90010BB0008E88AF084F8AAF022DE
:10023300E4FBC8FA22EB70227B10C833C8C933C968
:10024300335007C39AC3DBF280069A50012ADBEAD4
:10025300C833F4C8C933F4C9FA2275F008E4C833C3
:10026300C8C933C933C99AC99B5004C92AC93BD5E4
:10027300F0ECFBC833F4C8E4C9FA22080808EAC062
:10028300E0EBC0E086F0E7A4FA180986F0E7A42AB9
:10029300FA180986F0E7A42AFA180986F0E7A42ACF
:1002A300FA1986F0E7A4FBE5F02AFA190886F0E7C5
:1002B300A42BFBE5F03AFA190886F0E7A42BFBE53B
:1002C300F03AFA18180986F0E7A4C5F02BFBE43AD4
:1002D300FA1908E7C5F0C6A426F6E5F03BFBE43AB5
:1002E300FA1886F0E7A4F6E5F00826F6E43B08F6EC
:1002F300E43A08F6D0E0FBD0E0FA22E4CFC0E0E431
:10030300CEC0E0E4CDC0E0E4CCC0E075F020C3E6AD
:1003130033F608E633F608E633F608E633F618183C
:1003230018EC33FCED33FDEE33FEEF33FFC3EC97F4
:1003330009ED9709EE9709EF97191919400FFFEC8B
:1003430097FC09ED97FD09EE97FE191906D5F0BE46
:10035300ECF709EDF709EEF709EFF7191919D0E0F2
:10036300FCD0E0FDD0E0FED0E0FF222518C582C01E
:10037300E0E51934FFC583C0E0E518C3958224F88E
:1003830010AF0885831985821880088583198582B3
:1003930018D2AFCEF0A3E520F0A37808E608F0A3C7
:1003A300DEFAEFF0A3E58124FAF8E608F0A3E60805
:1003B300F0A3E608F0A30808E608F0A3E608F0A314
:1003C30015811581D0E0FED0E0F8158115811581E6
:1003D300E8C0E0EEC0E022C0D02518C582C0E0E549
:1003E3001934FFC583C0E0E518C3958224F310AF29
:1003F300088583198582188008858319858218D218
:10040300AFC8F0A3E9F0A3EAF0A3EBF0A37908E700
:1004130009F0A3D8FAECF0A3EDF0A3EEF0A3EFF00C
:10042300A3D0E0F0A3D0E0F0A3D0E0F0A3E520F068
:10043300A3E5F0F0A322120B03B9000302047BE44B
:1004430090030178CC79178002F0A3D8FCD9FA90F5
:1004530019CCAA82AB83900086789679018015E443
:1004630093A3AC82AD838A828B83F0A3AA82AB83EE
:100473008C828D83D8E9D9E775822A7583A97403A1
:1004830012053575825275831F740012053585195F
:1004930083851882E0C0E0A3E0F9A3E0FAA3E0FBC0
:1004A300A37808E0F608A3DFFAE0FCA3E0FDA3E0ED
:1004B300FEA3E0FFA3E0C0E0A3E0C0E0A3E0F5D02B
:1004C300A3E0F520A3E0A3F5F010AF088583198519
:1004D30082188008858319858218D2AFD082D08391
:1004E300D0E0F8D0E032D083D082ECC0E0EDC0E0C1
:1004F300E493A3FCE493A3FDED4C600D12060BEC17
:1005030024FFFCED34FFFD80EFE493A3FCE493A30D
:10051300FDED4C600D120745EC24FFFCED34FFFDAF
:1005230080EFD0E0FDD0E0FCE493A3C0E0E493C00F
:10053300E022C0F0F5F0E59F5407C0E0E59F54F8D2
:1005430045F0D0F0F59FE473859FF053F0F8D0E0C9
:1005530045F0F59F22D083D082E59F5407C0E0E4A5
:1005630093C0E0740193C0E07402935407C0F0F5A4
:10057300F0E59F54F845F0D0F0F59F22D083D08268
:10058300E9C0E0E493A3C386F0C5F095F0F908E46D
:1005930093A386F0C5F095F0700BE493A3C3994041
:1005A30005E9048002A3E475F002A42582F582E53F
:1005B300F03583F583D0E0F9E493A3C0E0E493C07E
:1005C300E022851983851882E0A3FEE0A3F5207855
:1005D30008E0A3F608DFFAE0A3FFE0A3C0E0E0A38E
:1005E300C0E0E0A3C0E0E0A3C0E0E0A3C0E010AF40
:1005F300088582188583198008858218858319D216
:10060300AFD083D08202054BC0E0C3E49396087455
:1006130001939618400FE49366700808740193667B
:100623001870007019A3A3C3E493960874019396FA
:1006330018A3A3400DD0E0D0E0D0E0020525A3A38A
:10064300A3A3A3A3D0E022C0E074F21203DAE58AE5
:10065300A2E2501F7A147B00121AD8A2924014D23D
:10066300F0A29030F001B39290D2F0A29130F00159
:10067300B39291758A00C2EB7F01020491D083D0BB
:1006830082C5F0E493A3C5F0C395F0F5F0E493A31A
:10069300C395F04005E5F0048001E475F002A4255C
:1006A30082F582E5F03583F583E493A3C0E0E49318
:1006B300C0E022C0E074F21203DAE589A2E150033C
:1006C3001219D6758900C2C57F01020491C0E07476
:1006D300F21203DAE58BA2E050031219D6758B00F0
:1006E300C2E880E47404800474028000CCC0E0EDAE
:1006F300C0E0E518C39CCCAD1950011D10AF068CAA
:10070300188D1980068C188D19D2AF1207E3D0E02B
:10071300FDD0E0FC2274028000CCC0E0EDC0E0E537
:1007230018C39CCCAD1950011D10AF068C188D1940
:1007330080068C188D19D2AF1207C1D0E0FDD0E02E
:10074300FC22C0E0C0F088F0E493667008087401EE
:100753009366187000A8F0A3A3700BD0F0D0E0D07C
:10076300E0D0E0020525A3A3D0F0D0E022D083D0CF
:1007730082CCC0E0E493A360061208231470FAE469
:1007830093A360061209291470FAD0E0FCE493A342
:10079300C0E0E493C0E022C0E074F21203DA121A5C
:1007A300607F01020491C0E074F21203DA121A6648
:1007B30080EFC0E074F21203DA121A6C80E3CAC04D
:1007C300E0E493A3C582CCC582C583CDC583F0A3E2
:1007D300C582CCC582C583CDC583DAE5D0E0CA2204
:1007E300CAC0E0E0A3C582CCC582C583CDC583F072
:1007F300A3C582CCC582C583CDC583DAE6D0E0CA62
:1008030022C008C3E096F50808A3E096420808A3AF
:10081300E096420808A3E09645087001D3D0082269
:10082300C0E0E493A3D39C5010E493A3C39C400A79
:10083300D0E0D0E0D0E002078DA3A3A3D0E02270E4
:1008430009080808226016181818C6C333C608C654
:1008530033C608C633C608C633C6D5E0EA22251810
:10086300F58210AF08F518400215198008F51840F5
:10087300021519D2AF851983227404800A74038088
:1008830006740280027401C0E0F404120861D0E02F
:10089300120ADE22BB0102E722C082C08389828A58
:1008A30083BB0003E08002E493D083D08222C0D0D4
:1008B300251810AF08F518500205198008F51850CF
:1008C300020519D2AFD0D0226016080808C6C31398
:1008D300C618C613C618C613C618C613C6D5E0EA8B
:1008E30022C3E0C696F608A3E0C696F608A3E0C6C0
:1008F30096F608A3E0C696F622C0E074F21203DA75
:10090300C2C0E5D1A2E45003121A967F01020491FA
:10091300251810AF08F518400215198008F518407E
:10092300021519D2AF22C0E0E493A36C7009D0E0A2
:10093300D0E0D0E002078DA3A3D0E022C3E0960865
:10094300A3E09608A3E09608A3E096A2D265D0336D
:1009530022C3E7960809E7960809E7960809E79688
:10096300A2D265D03322E066701008A3E066700A55
:1009730008A3E066700408A3E06622C3E096F008CB
:10098300A3E096F008A3E096F008A3E096F022E631
:1009930027F60809E637F60809E637F60809E637C1
:1009A300F622E026F608A3E036F608A3E036F608BA
:1009B300A3E036F622E026F008A3E036F008A3E031
:1009C30036F008A3E036F022E657F60809E657F6B4
:1009D3000809E657F60809E657F622C0E0E8C0E042
:1009E300E58124FCF8E6A2E7D0E0F8D0E022700429
:1009F30022600D18C6C333C608C633C6D5E0F41843
:100A030022E056F608A3E056F608A3E056F608A33C
:100A1300E056F622E056F008A3E056F008A3E056AD
:100A2300F008A3E056F022E647F60809E647F60881
:100A330009E647F60809E647F622E046F008A3E090
:100A430046F008A3E046F008A3E046F022E4C3968C
:100A5300F608E496F608E496F608E496F622C3E769
:100A6300960809E7960809E7960809E79622C6F467
:100A7300C608C6F4C608C6F4C608C6F4C622600D86
:100A830008C6A2E713C618C613C6D5E0F322C3E00F
:100A93009608A3E09608A3E09608A3E0962275D0F3
:100AA3000075814075180175190300020439600C43
:100AB30008C6C313C618C613C6D5E0F422E6F00869
:100AC300A3E6F008A3E6F008A3E6F022E0F608A305
:100AD300E0F608A3E0F608A3E0F622CAC0E0E6F0D9
:100AE300A308DAFAD0E0FA22E0FAA3E0FBA3E0FCE1
:100AF300A3E0FD22EAF0A3EBF0A3ECF0A3EDF022D8
:100B0300E5C754F84401F5C77901222518F582E4B5
:100B13003519F58322120558E086011205587087AE
:100B230001120558608801120558A388011205585F
:100B3300C888011205581A89011205583F89011204
:100B430005586D8A011205589A8A01120558AC8A14
:100B530001120558B68A011205583A8B011205583D
:100B6300A98B01120558528C011205585A8C011297
:100B73000558468D01120558BD8D01120558FA8D91
:100B830001120558618E01120558AE8F01120558E6
:100B9300CA8F01120558239001120558C090011203
:100BA3000558109101120558AB910112055858923E
:100BB3000112055896920112055806930112055821
:100BC3005193011205588A9301120558B8940112E2
:100BD3000558F295011205585396011205589C9633
:100BE30001120558C496011205584797011205587A
:100BF300C797011205583A98011205585F980112D8
:100C03000558D59801120558799901120558FF998D
:100C130001120558269A011205584B9B01120558DB
:100C23005E9B01120558F09B01120558199C011295
:100C33000558B99C01120558F89C011205583A9DB4
:100C430001120558269E0112055829A001120558C4
:100C530033A0011205583DA00112055847A0011207
:100C6300055851A0011205586BA00112055875A033
:100C7300011205587FA00112055889A001120558D9
:100C8300AAA001120558F8A00112055806A10112E5
:100C930005582AA1011205584EA101120558ADA10C
:100CA30001120558F8A10112055816A201120558A0
:100CB30086A201120558C3A2011205580AA3011204
:100CC300055872A301120558E4A30112055818A58B
:100CD300011205583BA501120558FEA5011205583E
:100CE300DEA6011205583FA901120558A6AA011252
:100CF300055869AC01120558BBAC011205589EADED
:100D030001120558E3AD011205589BAE01120558B7
:100D130029AF0112055851AF0112055813B0011242
:100D230005581CB20112055841B20112055892B27E
:100D33000112055893B301120558CBB3011205589C
:100D43000BB4011205586EB40112055887B5011290
:100D53000558E7B501120558CDB601120558D3B8A9
:100D630001120558EFB80112055894BA011205583B
:100D7300DABA01120558B8BB0112055812BC0112A8
:100D8300055847BC0112055872BC011205585DBDD8
:100D93000112055899BD01120558D5BD0112055818
:100DA30063BE0112055866BE01120558D2BE011278
:100DB30005589D2300120558EF23001205582626D7
:100DC30000120558722600120558342700120558E0
:100DD300A32700120558CB2800120558082B001230
:100DE30005589F2B001205583F3200120558C53293
:100DF30000120558423500120558263600120558D0
:100E0300D23600120558033800120558F63800127E
:100E13000558273C00120558EA3D001205584A3E82
:100E230000120558003F001205582B3F00120558C9
:100E3300B83F00120558A540001205587941001229
:100E430005580D42001205583A42001205585C42FB
:100E53000012055855440012055830450012055834
:100E63007D4500120558DE4500120558A0460012C4
:100E73000558D54600120558234700120558534715
:100E830000120558914700120558E947001205580A
:100E9300EE470012055849480012055871480012E0
:100EA3000558904900120558FC4900120558664A36
:100EB30000120558EF4A001205580E4D001205584E
:100EC300EC4D001205585B4F00120558ED5000120F
:100ED30005587D51001205588452001205580D53D0
:100EE30000120558545300120558CB5400120558EC
:100EF300DF5400120558F954001205581455001216
:100F030005582055001205583E55001205584857FC
:100F1300001205583B58001205587F580012055817
:100F2300025900120558065A00120558C25A0012F7
:100F330005583D5C00120558175D00120558AE5D5B
:100F430000120558405E00120558575E00120558FE
:100F53007B5E00120558855E00120558915E0012F3
:100F63000558AF5E00120558F35E00120558445F42
:100F730000120558A55F00120558076000120558B6
:100F83008060001205589161001205583D620012FD
:100F930005582A63001205588E630012055825640C
:100FA30000120558F564001205582465001205580F
:100FB3008365001205583166001205585766001202
:100FC3000558576700120558766700120558E567FC
:100FD300001205585F68001205588568001205580D
:100FE300B16800120558FC68001205589669001292
:100FF3000558BF6900120558256A001205587F6A13
:1010030000120558A46A00120558EA6A001205582E
:10101300076B00120558B16B00120558D1CC0312AF
:1010230005581CCD0312055891BF01120558C5BFC1
:10103300011205589BC0011205586FC101120558D2
:101043009AC2011205581EC4011205589CC401120C
:10105300055863C50112055884C601120558F6C622
:101063000112055858C701120558A6C701120558A1
:10107300B0C701120558EEC70112055857C801122F
:101083000558F6C80112055874C90112055829CA32
:10109300011205589BCA01120558C1CA011205580D
:1010A300F1CA011205581ECB01120558C4CB011217
:1010B3000558D4CB0112055827CC0112055833CC5F
:1010C300011205583FCC0112055848CC01120558AE
:1010D300A9CC0112055809CD011205585ACD0112A8
:1010E300055875CD01120558A5CD01120558C6CD79
:1010F30001120558D2CD0112055813CF011205581C
:1011030031CF011205589ACF01120558ADCF011204
:101113000558C4CF0112055857D00112055856D1AE
:101123000112055852D201120558D4D201120558A2
:10113300DED20112055841D30112055852D30112D0
:10114300055895D301120558DCD30112055812D462
:101153000112055848D40112055866D401120558E6
:101163008AD401120558CBD401120558BED50112F9
:10117300055804D6011205583FD6011205589ED6CC
:1011830001120558C6D601120558FFD6011205589B
:101193000DD7011205586ED701120558ABD70112AE
:1011A3000558EDD7011205581ED80112055852D81B
:1011B300011205585DD8011205587BD80112055854
:1011C30043D9011205584DD90112055892D901127C
:1011D3000558FCD90112055810DA0112055808DB2D
:1011E300011205581BDB0112055830DB01120558AB
:1011F300D0DB0112055834DC01120558F7DC01126B
:10120300055802DD0112055821DE011205583DDEA5
:101213000112055895DE01120558CCDE011205585E
:10122300E6DE011205585ADF01120558EBDF011201
:10123300055833E0011205584EE201120558B8E291
:101243000112055823E3011205587CE501120558E4
:101253008CE5011205588FE5011205589BE5011233
:101263000558AFE501120558B7E501120558ECE53D
:10127300011205589AE6011205580AE701120558AA
:101283006EE70112055807E801120558A1E801129B
:101293000558CFE80112055865E90112055894E98C
:1012A30001120558B6E901120558DDE90112055886
:1012B30043EA01120558ADEB01120558B0EB0112D8
:1012C300055827EC0112055813ED01120558EBEDF3
:1012D3000112055875EE01120558AAEF01120558BF
:1012E3005CF00112055895F001120558C6F0011281
:1012F3000558CFF001120558BBF10112055837F21A
:1013030001120558C7F20112055891F3011205584D
:1013130015F4011205584BF40112055894F4011207
:101323000558CEDD02120558DCDD0212055845DEF4
:10133300021205587DDE02120558D0DE021205584E
:1013430072E00212055854E2021205582DE502120A
:1013530005585FE50212055875E502120558D3E5F5
:101363000212055811E6021205584FE602120558FB
:1013730097E602120558707F001205583D97031235
:101383000558AC97031205588698031205582599FA
:10139300031205580B9A031205583D9A0312055878
:1013A3003BC40312055859C403120558AAC40312B7
:1013B3000558EFC40312055899C50312055883BF96
:1013C30003120558C8C003120558B3F60212055894
:1013D30036F70212055840F70212055867F7021252
:1013E30005587BF702120558E1F70212055811F868
:1013F3000212055813F902120558E3F902120558AF
:1014030043FA021205588CFA02120558C9FA02125D
:1014130005582CFB0212055858FB02120558E3FB32
:10142300021205583DFC0212055818BC0312055858
:1014330031BC03120558ABBC0312055858BD031247
:10144300055880BD0312055826AC03120558A0ACFD
:1014530003120558ABAC03120558CCAC0312055864
:101463009ECA02120558A1CA0212055862CB021283
:10147300055890CB02120558EBCB021205580FCC3E
:1014830002120558C0830112055879CC021205587F
:10149300A7CC02120558D6CD0212055805CE02126A
:1014A300055826CE0212055881CE0212055844CFA4
:1014B3000212055864CF02120558D9D002120558FA
:1014C30071D1021205587AD202120558E3D20212E0
:1014D300055811D302120558D6D3021205582F8688
:1014E300011205583ED4021205587AD40212055847
:1014F30084D402120558CCD4021205583AD50212EC
:1015030005585DD502120558FDD502120558ACD811
:1015130002120558B5D80212055802D9021205580D
:101523002BD9021205588BD90212055821DA02125F
:10153300055855DA02120558A2DA02120558FCDAE8
:10154300021205582ADB02120558B2DB02120558B3
:10155300F7DB0212055836DC021205586BDC021267
:1015630005587DDC021205588FDC02120558AEDCEB
:101573000212055865DD02120558A5DD0212055851
:1015830057CA0312055826CD031205585AB8031239
:101593000558BEB803120558E2B803120558DBB963
:1015A3000312055804BA02120558E3BA0212055889
:1015B3001FBB02120558BCBC02120558FEBC021226
:1015C3000558B2BE02120558F6BE02120558D7BF1F
:1015D3000212055864C002120558EFC002120558E2
:1015E30045C10212055885C10212055827C30212CC
:1015F3000558B0C402120558C7C602120558D5C60D
:10160300021205583AC70212055884C70212055838
:101613005DCA02120558CFCE03120558E5CE031258
:101623000558D3A503120558E6A50312055884A649
:1016330003120558BFA603120558DAA6031205586C
:10164300FFA60312055844A70312055875A70312F2
:101653000558A6A7031205581DA9031205581FC153
:10166300031205588CC103120558A8C1031205586B
:10167300EAC103120558FAC10312055892C20312B4
:1016830005589CC203120558B4C203120558DAF474
:101693000112055828F5011205580FF601120558D5
:1016A300A1F601120558EBF6011205583AF701129B
:1016B300055897F701120558ABF701120558DFF7E4
:1016C30001120558F7F80112055869F90112055876
:1016D3008AF901120558CBF90112055800FA0112D3
:1016E300055859FA0112055877FA01120558DAFA22
:1016F3000112055859FC011205587BFC01120558CB
:10170300B0FC01120558D8FC01120558DDFC01128A
:10171300055829FD01120558CEFD01120558F3FDA8
:1017230001120558FDFD0112055800FE011205586E
:1017330074FE011205588FFE01120558ACFE01120A
:101743000558AFFE0112055871CD0312055889CD16
:10175300031205580FEF021205585EEF02120558E7
:1017630002F102120558B8F20212055800F30212F0
:10177300055846F40212055891F502120558B3F5BF
:1017830002120558FDF5021205587FF6021205589C
:10179300649F021205588E9F0212055818A0021268
:1017A3000558A1A0021205581DA10212055880A1D7
:1017B30002120558C2A1021205583BA20212055893
:1017C300C5A2021205583CA3021205587EA30212B9
:1017D300055841A70212055807A9021205582CA95A
:1017E30002120558EBA902120558EEA90212055878
:1017F300D2AA0212055817AC02120558A9AC02125C
:10180300055811AF0212055894AF021205588AB059
:1018130002120558E7B302120558F7B3021205582E
:1018230057B502120558D2B50212055816B702125F
:1018330005589EB702120558DAB8021205586EB958
:1018430002120558EB6B00120558AA6C00120558DA
:10185300216D00120558306D00120558B56D001248
:1018630005581E6E001205581E6F00120558476F6B
:1018730000120558E06F0012055823700012055836
:101883008070001205585A73001205581474001220
:101893000558797400120558207600120558D4763D
:1018A300001205586F7700120558C87700120558C3
:1018B300337800120558437900120558007B001253
:1018C3000558377C00120558D07C001205583A7D24
:1018D30000120558307E0012055860850312055822
:1018E300CC8503120558358603120558A3860312C7
:1018F3000558DB86031205584F8703120558D38713
:101903000312055800880312055819880312055855
:10191300798803120558C688031205583E890312B5
:101923000558438903120558AF890312055888B136
:1019330003120558D7B10312055890B20312055884
:10194300F6B20312055867B303120558ADA9031283
:10195300055806AA0312055885AB03120558BAFEAB
:1019630001120558F4FE01120558AFFF0112055884
:10197300D1BD03120558DFBD031205580DCF031265
:1019830005583F9E031205584F9E031205586D9E3E
:1019930003120558CE9E0312055839C80312055881
:1019A30060C803120558E5C8031205583EC903125F
:1019B3000558DD9E03120558B7C203120558D9C254
:1019C3000312055843C30312055863C30312055892
:1019D300A9C30312055804C403120558098F03123F
:1019E30005581E8F0312055833900312055874903F
:1019F300031205588E90031205580A9103120558D5
:101A0300259203120558999203120558B3920312B3
:101A13000558C69203120558D49203120558EE9244
:101A2300031205580593031205582F930312055803
:101A33008093031205586EA2031205587CA2031269
:101A43000558F6A203120558C2A3031205586EA542
:101A530003120558AEC503120558E7C5031205580E
:101A630004C60312055862C603120558C7C60312FB
:101A730005580080031205586D8003120558248110
:101A830003120558918103120558AE8203120558BB
:101A93004A8403120558AE840312055803850312C2
:101AA30005580C85031205581B85031205582E850E
:101AB300031205584485031205584D850312055832
:101AC300F5CB0312055802CC031205582ACC031296
:101AD300055839CC0312055852CC03120558598ABC
:101AE30003120558AC8A03120558B48C0312055827
:101AF300E68C03120558088D03120558218D031235
:101B030005583A8D031205583C8E03120558CA8EA8
:101B13000312055849BA031205587BBA0312055834
:101B230087BA03120558BABA03120558EBBA03125F
:101B3300055819BB031205588EBB03120558BDBBCC
:101B430003120558F2AE0312055818AF03120558D5
:101B530055AF0312055867AF0312055883AF03123D
:101B63000558F1AF03120558FAAF0312055859B0DF
:101B7300031205587DB0031205583CB103120558F2
:101B830049B1031205585AB10312055865CC031223
:101B93000558B2CC03120558469F031205588EA070
:101BA300031205589BA003120558AEA00312055853
:101BB300CDA003120558E3A003120558F7A00312A2
:101BC300055871A10312055807A2031205584FA225
:101BD300031205585FA2031205585CCB0312055884
:101BE30080CB03120558A8CB03120558D0CB0312A0
:101BF3000558EAB30312055803B4031205580FB48A
:101C03000312055823B40312055841B403120558AF
:101C13004BB40312055855B40312055868B40312A4
:101C23000558BCB403120558F5B40312055824B57E
:101C33000312055872B503120558C1B503120558AE
:101C4300DCB503120558E6B503120558F7B50312C0
:101C530005583DB603120558BCCD03120558D5E609
:101C63000212055801E7021205581DE70212055832
:101C730030E70212055846E702120558B2E702128E
:101C83000558E5E70212055842EB021205586DECC0
:101C930002120558A0EC0212055805ED0212055870
:101CA300EDED0212055815EE021205582AEE021246
:101CB30005583AEE021205587EEE02120558D3EE8D
:101CC30002120558E3EE0212055806C7031205581F
:101CD30021C7031205584AC70312055864C70312E4
:101CE300055889C703120558A8C703120558C0C76A
:101CF30003120558EEC70312055808C80312055806
:101D030004CE03120558BF9A03120558C69A03124C
:101D13000558D29B03120558029C03120558289CB0
:101D2300031205585B9C031205586D9C031205585A
:101D3300A79C031205580D9D03120558469D0312D7
:101D43000558929D03120558BF9D03120558DF9D48
:101D53000312055848B60312055884B603120558F2
:101D630072B70312055857C903120558B6C90312AF
:101D73000558F4C90312055835CA031205585CFC0B
:101D8300021205587BFC02120558C6FC02120558C4
:101D9300E2FC021205581AFD0212055827FD021231
:101DA300055844FD0212055827FE021205585EFE2F
:101DB3000212055865FF0212055870FF02120558FA
:101DC30082FF021205588BFF0212055895FF02127B
:101DD3000558B593031205582F97031205587ACE69
:101DE3000312055844CE03120558A7CE0312055813
:101DF300EFCE03120558EE820112055853820112E9
:101E03000558E28101120558C38101120558B181B9
:101E130001120558399F021205581B9F02120558DB
:101E2300479E02120558AB9D02120558379C0212B9
:101E33000558E399021205587E9902120558379600
:101E4300021205580F9602120558B495021205584E
:101E5300919502120558EB940212055893940212BD
:101E63000558F09202120558ED9202120558FC91A2
:101E730002120558DC91021205582C9102120558E2
:101E8300558501120558098501120558E884011288
:101E93000558AB8401120558708401120558AE8FA2
:101EA30002120558758F02120558468F0212055803
:101EB300438F021205584C8401120558358F0212C4
:101EC3000558218F02120558148F021205583C8EB3
:101ED300021205580BD40212055831840112055819
:101EE300C88D021205588E8D02120558368D0212C6
:101EF3000558058D02120558378A02120558208AA3
:101F030002120558938902120558E18802120558F6
:101F1300808602120558EA8302120558B48302121E
:101F230005585282021205580182021205583A815D
:101F3300021205580D8102120558678002120558D6
:101F43000080021205583A80021205582FCC020075
:101F5300000080FBC2C732E4730001363601010082
:101F6300010201000103010001040106060502004C
:101F730000070100340801000F090401010D0100ED
:101F8300FF0E08000017020000190100FF1A0100EC
:101F9300011B0100FE1C0100081D0200001F0100BF
:101FA3000120010001210200002301000F2402008F
:101FB300002601000127010008280200FF2A010072
:101FC300072B0102402C0100002D0100012E01000E
:101FD300012F0100FF30010B1C310800003A010002
:101FE300083B01000F2F01000001017101010101F4
:101FF30001110101013101010101018001100161A0
:10200300013B00140063017301720162014301008B
:1020130001130106013D0135000401120100010015
:10202300010001000104010401330133013C0144B7
:102033000132013600000100016501000135008114
:1020430001000105018201830100010300710030D9
:102053000160001100700031022003500480001061
:10206300006100000014006300730072006200430B
:10207300000000130006000000000004001200002E
:102083000000000000000004000400370037003C9B
:10209300024400000000000000000065000000355D
:1020A30000810000000500000083000000030471AC
:1020B3000402046004110470040204020401040213
:1020C30004100461040004140463047304720462BE
:1020D300044304000413040604000400040404126B
:1020E300040004000400040004510464000004001C
:1020F3000400044404000400040004000465040014
:10210300043504810464000504000483040004030B
:102113000271023001600211027002010202020226
:10212300028002100261023A0041006302730272EC
:10213300026202430200021302380000020002049A
:10214300021202000200020002000204020402372B
:102153000037003C0244020002390000020002651D
:10216300020002350281020002050282028302009C
:1021730002010371030103010301030103010322AC
:102183000302030103100300030003000300030021
:1021930003000300034203000324030603000300B8
:1021A3000304031203250323032503230304030466
:1021B300030003000300034403000300032303009D
:1021C30003650321003503810300030503000300B6
:1021D30003000336000100060000000F00000000AA
:1021E30000000000000000000003FFFF00000403E4
:1021F300FFFF0000FFFF0FF4010005C404032000EC
:102203000100000B000000000000000003010F00AC
:102213000080181300F617010080180200AE1703A0
:1022230000B4170400BA170500C0170600CC171135
:1022330000EA171400F0171500DE17FFFF00000176
:10224300EE0D061E0E08180E0B2A0E10640D02F476
:102253000D050C0E07FA0D0CD60D0DE20DFF000057
:10226300030003000400080010001F003E007B0071
:10227300F600EC01D703AF075D0FB91E713D0000F7
:1022830003EAF5E5D5D5C5B5A59595858575756538
:1022930065555545453535252515150566119611A1
:1022A3006C117211901184117E119C11A211A8114D
:1022B300B411781160115A119C36063A703DD94019
:1022C3004344AD47174B814EEA5100160F00000BF4
:1022D300150B020002220F32000006000102030464
:1022E30005060708090A0B0C0D0E0F50126212683F
:1022F3001230116E122A1136116A106410A010A642
:10230300109A105210C212E012E612C812D412CE62
:102313001200034948424D1817250502303017189B
:102323001921301B1D1F30303016181920231A1C99
:102333001E300C0E020B040B0A0708000F000119D4
:10234300161816161523030000383C3E363B3B3562
:102353002B432CB61274127A12861280128A11AE93
:1023630011DA12BA11C01176107C107010AC100083
:1023730005150D0910080400000000000000BE044C
:102383000A821094100E0004001500010309280CA2
:10239300100A09000005040F0808C082C083E990F1
:1023A30003CEF0E4900382F0121D549003E1E4F0B5
:1023B300A3F09003CFF0A3F0120FC2120B2A120C5A
:1023C300C2121D5A900342E4F0A3F09003F3E070AD
:1023D30002A3E060099003F312570C121F5A9023D3
:1023E3009AE493FA7902121DB40249F574F21203C6
:1023F3006EEAFEEBFF74805FF9E47001E9606190BF
:1024030003CEE0F91215268A088B09EA7001EB6006
:10241300467B0080010BEB75F003A42442F8E5F042
:102423003422F988828983E493FA74FF6A602185F0
:102433000882850983E06A70DCAA08AB098882896F
:1024430083A3E493C0E0740193F583D082121F5AEF
:10245300AA08AB0912151AEEFA74806FFB0226184C
:1024630074105FF9E47001E9601D120EA88A088BED
:1024730009EA7001EB600A120DE2AA08AB09121512
:102483001AEEFA741080D4EE542070030225657599
:102493000C001246927001EB70107C027D007A20D2
:1024A3007B009003CEE0F91216407C0079047A0099
:1024B3007B00120E728A088B09800D740188828951
:1024C30083F0850A08850B09E5087002E509606D4C
:1024D3007C007904AA08AB09120E728A0A8B0B7569
:1024E3000C01E508240412671C24FFF0A3E034FF69
:1024F30012695F7002A3E070C9E5082409F8E509D1
:102503003400F9850882850983A3A3A3A3A3A3A306
:10251300A3A3A3E0640170A3850882850983A3A311
:10252300A3A3A3A3E054047092740688828983F062
:102533007AB78508828509831227298085120E427E
:102543007C0079017A007B00120E72EA7001EB7055
:1025530009E50C70057A2012261B74206EFAEF022F
:10256300245FEE54106007120CF8741080EEEE54E2
:10257300406007120D4C744080E2EE5480600712F5
:102583000C1A748080D674015FF9E47001E9601A53
:102593009003F5E07002A3E060099003F512570C75
:1025A300121F5AEEFA740102245E74085FF9E47094
:1025B30001E9602D120CCE9011FEE06401701B90B6
:1025C30011FFE06015FC75F0E8A4CCAAF075F003E8
:1025D300A42AFD7A007B0812279AEEFA74080224D3
:1025E3005E74025FF9E47001E9600A120FBCEEFA4F
:1025F300740202245E74045FF9E47001E96012124C
:102603005A98125447790112361CEEFA74040224C4
:102613005E7A007B000232B07B009003CEE0F912B9
:1026230016462274F712036E74E1120913EAFEEBE5
:10263300FFEE7001EF6033851882851983AC82AD9C
:1026430083120ED27406120B0EE0601E7417120B67
:102653000EE0FD7401120B0EE0FCEEFAEFFB7900C5
:10266300121E1AE9600479A48002790002493A74BF
:10267300F612036EEAFEEBFF8E828F83A3A3A3A35E
:10268300A3A3E0544060178E828F8312570C125C11
:102693001060067AFF7BFF802412271D80159003AC
:1026A3006DE0A2E1500A790012271D120CD48003B9
:1026B300120EF674FE6A700374FF6B60458E828F90
:1026C3008312570C125C2C120F62E98E828F836087
:1026D30006122716E480051227167401F07CBE7DCE
:1026E3000D8E828F831254F5121DAEE9F508701515
:1026F300EE7001EF60097901EEFAEFFB120E4E0264
:1027030057027508CDAA088E828F83122729E960A4
:10271300DF80ECE0240D124F45228E828F83125E00
:1027230025FAA3E0FB22E0240C12498BF9120DCA0F
:102733002274F612036EE9FEEAFF7A0F7B0012158C
:1027430014EA7001EB6019740C8A828B83F0EEA398
:10275300A3F0EF8A828B83A3F01258F979008034B7
:10276300EEF9120E788A088B09A808A909E8700106
:10277300E9601F740688828983A3A3A3A3A3A3A3E9
:102783001266E7A3A3A3A3A3E0F9120D5EEEF91269
:102793000E5479100257229003CEE0F912163A2212
:1027A30074EE12036EEAFEEBFF8C088D09890E743A
:1027B30012120B0EE0F510A3E0F511851082F583DC
:1027C300E4F0A3F01228B3EE241DF8EF3400F988E7
:1027D3000C890D88821228C0601F850A82850B83AD
:1027E300122B997014850A82850B83124DC58510AF
:1027F300828511831254478003750E00850C8285F0
:102803000D83125E211206800109AE2823283D287C
:1028130046285128AE287528AE2885289E28A72843
:102823007810120884AC08AD09EEFAEFFB120CE045
:1028330074021208B1E9F50E8071EEFAEFFB120C87
:10284300E68068A90EEEFAEFFB120F7A80E71269B1
:102853006464027056E50E7010850A82850B83123C
:10286300607A7003A3E0697042EEFAEFFB120F3255
:10287300803912696464027032EEFAEFFB120F1AA8
:1028830080299003F7E07002A3E0601FEEFAEFFBEC
:102893009003F712570C121F5A8010EEFAEFFB1237
:1028A3000F868007EEFAEFFB120F92A90E02443E49
:1028B300EE2409F8EF3400F9880A890B22F5831214
:1028C3005E25F9120F44E92274ED12036E74DE12D1
:1028D3000913EAFEEBFFEE24021250C0F9120E7840
:1028E3008A088B09EA7001EB70030229B7EE240C06
:1028F300F50CEF124091EA2409F50AEB1266D2EACD
:102903002406F50EEB1231B68E828F83A3AE82AF0F
:1029130083E064F16017E064CD6012E0641A600D37
:10292300E064E96008E064E16003022A38850E820E
:10293300850F83A3E05408F9E47001E970030229C9
:10294300C47405850A82850B83F09003FBE0700253
:10295300A3E060099003FB12570C121F5A9003FD6A
:10296300E07002A3E0603490036DE0A2E1502C8597
:10297300088285098312672FA3A3A3A3A3A3A3A3F9
:102983001249441231D4EA7001EB600F8E828F83B7
:10299300E0F99003FD12570C121F5A850A82850B2A
:1029A30083E0640270037406F0851082851183E06E
:1029B300F9120E54120E4274221208B17F0B020553
:1029C300C57900120E4EE9606C90036DE0A2E150F0
:1029D300588508828509831264107002A3E0604958
:1029E3007403120B0E1263F78E828F83E064E97017
:1029F30018122AF91208888E828F83E0F512781252
:102A0300120888123BE41208B1740C120B0E125414
:102A1300F5125706125C2C7900740E120B0E124C31
:102A2300F0740C120B0E1231CD850E82850F8312BA
:102A33004CFA02294C8E828F83E0C0E07402120BA1
:102A43000ED0E01232041259ED123BBE12696A85B0
:102A53001882851983AA82AB837005120C3E80030A
:102A6300120F3E8E828F83E064F16034E064CD60A8
:102A73002FE0641A602AE064E16025E064F06020DE
:102A83007402120B0EE0FC74B76C6014122AF91274
:102A93000888ECF5127812120888123BE41208B188
:102AA30090036DE0A2E1400302299E850A82850B13
:102AB30083E06402702A850E82850F83E0540460EC
:102AC3001F125706125C10701312570674FFF0A3FF
:102AD300F07405850A82850B830229AB740380F3A6
:102AE3008E828F83E064E9600302299EAA08AB0902
:102AF300120F9802299E850882850983125E2E751E
:102B0300120178122274F512036E8A088B09750A72
:102B130000EA2409124AD0FEE9FF8E828F83122B2A
:102B2300997003750A018E828F8312534B7003A32E
:102B3300E06B7006E50AD2E1F50AE5082402FEE53A
:102B4300093400FFE50A60138E828F83E07006E587
:102B53000AD2E58004E50AD2E6F50A120F62E964B7
:102B6300017006E50AD2E0F50A8E828F83E06017D2
:102B7300E508241DF582E50934001228C0640160CC
:102B830006E50AC2E0F50AE50AA2E14004D2E7F548
:102B93000AA90A025F85125C1464022274E8120314
:102BA3006E74DC120913EAFEEBFF7403120B0E12B0
:102BB30059FE7514007515007405120B0EAC82AD29
:102BC300838E828F83A3A3A3125BFD1254F5120E8F
:102BD300D2EE241B124DBF7412120B0E1254477403
:102BE3000B120B0EE06022741C120B0EE0FD740638
:102BF300120B0EE0FC8E828F83A3A31254F579018E
:102C0300121E1AE960030231A97405120B0EAA827F
:102C1300AB83120DDCE9F508740B120B0EE0700E9A
:102C230090036AE06008E9A2E140030231A9EE24BF
:102C330012F516EF3400F517EE242A1266CFEE24B0
:102C43002C1231BE1236CBE0687003A3E069701C0E
:102C530075090078091208887809120888EE242E6D
:102C63001231C51231E0123BF41208B17408120B91
:102C73000EE0FA900370E06A60030231A9740B124C
:102C83000B0EE07003022D221231E01231D48A0AB6
:102C93008B0BA80AA90BE87001E97003022DC67417
:102CA30006120B0E1231DBFAA3E03400FB740D2A7B
:102CB300F582E43BF583E0FAE82404F50AE91266B9
:102CC300D2E82403F582E912696A6A600DEAF0909A
:102CD30081A5780C120ACF12322979047406120BDB
:102CE3000E1231DBFCA3E034008C82F583A3AA82AD
:102CF300AB831215028A0C8B0D8C0E8D0F850A8205
:102D0300850B837810120ACF7810790C120A615060
:102D1300030231A990819D780C1209A5123229EE84
:102D230024241231B3EE2430F50CEF124091EE243B
:102D33002F1266CF90036DE0A2E15003022E5D9047
:102D43000382E0FA74046A600874096A600302315A
:102D5300A9E508A2E54003022E0C123210C0E0746C
:102D630001120B0ED0E0123C1EC0E07402120B0ED7
:102D7300D0E0F07416120B0EE06401702074101290
:102D83000B0E1231F87003A3E0697011740E120B6D
:102D93000E122B9970077416120B0EE4F0850E8237
:102DA300850F831206E77404120B0EAC82AD837495
:102DB30009120B0EAA82AB83120C4474041208B1DD
:102DC3000231A99003C7E064016003022D2274223B
:102DD300120B0E125E2164067009E508A2E6500389
:102DE300022D227412120B0EE064FF7004A3E06440
:102DF300FF70030231A9EEFCEFFD7405120B0EAA5E
:102E030082AB83120DE80231A9A2E640030231A985
:102E13007422120B0E1231F0701C741C120B0EE094
:102E2300640260030231A97405120B0EAA82AB83FC
:102E3300120F320231A974076A60030231A9741CAC
:102E4300120B0EE0640460030231A97405120B0E29
:102E5300AA82AB83120F260231A97416120B0EE05D
:102E6300601D8E828F83A3A3123C1014125257A3AA
:102E7300123C10C0E07416120B0ED0E0F07006E5A1
:102E830008C2E7F508900382E0FA74046A600574E7
:102E9300096A7061740E120B0E12534B7003A3E098
:102EA3006B6017120F62E96402600F740A120B0E53
:102EB300E05403640160030231A97407120B0EE0AE
:102EC300701B123210C0E07401120B0ED0E0123CE2
:102ED3001EC0E07402120B0ED0E0022D9F7422126A
:102EE3000B0E1231F07003022E1D74076A60030289
:102EF30031A9022E4175090074615508700302302F
:102F030011E508A2E05070851682851783124CF0F4
:102F13007405120B0EAA82AB83120D52E97055127F
:102F23000F02E9F5097416120B0EE0700F741012FC
:102F33000B0E1231F87003A3E069603BA9098516F3
:102F430082851783124CF07405120B0EAA82AB8391
:102F5300120D58E96013740E120B0E126001120B5E
:102F63000E125447751404800EE508C2E5F5087582
:102F73000900800353089FE508A2E5503C12321074
:102F8300C0E07401120B0ED0E0123C1EC0E07402CC
:102F9300120B0ED0E0F0850E82850F831206E774C4
:102FA30004120B0EAC82AD837409120B0EAA82AB12
:102FB30083120C4474041208B1E508A2E64003022C
:102FC30030D07403120B0E85820A85830B780A12A4
:102FD3000884A909851682851783124CF074071299
:102FE3000B0EAA82AB83120DD074021208B1E9F55D
:102FF3000970030230D07422120B0E125E21640199
:1030030060030230D074104514F5140230D07407F5
:10301300120B0EE06401703B7422120B0E125E2140
:103023006405702F7403120B0E858208858309785B
:10303300081208847900851682851783124CF07470
:1030430007120B0EAA82AB83120DD074021208B1C1
:103053000231A97416120B0EE07003022DF9120E41
:1030630048E960030231A9740E120B0E12600112BB
:103073000B0E1254477809120888741E120B0EACFB
:1030830082AD83740F120B0E1254F5740A120B0ED9
:10309300E0F9120D9474011208B1E9600F75142060
:1030A3008E828F83A3A3125E21543FF079007410A4
:1030B300120B0E124CF0740E120B0E1231CDE9608E
:1030C3000674204514F514120F02E9F5097403126E
:1030D3000B0EE064FE7004A3E064FF700375090047
:1030E300E508A2E740030231A9E50970030231A90B
:1030F3007403120B0E1231F87003A3E069700B74A2
:103103001D120B0EE07003022DF98E828F83A3A391
:10311300A3A3E0FA7B001215988A0A8B0BEA7001CD
:10312300EB70030231A98E828F83A3A3E0F50CA376
:10313300E0F50D750E00780C1208808E828F83A344
:10314300A3A3A3E0FC7D001241621208B17407122D
:103153000B0EE0851882851983F07401120B0EE4BF
:10316300F0A312320485820C85830D780C12088437
:103173007814120884E509F50878081208888E8205
:103183008F83A3A3A3A3E0F97408120B0E124CF0D0
:10319300AA0AAB0B120EC074051208B1E96007AAA4
:1031A3000AAB0B12159E74241208B17F100205C5D9
:1031B300F50EEF3400F50F22EE240BF582EF1267C4
:1031C3004322F582EF125ABCF922124987120CDA14
:1031D30022124987120FE62212635B2A22850A8292
:1031E300850B83124AE985168285178322125E2591
:1031F300FA74046A22124DD7851682851783E06814
:103203002212320822F085188285198322EE242E99
:10321300125AB985188285198312322022F0850A41
:1032230082850B83E022850A82850B83E50CF0A35C
:10323300E50DF0A3E50EF0A3E50FF02274F21203FF
:103243006EEAFEEBFF8C088D091228B379008882A1
:10325300F5831254F5120D708A828B83E582700216
:10326300E583603AA3A3A3A3A3A3E05418602FE5C7
:1032730008241BF582E5091231C11206EBE5082487
:1032830012F582E5091231C11206EBEE2418123150
:10329300C51232B5120DA074041208B1800879006A
:1032A3001232B5120CF2800574031208B17F0602C4
:1032B30005C5850A82850B83124AE9EE240B124960
:1032C300802274EE12036E74EA1209138A0C8B0DBA
:1032D300EA2402F50EEB1231B60A0AFB120B4E8AF0
:1032E300088B09AE08AF09750901850C82850D832A
:1032F300A3E0F508750A01AC0EAD0F851882851998
:1033030083AA82AB83121D787408120B0E1259FE26
:10331300740A120B0E7402F07413120B0EE4F0E530
:103323000C240AF50CE50D1240919019CEE07010B3
:10333300EE7001EF700AE50870067509C302349B4D
:10334300900382E0640860067509C2023497850C15
:1033530082850D83E0A2E1500EA2E35005750A04B5
:10336300800C750A038007A2E35003750A02EE700E
:1033730001EF60648E828F83A3A3A3A3E0FA740496
:103383006A600574036A700C7404650A601C740334
:10339300650A601674026A600574016A702074021B
:1033A300650A60067401650A700F8E828F83123E70
:1033B300FA120B0E125447801F74026A60057401DF
:1033C3006A700A8E828F83123FAE121F5AAA0EAB07
:1033D3000F120B5A7E007F007408120B0EE064FE7E
:1033E3007004A3E064FF7038120B24E97032E5081F
:1033F30060179003BFE06402700F9019D5123EFA74
:10340300120B0EE8F0A3E98016850C82850D83E08C
:103413005402F9120CFE7408120B0EEAF0A3EBF03F
:103423007408120B0E12353B700374FF6B70057535
:1034330009C78060E508F50B780B120888850C82B4
:10344300850D83E0F9AC0EAD0F120C627401120806
:10345300B1E97040A90AAC0EAD0F7408120B0E123D
:1034630036158A108B11AE10AF11EE7001EF601C90
:1034730074026508700BEE240512696754FB440857
:10348300F0740A120B0EE4F0F50980087408120BAD
:103493000E1259FEE508700F851882851983AA82DA
:1034A300AB83121D968010FCA90A851882851983A7
:1034B300AA82AB83120F20E9FAEE7001EF603EEEB1
:1034C3002405F8EF3400F9E508601288828983E067
:1034D300D2E6F0740265087004E0D2E5F0850C8250
:1034E300850D83E0A2E6500888828983E0D2E7F065
:1034F3008E828F83A3A3A3A3A3A3E004F0E50970A3
:1035030003EA602FFC7D007A017B10121D60EE70D0
:1035130001EF6007AA0EAB0F120B5A7408120B0EC1
:1035230012353B700374FF6B600990035A12570CFA
:10353300121F5A741602443B12498774FE6A22749E
:10354300F612036E74F71209138A088B099003822B
:10355300E0FA74036A600D74016A600874096A60B2
:10356300030236128508828B83A3AE82AF83E060A9
:10357300030235F77C007D007A027B00121D60E5B3
:10358300082402124443125F781254477953121DE0
:1035930090790012361C900382E06409600990035D
:1035A300801254F5120FE0740112573F7404900314
:1035B30082F07401120B0EAA82AB83794A121D8A20
:1035C3007401120B0EAC82AD837A787B03121D78E3
:1035D30079007401120B0EAC82AD83900376123620
:1035E3001590036DE0A2E35004D2F08002C2F01202
:1035F30057278018FC7D007A037B10121D608E8292
:103603008F83E0F912361CE4900382F0120E240239
:10361300571D124987120B3C2290038012498712CF
:103623000C5C22C082C083900342E07002A3E0706E
:1036330041900382E01207700003014836055736B4
:10364300066636753690034AE07002A3E060769012
:10365300034A806B900346E07002A3E06067900327
:1036630046805C900348E07002A3E06058900348F2
:10367300804D900342E07002A3E06009123C0DFC10
:1036830074016C702379009003CF800909EA1261F9
:1036930084EB1231C112471E7001EB70EF9003CF20
:1036A3001254F5120C4A801D74026C7005120FB08F
:1036B30080139003F9E07002A3E060099003F9120C
:1036C300570C121F5A0249F5124DD79003802274EA
:1036D300F412036E74EB120913EA124ACAFAE9FBF5
:1036E3008A828B837808120ACF7808120A719003B2
:1036F300837808120A177F7F7E7F7C007508017527
:103703000900750A00750B00EC7808120842900353
:10371300837808120A049081A57808120969602A3F
:103723007D009003CF801288828983A3A3E06C700D
:10373300010D126183E91231C112478C7001E970E6
:10374300E6EDC39F5004EDFFECFE0CECC3941B406D
:10375300AB8A828B837808120ACF9081A5780812EE
:10376300096960459003837808120AC08A828B83B3
:103773007808120ACF8518828519837808120AC03F
:103783007404120B0E7401F0900389E0C0E0740519
:10379300120B0ED0E0F07407120B0E1238EE805BA2
:1037A300120C86900380125C2C9003CF12478C700E
:1037B30001E9602290038012657DE06A7003A3E053
:1037C3006B700A88828983A3A3E06E60D31261833E
:1037D300E91231C180D6EE900375F0120E12E96042
:1037E3001AE4900382F090034CE07002A3E0600BB4
:1037F30079C490034C12570C121F5A7415024A5E77
:1038030074F012036E74EB1209138A828B83A3A3E1
:10381300A3A3A3A3A3A3A3125E2A7C00750C017523
:103823000D00750E00750F00EC780C120842850C24
:1038330008850D09850E0A850F0B900383780812FE
:103843000A049081A5780812096960259019D4E0CB
:10385300C0E08C08EA2508F582EB12696AFDD0E026
:10386300C39D500D780C120A71900383780C120AD1
:10387300170CECC3941B40A49003837808120ACF5F
:103883009081A578081209696039851882851983A2
:103893007808120AC07404120B0E7401F074071234
:1038A3000B0E7401F0900389E0C0E07405120B0E57
:1038B300D0E0F07407120B0E1238EE7406900382F8
:1038C300F08023E4900382F0FCFD7A047B10121D48
:1038D3006090034CE07002A3E0600B79C490034C4A
:1038E30012570C121F5A7415026706E4125F8F12E7
:1038F3001DA22274EC12036E74ED1209138A828BDB
:1039030083A3123BD5EA2408124AD0FEE9FF8518A7
:1039130082851983AC82AD838E828F83123BFDA394
:10392300A3A3A31254F5120E36851882851983E0DA
:1039330070768E828F83E0C3940B406C85088285FA
:103943000983A3A3A3A3A3A3A3A3E0640270599031
:103953000382E0FAE5082410F510E5093400F511B7
:10396300E508240912408D74026A604174066A6096
:103973003C900342E07002A3E06007123C0D640137
:10398300605474086A600574046A701C7402120B34
:103993000EE0F97407120B0EAC82AD83850C8285A1
:1039A3000D831254F5120E3C74130262F39003421A
:1039B300E07002A3E0701F750A00780A1208887885
:1039C3000A120888851082851183123BC712444B63
:1039D300123BF41208B19003CF1267519003CF1238
:1039E30062EBE508240DF50EE5091231B680318E40
:1039F300828F83E0F8A3123BC7E0687003A3E069FA
:103A030070128E828F83A3A3E0FA850E82850F83C3
:103A1300E06A606B8E0A8F0BEE126184EF12674EC1
:103A2300EE7001EF70C97A187B001215988A128B19
:103A330013AE12AF13EE7001EF70030239AB7C18B3
:103A43001268A71259F5EE240C1231BE74FFF0E58B
:103A530008240B12671C123BB512695EC4123BB5F6
:103A6300A3A3F09003CFE07002A3E070059003CF0F
:103A7300800AE50A126184E50B1231C11266C9742A
:103A830001120B0E123BDFA3F07402120B0E123B5A
:103A9300DFF0850E82850F83123BD0A3123C1E12EA
:103AA3003BAC125262240DFAEF3400FB7402120B8A
:103AB3000EE06401600E7407120B0EAC82AD83122C
:103AC3001D7880097C087D0079FF1214FC741212A2
:103AD3000B0EE0C0E0EE24151231BED0E0123C150F
:103AE300FC901A60E0C39C40030239AB123BBE1248
:103AF30031C1A3E05480F9E47001E9700990112306
:103B0300E070030239AB7D00EE240CF8EF3400F9CA
:103B1300EE240BFAEF3400FB9003BFE06402701D48
:103B23008A828B83E0F50AC39C500D7405120B0E39
:103B3300E0C39405401B801AE50A6C7015740512E6
:103B43000B0EE0C0E088828983E0FCD0E0C39C5088
:103B5300010D7404120B0EE06020ED601D850882D8
:103B6300850983125F99ECF0A3ED123C158A828BD1
:103B730083F07405120B0E124D017406120B0EE046
:103B8300600D74018E828F83A3A3A3A3A3A3F074F8
:103B930004120B0EE070030239AB74018E828F8323
:103BA300A3A3A3A3A3F00239ABF8A3E0F98E828FFA
:103BB3008322540F8E828F83A3A322E508240BF55F
:103BC30082E50922E0F9850C82850D832212408962
:103BD300A322A3A3E0F508A3E0F5092212408980FC
:103BE30021850C82850D83123BFD124AE58A828B67
:103BF30083124987120F08740222E0F98A828B83A9
:103C03008002A3A3A3A3A3A3A322900342124F550D
:103C1300E022F0851082851183E022F0850C8285F5
:103C23000D83E02274F612036E74C9120913900314
:103C330082E064086062900393E0F82454F582E420
:103C4300341AF583E0FA900364F0E8245AF582E429
:103C5300341AF583E0FB900362F07508FF7509FFE2
:103C6300EA78081209F1E508F4FCE509F4FD339557
:103C7300E0FE90038B123DC77508FF7509FFEBC388
:103C83009A78081209F1E508F4FCE509F4FD339587
:103C9300E0FE90038F123DC7E41257357904121DDD
:103CA30090900393E07009741E120B0E740180064A
:103CB300741E120B0EE4F0740F851882851983F0BD
:103CC3009019D3125F8B7946121D907401120B0E5B
:103CD300E4F0901A42E0C0E07402120B0ED0E0F060
:103CE300900370E0C0E07403120B0ED0E0F0740494
:103CF300120B0EE4F07405120B0EE4F07407120BB2
:103D03000EE4F0900393E0FAC3940F740650061286
:103D13000B0EEA8005120B0E740FF07C947D037476
:103D230008120B0EAA82AB83121D787C037D0079E7
:103D3300FF7410120B0EAA82AB831214FC9003CDF6
:103D4300E0C0E07413120B0ED0E0125835120B0EC4
:103D5300125824120F0E900387E0C0E0741C120B5C
:103D63000ED0E0F0900388E0C0E0741D120B0ED07B
:103D7300E0F0900375E0C0E0741A120B0ED0E0F08F
:103D8300900380124DC57418120B0E125447742001
:103D9300120B0EE4F090038AE0C0E0741F120B0EC6
:103DA300D0E0F07434120B0EE4F07429120B0EE41D
:103DB300123DD27414120B0EAA82AB83121DA87487
:103DC3003702571FECF0A3EDF0A3EEF0A3F022F0BF
:103DD3007A737B037953123DDD22121D907A767B31
:103DE30003794B121D9022C082C0838A828B83A3E6
:103DF300E06007E4900382F0804A7408900382F045
:103E0300900393E0701F90034CE07002A3E0600BFB
:103E1300790090034C12570C121F5A900380124CD6
:103E2300F07A05801A7900120C56900373124CF045
:103E33007A067B00121D60900376124CF07A047BA5
:103E430000121D600249F574F412036E74EA12093C
:103E530013EA2402FEEB3400FF0A0AFB120B4E8A1C
:103E6300088B09EA7001EB7003023EF58A828B83AB
:103E7300A3A3A3A3E0FA74016A600F74026A600A41
:103E830074036A600574046A7068EEFCEFFD8518BC
:103E930082851983125D97123EFA120B0E12544754
:103EA300740A120B0E7401F07413120B0E125F8A54
:103EB300121D9C890AAC0A7D007A077B00121D60E3
:103EC300850882850983A3A3A3A3A3E0C2E0F074BA
:103ED30001850882850983A3A3A3A3A3A3A3A3A303
:103EE300F07402850882850983A3A3A3A3A3A3A3D4
:103EF300A3F07416024A5E124DD774082274F712A7
:103F0300036E9003CFE0FAA3E0800CEA2416126755
:103F13004B12159EEEFAEFFBEA7001EB70ED900386
:103F2300CFE4F0A3F002493F74F412036E8A088BC6
:103F330009EA240BFEEB3400FFEA2413F582EB12AB
:103F4300696A64037009EEFAEFFB120B4E800CE012
:103F5300640270548E828F83126728EA7001EB60CB
:103F630047EA2406F8EB1228B8850882850983A35B
:103F7300E07007E488828983802D64F16005E06442
:103F8300E1701A88828983E0640170118A828B83CD
:103F9300123FAE121F5AEEFAEFFB120B5A850A823A
:103FA300850B83E0600214F0024A61124987900393
:103FB3005A1257102274F112036E8A088B09ECFE11
:103FC300EDFF890A8A828B831263208A828B831294
:103FD3004088F0EEF8EFF9A30EAF838A828B83A3B8
:103FE300A3E0C454F0FA88828983E04A12409B120A
:103FF3004089124096E0333354FCFA8E828F83E07B
:104003004A124096A3E033333354F8FA8E828F83F7
:10401300E04AF008EFF9A30EAF838508828B83A3F0
:10402300A3A3A3A3A3E0A2E0E492E013135480FAB2
:1040330088828983E04AF0E5082407F50CEB1240F7
:1040430091750E00780C1208807C081250A9120892
:10405300B112630AE508240F12408D780C12088010
:104063007C031250A91208B1E50AC3940F4011E56D
:10407300082412F582E5091231C1123BD0A3A3F043
:104083007F070205C5A3E0023BB0F50CE509340048
:10409300F50D2212409BA322F08508828B83A3A3F4
:1040A300A32274F112036EEAFEEBFF890A8C088DDA
:1040B300098E828F83E08C828D83125257AE82AF3A
:1040C30083E01252FD124174C41252FD124168E0A2
:1040D30054038C828D83124172A2E2E492E08C82BB
:1040E3008D83124171131313541F1252FDA31241F6
:1040F30071A2E7E492E08C828D83A3A3A3A3124170
:10410300688E0C8F0D750E00780C1208807C087D6C
:1041130000E508240712415C1208B112630A8E0CF1
:104123008F0D780C1208807C037D00E508240F12A4
:10413300415C1208B1E5082412F8E5093400F9E5F9
:104143000AC3940F400A8E828F83A3A3A3E0800146
:10415300E488828983F0024083FAE5093400FB1284
:1041630014F0740322A3A312525B0EAF8322A3A302
:10417300A3A3F002623774F412036E74F9120913E5
:10418300EAFEEBFF900342E07002A3E06010123CF2
:104193000D64027009EEFAEFFB120FAA806290031E
:1041A30080E06E7003A3E06F705674016960097A52
:1041B300947B0312638970487A007B0212469670DF
:1041C30001EB703C9003837808120ACF851882852F
:1041D30019837808120AC0900389E0C0E0740412BE
:1041E3000B0ED0E0F07405120B0E7401F07406127E
:1041F3000B0E7402125F8B120C08E96098120C0EFE
:104203007407024A5EE0F90249F574F612036E90F0
:1042130003E0E0701F7C0079017A007B00120E72CC
:10422300EA7001EB600E8A828B83E07002A3E06088
:1042330003120DC4025722C082C083124676401077
:1042430079FF120E6CE9FA902392E493C39A500417
:104253007901800279000249F574EE12036E8A082F
:104263008B09890D750E00EA2408F50AEB124CE35D
:10427300E0F9120E788A108B11AE10AF11750C0194
:10428300EE7001EF6003024311850882850983A361
:10429300A3124D08F98508828509831254F5120E7D
:1042A300608A0A8B0BAE0AAF0BEE7001EF7003024C
:1042B30044348E828F83A3A3A3A3E4F0A3F0E50881
:1042C300240B124443E0C0E01231BBD0E0F0120FE4
:1042D3006EEE240C125C25750E01EE2406F8EF1227
:1042E3004685E0547FF0A3E054FC12452B54046050
:1042F300030243A3901A3B125176740778081209FC
:10430300F18A828B83E04508F0A3E04509F0EE24AF
:1043130006F8EF124AD2FCE9FD8C828D831254F524
:1043230074805AF50874035BF50974077808120A58
:10433300B1E508F510EE24041266CFEE2409F50862
:10434300EF3400F509E50D60607402850882850984
:1043530083124175240D124F41E0A2E2500F9003E6
:104363006E124DC5850A82850B83125447E5107082
:1043730003024401747F5AFA74FC5BFB74FF25103B
:10438300F51074FF3400F511740778101209F1E584
:10439300104AF8E5114BF98C828D83125447805EE5
:1043A300E04480F0A3E0024310E5107005750C00B3
:1043B300804CEA5420601512150E8A10747F551034
:1043C300F8745F28850A82850B83801BEA5410608A
:1043D3000E12150E8A10740F5510F8740F80E485B1
:1043E3000A82850B837401F0A3E4F07404850882C8
:1043F30085098312468D7001EB70031256F5740123
:10440300650E7030850A82850B8312444BE0F9EE0A
:10441300FAEFFB120E66E9601BEE240C1231BE129A
:10442300471E7001EB600312159EEEFAEFFB1215A7
:104433009E750C00A90C80031208B17F0A0205C502
:10444300FAE5093400024DE6124AE9850882850936
:10445300832274F612036E74F71209137E00120E90
:1044630078EA7001EB70030245268A828B83A3A34B
:10447300A3A3A3A3A3A3A3E0640660030245268A20
:10448300828B83A3A3A3A3A3A3A3E0FF8A828B832B
:10449300124F4FE0C0E07408120B0ED0E012452B10
:1044A300F8A3E0F5838882125D11125447120E9629
:1044B30074085FF9E47001E96067851882851983E0
:1044C300124CF07A007B00120E5AEA7001EB705125
:1044D300900380124AD7121DC07C007D007A007BB6
:1044E3000080288E828F83125AA2E064FF7004A397
:1044F300E064FF602C900380124CF0121AE4E9642C
:104503001A601E7C007D00EEFAEFFB120E5A8A0839
:104513008B09AE08AF09EE7001EF70C77900121D69
:10452300C67E01EEF902571D124DE3E02274F71225
:10453300036EEA7001EB70059003E180068A828BBB
:1045430083A3A312471E7001EB60288A828B83A387
:10455300A3A3A3A3A3A3E05408F9E47001E960DDD6
:10456300EC7001ED6011125E1D6C7003A3E06D70C1
:10457300CC80047A007B0002493F74F212036EEA96
:10458300FEEBFF890A8C088D097A0E7B00121598C1
:10459300EA7001EB603BE48A828B83A3A3A3A3A30A
:1045A300A3A3A31245D7E50A1249541259EB8A82F1
:1045B3008B83A3A3A3A3E4F01245D7A3A3F01266AE
:1045C300C5EA240CF582EB126958A3124DDDF0A362
:1045D300F00232B0A3124958023C0874F512036E7C
:1045E300EAFEEBFF890A8C088D09EE7001EF605635
:1045F3007401650A70147901120E6CE9FA90239C18
:10460300E493C39A500F791180667404650A70307D
:1046130012467640F18E828F83A3A3A3A3A3A3A301
:10462300A3A3E50A125269126A0DE4F0A3F0900302
:10463300E1E07002A3E09003E16024124DC5800A1B
:104643007402650A60CF79C18026E824020808E96C
:1046530012468512478C7001E970EF8A828B83EED4
:10466300F0A3EF12468D7001EB70031256F579003B
:10467300025F857904120E6CE9FA902398E493C3E0
:104683009A22124AD2FAE9024DE6F0124692227AAF
:10469300207B009003CEE0F912164CEA22C082C0C0
:1046A30083E9FC79009003E1801D8A828B83A3A3B5
:1046B300A3A3A3A3A3A3A3E06C600574FF6C700181
:1046C300098A828B83A3A312471E7001EB70DB025E
:1046D30049F574F712036EEA7001EB70059003E17C
:1046E30080068A828B83A3A312471E7001EB60248A
:1046F3008A828B83A3A3A3A3A3A3A3A3A3E0697029
:10470300E1EC60148A828B83E0240D126231A2E211
:1047130040D080047A007B0002493F124987EA2295
:10472300C082C0839003E180068A828B83A3A31295
:10473300471E7001EB60128A828B83A3A3A3A3A3FA
:10474300A3A3A3E06970E280047A007B000249F529
:10475300C082C0839003E1800688828983A3A31269
:10476300478C7001E9601B88828983E0FCA3E0F534
:10477300838C82E06A7003A3E06B70DDE8FAE9FBE7
:1047830080047A007B000249F5124DD7E82274F1C8
:1047930012036E8A0A8B0B8C0C8D0D75080075093C
:1047A30000EA7001EB60319003E180068E828F8313
:1047B300A3A31247E27001EF601EAC0CAD0DEEFA3D
:1047C300EFFB850A82850B83121F5AE9640170DCB3
:1047D300EEF8EFF988088909AA08AB09024083E0DB
:1047E300FEA3E0FFEE22790002054B74F712036E7D
:1047F3009003E1124DC57C007D008007E8FCE9FDD4
:10480300124DC5E87001E9603AE82402F582E91225
:1048130031C1EA687002EB6970E21254F59003E16A
:10482300126751E86E7002E96F70099003E1EAF0D4
:10483300A3EB800EEAF8EBF98C828D83A3A3E8F057
:10484300A3E9F002493F74F712036EEAFEEBFFEEB1
:104853007001EF6016120E9012495EEA7001EB6070
:104863000312159EEEFAEFFB12159E02493F74F7F1
:1048730012036E125E1DFCA3E0FD9003E1124DC511
:104883007508007E00803388828983A3A3A3A3A332
:10489300A3A3A3A3E0640570180E88828983E0FFB5
:1048A300A3E0F5838F82E06C7003A3E06D700205D3
:1048B3000888828983A3A3124DC5E87001E970C7F4
:1048C300EA2404F8EB3400F990238FE493FCE50821
:1048D300C39C500B902390E493FCEEC39C400B8845
:1048E3008289837401F0A3E4800A90036E12494421
:1048F300ECF0A3EDF074058A828B83A3A3A3A3A397
:10490300A3124951A3A3E0F0A3E0440812452BFAF4
:10491300A3E0FB8A828B83E064FF7004A3E064FF5F
:10492300600E900380124CF0121DBAE9641A7005F0
:104933007901121DC68005741F1208B17F0102059B
:10494300C5124AE980033400F98882898322A3A32C
:10495300A312495822124DE3023C088E828F83E052
:10496300241C12498BFAA3E0FB12159E8E828F83BF
:1049730012498712159EEE240C12498022F582EF0C
:104983003400F583E0022724124F49E022C082C09D
:1049930083EAFCEBFDEC7001ED70047905804CECCF
:1049A30024FBF582ED34FFF583E07002A3E0701180
:1049B300EC24FFF8ED34FFF988828983E064FF601B
:1049C3000512151A80D59003CE124D01902394E45D
:1049D30093F97AE37B0312154AE96401700B7A00B9
:1049E3007B101256F9790080027904800574021253
:1049F30008B1D083D08202054B74F412036EA2AFC8
:104A0300E492E0F508C2AF9003E31247E27001EFCE
:104A1300603DEE24FBF582EF34FFF583E07002A3E3
:104A2300E07A007B109003CE60051256FC8005E00F
:104A3300F9121556750A00750B00780A120884EEF0
:104A4300FCEFFD7AE37B0312154474021208B1E50F
:104A530008A2E092AFEEFAEFFB80031208B17F04E5
:104A63000205C574F712036E74E1120913EA2413E5
:104A7300F582EB12696AC0E07411120B0ED0E012DA
:104A83004DD07409120B0E124DC9124ACAFCE9FD2E
:104A93008C828D83124DC5740B120B0E124DC924DB
:104AA30014F582EB12696AC0E07412120B0ED0E0A7
:104AB300F0EA240EF582EB1231C88C828D83124A00
:104AC300D7120D5802493A2404124AD022F8EB3483
:104AD30000F9E822124AE9851882851983AA82AB74
:104AE3008322A3A3A3A3E0FCA3E0FD2274EE12039D
:104AF3006E74FC120913EAFEEBFF120E48E960051F
:104B03007911024CDEEE2412F510EF3400F511EEAC
:104B13002402F50AEF124CE3125C106008E48510DE
:104B230082851183F0EE24131250B27003741EF0C9
:104B3300EE2411F8EF125BF570199011F5E0600D9A
:104B430090036AE0700D8E828F83E07006E48882A2
:104B53008983F0EE2414080808EF12671F700C9085
:104B6300035F124D0190035FE004F0EE240FF5089C
:104B7300EF3400F509EE240B1231B390036DE0A27C
:104B8300E1504F850A82850B83125C1060448E824C
:104B93008F83E0600B850E82850F831228C26032FB
:104BA300850882850983E05440601A850C82850D4F
:104BB30083E06401700F850882850983E054FBF06C
:104BC300A3E0F0800DEEFAEFFB120EAEE9700302E4
:104BD3004B038E828F83E06401701A850E82850FEA
:104BE30083125E216402700D850882850983E04487
:104BF30040F0A3E0F0850882850983E054407057B4
:104C030090036DE0A2E1504F750C00780C120888F8
:104C1300EE2406FCEF3400FD850A82850B831254D3
:104C2300F5851082851183E0F9120D947401120841
:104C3300B1E9600CE4851082851183F0124CF4F025
:104C430079008E828F83124D08FAA3E0FB120CDAEF
:104C5300E96004124CF4F0851882851983AC82ADA7
:104C630083EEFAEFFB120EC68A0C8B0D850A828542
:104C73000B83124CF0EA7001EB605C8E828F83E051
:104C8300C0E07401120B0ED0E0F07402120B0E128E
:104C930066C97401120B0E85820A85830B780A128A
:104CA30008848508828509831206EBEE240E1269B7
:104CB30067F50878081208887405120B0EE0F912DC
:104CC3000EC074051208B1E9FE74106E700BAA0CC5
:104CD300AB0D12159E80027E10EEF9740402443B64
:104CE3003400F50B850A82F58322126740124AE9E4
:104CF30022850882850983E04420F0A3E022E0882E
:104D0300828983F022124AE5023221C082C0837471
:104D1300DE1209138A828B83A3A3A3A3124DC57446
:104D23000E120B0EE8F0A3E9124DD0740C120B0E09
:104D3300124DC9240DF582EB12696AC0E0741A1290
:104D43000B0ED0E0F0EA240BF582EB124DC2742077
:104D5300120B0E124DC92415F582EB12696AC0E0DD
:104D63007408120B0ED0E0F0EA241CF582EB124D0E
:104D7300C27412120B0E12544774FF8518828519E0
:104D830083F07401120B0E74FFF07402120B0E7495
:104D9300FFF09081A51206E77404120B0EAC82ADEE
:104DA300837407120B0EAA82AB83120C4474041291
:104DB30008B1790074220249F2EE240BF582EF1256
:104DC3006743124DD722E8F0A3E9F0EA22124DDD42
:104DD300124DD722E0F8A3E0F922124DE3A3A32258
:104DE300F08001FB8A828B832274EC12036E74F0D1
:104DF3001209138A128B13ECFEEDFF890F74241230
:104E03000B0EE0F50C7425120B0E123BD774271210
:104E13000B0E1262EB750D107A1E7B00121598743F
:104E230002120B0E125C2C7402120B0EE07002A322
:104E3300E07003024F3A750E00EEFAEFFB120B48D7
:104E43008A828B83E5827002E583601CA3A3A3A3FC
:104E5300E0FA74016A600574036A700CE508544053
:104E6300700674044509F50974045509F9E47001E1
:104E7300E96003750E01851882851983AA82AB83C5
:104E830079501254EC7402120B0E124F4FA3125CA2
:104E93002C7402120B0EE0240B124F417402F01219
:104EA3000B0E124F4F7402F0120B0E12570C1266B8
:104EB300C97402120B0E125E16E50FF07402120B88
:104EC3000EE0240C124F41E50CF07402120B0EE0BD
:104ED300241C124F41E512F0A3E513F07408120BE2
:104EE3000E1259ED740A120B0EE50CF0850A828539
:104EF3000B83C082C083740D120B0EAC82AD83D0C2
:104F030083D08274031207E3A90E7402120B0EAA54
:104F130082AB83120E4EE964017011E50E6008A99D
:104F23000C120E78120E9C750D00800B7402120B7E
:104F33000E1254F512159EA90D74100262F3124F4E
:104F43004522124F4922F8A3E0024949124F55A3C3
:104F5300A322125714023C0674EA12036EEAFEEB14
:104F6300FF8C088D098E828F83A385820A85830B2C
:104F73007408F0EE24161250B260097410850A8288
:104F8300850B83F0EE24171250C0600A850A8285D0
:104F93000B83E02408F0EE2411F8EF12671F60057D
:104FA300750E0E8003750E00EE240DF514EF34001C
:104FB300F515850A82850B83E0851482851583FAAE
:104FC300E02A250E8C828D8312695F601390036B38
:104FD300E0F9121E14E9FA850882850983E02AF0B4
:104FE300850882850983E0FAC39475400975080032
:104FF3007509000250A07B0012662B7001EB700351
:105003000250A0EEFAEFFB120ECCEA850882850966
:1050130083125C2DEE2402F8125AA81250D8F0EE37
:1050230024040808125AA8A3A31250D8A3A3F0EE8D
:1050330024131250CEF0EE24141250CEA3F07A08AB
:10504300850C82850D83E0600FEE2418124CEDE58C
:105053000824081262E17A10851082851183E060CA
:105063000FEE241A124CED8A0CE508250C1262E1AE
:10507300EE240B126967F510A3E0F51175120078A1
:1050830010120880851482851583E0FC7D0012547C
:105093002FE50E28FAE4391250AE1208B1AA08AB74
:1050A300097F0E0205C57D00EEFAEFFB024162F5B2
:1050B3000CEF3400F50D850C82F583E022F510EF3B
:1050C3003400F511851082F583E0221267401250F7
:1050D300E2A3A3A322A3A31266E3A31250E222E056
:1050E300850882850983A3A3A32274F612036E8A1B
:1050F300828B83E0FC90037012517674027808125D
:1051030009F1E5084CFCAD09EA241212517074064A
:1051130078081209F1E5084CFCE5094DFDEA241174
:10512300125170740978081209F1E5094DFDEA245A
:1051330016125170740B78081209F1E5094DFDEA56
:105143002417125170740C78081209F1E5094DFD0A
:105153008A828B83A3A3A3A3A3A3125176740A7891
:10516300081209F1ECFAE5094DFB025722F582EB2F
:10517300126743E0F5087509002274F212036E8A80
:10518300088B09ECFEEDFFE98E828F83F0125480C9
:10519300C0E0EE24111231BED0E012547BC0E0EE29
:1051A30024121231BED0E0125257A882A98312549E
:1051B3004D6010E5082408FAE5093400FBEE2413DA
:1051C3001252758E828F83A3A3A3A3A3A3A3A3E0E9
:1051D300601588828983E0FAE5082AFAE509340034
:1051E300FBEE2415125275EE2419126955EE241B99
:1051F30012695512695EF50AF50CE508250CF8E508
:10520300093400F9EE241DFAEF3400FBEAFCEBFD50
:105213008C828D831252622417FAEF3400FB8A08C2
:105223008B098E828F83E0C3950A8A828B83125205
:1052330069A3A3E0601B8A828B83E024F2F0E82455
:105243000EF8E9125457FA850882850983E0C39A58
:10525300F00232B012525B22F08E828F83A322E8D7
:10526300F0A3E9F0EE2212526D22F08E828F8302B8
:105273003C08126740EAF0A3EB1266E3E02408F06F
:105283002274F412036E8A088B09EA125304F0EABB
:105293001313543F1252FDA3A3A3F0EAC413131232
:1052A3005304A3A3F0E48C828D83A3A3A3A3A3F04D
:1052B3008A0A8B0B7409780A120AB1E50A1252F4AE
:1052C300F0EC2418F582ED1269588A0A8B0B740BE3
:1052D300780A120AB1E50A1252EFF0740C78081238
:1052E3000AB1E5081252EFA3F0024A611252F4A385
:1052F3002254018C828D83023C06540F8C828D8351
:105303002254038C828D83A3A322C082C08379009D
:1053130090036A12606CA3A3A3E0600FEC70268A6B
:10532300828B83A3A3E0701D09801AEC60178A8225
:105333008B83A3A3A3A3A3A3A3A3A312534B70037E
:10534300A3E06B70E30249F5124987900373E06AA7
:105353002274EE12036E8A088B09890CECFEEDFFB2
:10536300125480C0E0EE24111231BED0E012547BFF
:10537300C0E0EE24121231BED0E012525785820AE9
:1053830085830B12544D6010E5082408F8E50934B1
:1053930000F9EE241312546D8E828F83A3A3A3A36B
:1053A300A3A3A3A3E0600912542FEE241512546D96
:1053B300EEFAEFFB120EDEE9F50D706B850A8285BE
:1053C3000B83E0F50EF510E5082510FAE509340026
:1053D300FBEE2417F8EF3400F988088909EE241D41
:1053E300F8EF124AD2FCE9FD8E828F83A3A3A3A315
:1053F300A3A3E07012EAF8EBF98C828D8312544771
:10540300E50CC3950E8019EA240EF8EB125457FBF2
:10541300850A82850B83E0FAE50CC39A24F2C39BC9
:10542300850882850983F0A90D02443E850A828599
:105433000B83E0F8E50828F8E5093400F922E012C7
:105443003BACA3A3E8F0A3E9F022740812526DA3C6
:10545300A3A3E0223400F98C828D83E8F0A3E9F062
:1054630090036BE0F9121E14E922126740E8F0A3DF
:10547300E91232202408F022125BE780D28A828B61
:1054830083124987120ED8850882850983A3A31244
:1054930054BFE0F9EA8E828F83A3A3A3A3A3A3A39C
:1054A300A3A31254C41254BFA3A3E0F9EAF8EE2451
:1054B3000B126740E81254C4A3A3E022E0FA02509F
:1054C300E3F0A3E9125BEB22C082C0837AE87B039B
:1054D30079E2121D8A7AE87B030249F5C082C08310
:1054E3009003731254F50249F5121D8A85188285BB
:1054F300198312498722C082C08374FE120913855F
:105503001882851983AA82AB83794B1254EC024922
:10551300F0C082C083794A121D8A0249F574F612DB
:10552300036E9003F0E0FE04F0EEF9120E78EA70D9
:1055330001EB70EEEE60EBF902572274EC12036E8E
:10554300EAFEEBFF8C128D13890E7414120B0EE01E
:10555300F50A7415120B0EE0F50B750C00750D00B2
:10556300120FE68A088B09EA7001EB7017E50B60EE
:1055730003025639A90EAC12AD13EEFAEFFB120F6C
:10558300F20256F2EA2402F8EB3400F9E50E601653
:1055930088828983E0FAE50E2AFAE4340013EA13D9
:1055A300F070037401F0E50B60789003FBE0700288
:1055B300A3E060099003FB12570C121F5AE50A700F
:1055C30017850882850983E0700302565214F0643C
:1055D30002707C750D01807790036DE0A2E1507736
:1055E3009003FDE07002A3E0600FA90AAA08AB09CB
:1055F3009003FD12570C121F5A850882850983E018
:10560300C394045003E004F0E06403700A750C01D2
:10561300EEFAEFFB120DA6E4850882850983A3F059
:10562300802D901A60E0C0E088828983E0FAD0E0A0
:10563300C39A501B809D7401650B7013E50E600FB8
:1056430090036DE0A2E15015EEFAEFFB120DA69068
:10565300036DE0A2E140257401650B701FE50A604C
:10566300169003FFE004F0C0E0901A3CE0FAD0E0AB
:10567300C39A4008750C01E49003FFF0E50D700434
:10568300E50C606B90036DE0A2E15030EEFAEFFBA6
:10569300120B488A088B09A808A909E87001E96078
:1056A3001BE82405F582E91231C1E50D6004E0C26F
:1056B300E0F0E50C6039E0D2E0F08004E50C602F07
:1056C30090036DE0A2E15012EEFAEFFB120B42E9F8
:1056D3006008EEFAEFFB79008012900376E06E70BB
:1056E30003A3E06F7009EEFAEFFB7901120C740269
:1056F30062F67A207B009003CEE0F912155022A9BE
:1057030008801C85088285098312571022125714BA
:1057130022E0F8A3E0F58388822274091208B17F9E
:10572300020205C5A2F0E492E01257357952121D28
:105733009022851882851983F0024AE01257357941
:1057430042121D902274F412036E74EC1209137446
:1057530001120B0EAC82AD831258729003BFE0644A
:105763000270367A047900120B301266D7EA98EB8E
:10577300995017120B24E970117405120B0E740162
:10578300F07407120B0E740180527405120B0EE4B1
:10579300F07407120B0EE480439081A57808120A77
:1057A300CF75830375828B780812096960047A01C7
:1057B30080027A007405120B0EEAF09081A5780836
:1057C300120ACF75830375828F7808120969600402
:1057D3007A0180027A007407120B0EEA125835120E
:1057E3000B0E1258247407120B0EE0700B74051283
:1057F3000B0EE07003E4800274018518828519831F
:10580300F09019CFE09019CEFAE05AFA8518828504
:105813001983E05A12573B7941121D907414024ABE
:105823005EAA82AB83120E307AD17B037945121DB7
:10583300902212586774012274F712036E74ED12EA
:105843000913E9FE9003CD125E38125872741212D6
:105853000B0EEE125867851882851983125824742B
:105863001302493CF09019D3E0F97CD17D032290D7
:1058730019D3E0F97AD17B03120E362274F41203A2
:105883006EEAFEEBFF9019D5E064FE7004A3E064BA
:10589300FF705C7A16125A8D7001EB605274018AA4
:1058A300828B831266F6A3A3A3A3A3E0600474020E
:1058B3008002740188828983125DA18A828B83A30B
:1058C300A3A3A3A3A3A3A3A3125AB0FCA3E0FDEA3B
:1058D30024020A0AEB1262E4E5082413F582E509BF
:1058E3001269581258F51231BB125F7112544702F4
:1058F3004A61AA08AB099003CEE0F912152022747D
:10590300F212036E74FD1209138A088B09890A8C3B
:105913000B7401120B0E7404125C328A0C8B0DAEE5
:105923000CAF0DEE7001EF70030259BC124DBC7445
:105933000788828983F0A3A882A983E50824081233
:1059430044431259E08A828B83A31259E08508826B
:10595300850983A3A3A3A3A3A3A3A3A3A3124D0175
:10596300EE24161259D8EE24181231BE1259EDEE58
:105973002417F582EF126189EE241A125C2512595D
:10598300C71267387403650A60067401650A7008F4
:105993007440F0A3740480057440F0A3E4F09019FC
:1059A300D51254417401650B7006EE24111269552A
:1059B300EEFAEFFB120BFC800279109019D5125905
:1059C300FE0232ABEE2413F582EF1259D1223400DA
:1059D300F583740122F582EF1259D1F022E0888217
:1059E3008983F0A308A98322A3A3E508F0A3E5090B
:1059F300F022A3A3A3A3A3A3A3A3A374FEF0A3745E
:105A0300FFF02274F412036EEAFEEBFF7A007B04CC
:105A130012261D125A981254477409900382F012E9
:105A23000EEA8A088B09AC08AD09EE24131231BEC5
:105A33001254F51263896401704D7A0F125A8D70F6
:105A430001EB604374028A828B83F0EE241DF8EF2E
:105A5300126A76125AA2A3126071E0FBEC850882E7
:105A6300850983A3A3F0A3EB12695FF8A3E0F58391
:105A73008882A3A3A3125AAC125AB0FAA3E0FB790B
:105A83004A121D901258F5024A617B001215148ABE
:105A9300088B09EA22900344124DD7901A39221237
:105AA3004987024DE7EF124949E002444EA3F0EE65
:105AB3002415125AB922F582EF3400F583E02274DB
:105AC300F012036E74FD1209138A088B0974011214
:105AD3000B0E7402125C328A0A8B0BAE0AAF0BEE0A
:105AE3007001EF7003025BE0124DBC8882898374FE
:105AF30004F0A3AA82AB83E4125BE7E064017007BE
:105B030074208A828B83F0E5082405F8E509125B8B
