:020000040000FA
:060000000212B90207B86C
:03002B000228F1B7
:03003300020E7C3E
:030043000210FAAE
:03004B00020F722F
:0300530002070B96
:03005B00020F8110
:03006300020F8DFC
:03006B00020E6220
:100083000207540101FF01010503010F10FEFF03E5
:100093000003000300030003000300030003000345
:1000A3000005000A00140028004F009E000000789D
:1000B3001B781B781B781B2E1A281A781B0E2B0013
:1000C300000000AC2A000000000C0000000C00013E
:1000D3000000041D000000000000A01D000000003F
:1000E30000000000FD04FF010101004211000000B7
:1000F300B711E80364006400B80102020080000045
:100103000502071E02051E020A03B80B02803E0108
:100113000332000234120102020630313233343525
:100123003637383941424344454600286E756C6C76
:1001330020706F696E74657229003F3F3F000000B5
:10014300807F0000803FF9021550B743BA51000089
:10015300204100E7DB2E0000A04010000000080053
:1001630000000A0000001212E76046121305603D0A
:10017300E9687008F618F618F618F622748067F71F
:1001830012019D090909748067F722121305601D86
:100193001212E77005191919801A121152701F12E1
:1001A300117CC37003E6673319191940071818182F
:1001B3002208080874FFF618F618F618F62212112A
:1001C3007C6017121344702192F012134E70195071
:1001D3001720F014080808090909E7F61819E7F6C3
:1001E3001819E7F61819E7F62212134E60E6E869C4
:1001F300701F0808E62480F608E436F618547FB426
:100203007F0CE654806007F6E418F618F6221818F7
:1002130022E9C6CC08C6CD08C6CE08C6CFC0E0E8E2
:10022300C0E0EAC0E0EBC0E009E9F809E7FA09E752
:10023300FBE6F918E6F8C3EC98ED99EE9AEBC2E702
:10024300F5F0EFC2E795F0500E600CEBCFFBEACE72
:10025300FAE9CDF9E8CCF8EAA2E7D2E7FAEB33FB07
:1002630013F5F0EEA2E7D2E7FEEF33FFC5F013A2DA
:10027300E730E601B313C5F0C3C0E0C0F07F00C3AD
:100283009BFB605B9418600C401AD0E023F9D0E02C
:10029300F802036C8AF0E9486003D2F0E4AFF0FAA5
:1002A300F9F8803BEB30E40D89F0EA6003D2F0E427
:1002B300AFF0F9CAF8EB30E30D88F0EF6002D2F04B
:1002C300AFF0E4CAC9F8EB54076014FBC3EA13FAAE
:1002D300E913F9E813F8EF135002D2E0FFDBEDD096
:1002E300E0C0E030E739C3E49FFFF5F0EC98FC424F
:1002F300F0ED99FD42F0EE9AFE42F0D0E0F9D0E045
:10030300F8E5F0607AE923F9EE20E742D802806746
:10031300C3EF33FFEC33FCED33FDEE33FE80EAEC49
:1003230028FCED39FDEE3AFED0E023F9D0E0F840A9
:1003330002801BC3EE13FEED13FDEC13FCEF135011
:1003430002D2E0FF08B800067F7F74FF802EEF33F0
:1003530050178CF020F00260100CBC000C0DBD0097
:10036300080EBE000408E860DFE933E813FFEE235C
:1003730013FE4F4D4C8008E95480FFE4FEFDFCEE74
:1003830033EF33F47004FCFD7E80D0E0FBD0E0FA61
:10039300D0E0F8D0E0CFC618CEC618CDC618CCC66C
:1003A300F9221213057004181818221212E7700D9F
:1003B30074FFF61819F61819F61819F622E754807F
:1003C30066F612134E700F12134470F014F608F60B
:1003D30008F608F680D1121344700CF608F6087676
:1003E3008008E6447F80EC12117F700C1211556077
:1003F300BFE65480F6E480BB121155700519191934
:1004030080A5E869700C763F18768018F618F6E830
:10041300F922E6CDC0E018ECC0E0E633CD33CDD30E
:1004230013F6E719FCE7191933CC33C3947F400E55
:10043300CD9D502408E65480F6E418F6800FF404AA
:100443003D14501408E6447FF6187680E418F61835
:10045300F6D0E0FCD0E0FD22CCD313CCFD18E4C6EB
:10046300CBC0E018E4C6CAC0E00808ED08C633E60E
:1004730013F618E433C675F003C3CA97CA09CB97BA
:10048300CB199C40047D08802EBD000302054E1647
:10049300B6FF050606081618C3CA33CACB33CB33D7
:1004A300CA27CA09CB37CB193CC37D08803E187DC8
:1004B3000820E75CC633C6CA33CACB33CB33DDF17E
:1004C300D5F0EB30E77BCA97CA09CB974ACB199C87
:1004D300406F4B7025E620E0218066187D08C3CA73
:1004E30097CA09CB97CB199CD3C633C6CA33CACB99
:1004F30033CB3350C9DDE7D5F0E1D3E4C636C608C4
:10050300C636C608C636C608C636C6181818803199
:10051300C3CA97CA09CB97CB199CB34097C633C6B6
:10052300CA33CACB33CB33DD34D5F02EC6A2E0C6F3
:1005330040C8CA27CA09CB37194A70BECB3CB4801E
:10054300B90808E63308E633601F181818D0E0FA34
:10055300D0E0FBD0E0FCD0E0FD22187D08CA27CA1A
:1005630009CB37CB193CD3808013F618E4B67F113F
:10057300F618B6FF0EF618C60470D2080876808007
:10058300CAF618F618F680C500121305604F12124A
:10059300E76012E7548066F6121152701112134489
:1005A300703B090909F4F618F618F618F622121129
:1005B3007C701512134E08080860EAE6447FF618AB
:1005C300768018E4F618F62212134E6016121344BE
:1005D3007012E4F608F608F608E65480F6090909ED
:1005E30018181822EAC0E0EBC0E0ECC0E0EDC0E070
:1005F300E687F0A4FBACF008E687F0A42CFCE43516
:10060300F0FA1809E687F0A42C4B60027401CA358E
:10061300F0FCE433FB09E687F0D2F7A42CCB35F0EA
:10062300FC1908E687F0A42BCC35F0FBE433FD0876
:1006330019E687F0D2E7A42C4ACB35F0CD3400FC81
:1006430009E687F0D2E7A42DCC35F0FDE433FA09AF
:1006530018E687F0D2F7A42CCD35F0CA3400FC0895
:10066300E687F0D2E7D2F7A42ACC35F07A7E20E7EA
:100673000B0ACB33CBCD33CDCC33CC33CB3350146C
:100683007004ED30E00ED2F1E4CD3DCDCC3CCC3B5B
:100693005005DA05C2F1EB547FC63308E63392F016
:1006A300FBE73309E733C39A502D2B70190C0D4C1C
:1006B3004D70151806E608C333700D20F10AA2F039
:1006C30013F6E418800B4024E4F630F00276801829
:1006D300F618F618F68024D33B14501074FFA2F0DA
:1006E30013F6187680E418F618F6800FA2F013F6C6
:1006F30018E63303F618ECF618EDF6D0E0FDD0E07B
:10070300FCD0E0FBD0E0FA22C0E074F2120AD1E59B
:10071300A7F8E5A1F9585410600812246053A1EF1B
:10072300802AE8A2E0C0D0E9A2E092F012120715F5
:100733008182F05017906198E0F89014C2E0C3985A
:10074300A2D265D0335002E8F053A1FE7F01020B21
:1007530088C0E074F2120AD19061A4E0F8759B009E
:10076300E59158540860087591F71224A2802AE590
:100773009158541060087591EF1224A8801BE8A2C9
:10078300E0C0D0E591A2E092F0121207158182F049
:100793005007E0C2E0F01225C89061A3E0F8E5E954
:1007A300585404600E12259E75E9FB906193E0A2F4
:1007B300E640F28097C0E074F2120AD19061A5E09E
:1007C300F8E5BF585404600653BFFB1225E0020747
:1007D3004FC3E498F8E499F91208158026C3E49A04
:1007E300FAE49BFBE920E7E9120815E498F8E49999
:1007F300F922C3E498F8E499F9120815E498F8E4A7
:1008030099F9C3E49AFAE49BFB22EB20E7CFE920B2
:10081300E7E0B90010BB0008E88AF084F8AAF022E8
:10082300E4FBC8FA22EB70227B10C833C8C933C972
:10083300335007C39AC3DBF280069A50012ADBEADE
:10084300C833F4C8C933F4C9FA2275F008E4C833CD
:10085300C8C933C933C99AC99B5004C92AC93BD5EE
:10086300F0ECFBC833F4C8E4C9FA221208AE20F056
:100873001430E72B74FFFCFBFA747F8022E4FCFB4B
:10088300FA7480801AB48008BC00F2BB00EF800FBA
:1008930050EBF9E4C39AFAE49BFBE49CFCE499C6AD
:1008A300CC18C6CB18C6CA18C6F922E4C9C608CAEA
:1008B300C608CBC6D3330308CCC63392F0C3947FA8
:1008C300402E94184019C9B90704CACBCC2250252D
:1008D300C309CA33CACB33CBCC33CC33D9F422F4D8
:1008E300600DC9CCC313CB13CBCA13CAD9F6CC2220
:1008F300E4FCFBFA2214FCFBFA22080808EAC0E035
:10090300EBC0E086F0E7A4FA180986F0E7A42AFA18
:10091300180986F0E7A42AFA180986F0E7A42AFA48
:100923001986F0E7A4FBE5F02AFA190886F0E7A494
:100933002BFBE5F03AFA190886F0E7A42BFBE5F068
:100943003AFA18180986F0E7A4C5F02BFBE43AFA43
:100953001908E7C5F0C6A426F6E5F03BFBE43AFA2E
:100963001886F0E7A4F6E5F00826F6E43B08F6E47B
:100973003A08F6D0E0FBD0E0FA22080808E630E7B0
:10098300111211BA120995080808C64480C618182E
:100993001822181818E9799EC608CAC608CBC608D3
:1009A300CCC6C370207996CACBCC7019798ECBCCC8
:1009B30070137986CC700EF9802ACA33CACB33CB35
:1009C300CC33CC331930E7F2CCCBCA335014700498
:1009D300EA30E00DE4CA3ACACB3BCBCC3CCC500264
:1009E30009C3E913C6CC182313C6CB18C6CA18C645
:1009F300F922E4CFC0E0E4CEC0E0E4CDC0E0E4CC33
:100A0300C0E075F020C3E633F608E633F608E633B4
:100A1300F608E633F6181818EC33FCED33FDEE3325
:100A2300FEEF33FFC3EC9709ED9709EE9709EF97B4
:100A3300191919400FFFEC97FC09ED97FD09EE9783
:100A4300FE191906D5F0BEECF709EDF709EEF70923
:100A5300EFF7191919D0E0FCD0E0FDD0E0FED0E0AB
:100A6300FF222518C582C0E0E51934FFC583C0E025
:100A7300E518C3958224F810AF0885831985821879
:100A83008008858319858218D2AFCEF0A3E520F0C4
:100A9300A37808E608F0A3DEFAEFF0A3E58124FAD1
:100AA300F8E608F0A3E608F0A3E608F0A30808E6D2
:100AB30008F0A3E608F0A315811581D0E0FED0E08D
:100AC300F8158115811581E8C0E0EEC0E022C0D0A1
:100AD3002518C582C0E0E51934FFC583C0E0E518D9
:100AE300C3958224F310AF08858319858218800883
:100AF300858319858218D2AFC8F0A3E9F0A3EAF081
:100B0300A3EBF0A37908E709F0A3D8FAECF0A3ED7F
:100B1300F0A3EEF0A3EFF0A3D0E0F0A3D0E0F0A3B6
:100B2300D0E0F0A3E520F0A3E5F0F0A322121339FF
:100B3300B90003020B72E490030178437918800231
:100B4300F0A3D8FCD9FA901A43AA82AB839000860B
:100B530078E479018015E493A3AC82AD838A828B18
:100B630083F0A3AA82AB838C828D83D8E9D9E775FE
:100B730082897583EE7403120D177582EC758328D1
:100B83007400120D17851983851882E0C0E0A3E075
:100B9300F9A3E0FAA3E0FBA37808E0F608A3DFFAE1
:100BA300E0FCA3E0FDA3E0FEA3E0FFA3E0C0E0A31D
:100BB300E0C0E0A3E0F5D0A3E0F520A3E0A3F5F0C7
:100BC30010AF08858319858218800885831985826B
:100BD30018D2AFD082D083D0E0F8D0E032C0E07436
:100BE300F2120AD1E589A2E150117C647D007A08F2
:100BF3007B009004CBE0F9121F74E9758900C2C52C
:100C03007F01020B88C0E074F2120AD1E58BA2E0E7
:100C130050117C0A7D007A087B009004CBE0F91226
:100C23001F74E9758B00C2E87F01020B881213055C
:100C3300601C1212E7601712134E700712134470F0
:100C430001D322C0D01213447006D0D0B322C322E2
:100C530033D0D0501430E0F6C3E7960809E796087E
:100C630009E7960809E796B32220E0D5E697080935
:100C7300E6970809E6970809E697B322D083D0825E
:100C8300ECC0E0EDC0E0E493A3FCE493A3FDED4CE2
:100C9300600D120DEDEC24FFFCED34FFFD80EFE45D
:100CA30093A3FCE493A3FDED4C600D120F1DEC2404
:100CB300FFFCED34FFFD80EFD0E0FDD0E0FCE493DA
:100CC300A3C0E0E493C0E022121305601B1212E7F5
:100CD300601612134E7007121344600CB322C0D077
:100CE3001213447005D0D022C32233D0D050133016
:100CF300E0EBC3E7960809E7960809E7960809E7D2
:100D0300962220E0E4E6970809E6970809E69708A3
:100D130009E69722C0F0F5F0E59F5407C0E0E59F90
:100D230054F845F0D0F0F59FE473859FF053F0F845
:100D3300D0E045F0F59F22D083D082E59F5407C0D1
:100D4300E0E493C0E0740193C0E07402935407C0DD
:100D5300F0F5F0E59F54F845F0D0F0F59F22D083ED
:100D6300D082E9C0E0E493A3C386F0C5F095F0F91F
:100D730008E493A386F0C5F095F0700BE493A3C346
:100D8300994005E9048002A3E475F002A42582F5E5
:100D930082E5F03583F583D0E0F9E493A3C0E0E482
:100DA30093C0E022851983851882E0A3FEE0A3F5B2
:100DB300207808E0A3F608DFFAE0A3FFE0A3C0E091
:100DC300E0A3C0E0E0A3C0E0E0A3C0E0E0A3C0E094
:100DD30010AF08858218858319800885821885835A
:100DE30019D2AFD083D082020D2DC0E0C3E4939615
:100DF300087401939618400FE49366700808740111
:100E030093661870007019A3A3C3E4939608740142
:100E1300939618A3A3400DD0E0D0E0D0E0020CBB22
:100E2300A3A3A3A3A3A3D0E022D083D082C5F0E4DD
:100E330093A3C5F0C395F0F5F0E493A3C395F040F5
:100E430005E5F0048001E475F002A42582F582E54E
:100E5300F03583F583E493A3C0E0E493C0E022C0BC
:100E6300E074F2120AD1E589A2E15003122304755A
:100E73008900C2C57F01020B88C0E074F2120AD157
:100E8300E58BA2E05003122304758B00C2E880E4D3
:100E93007404800474028000CCC0E0EDC0E0E51867
:100EA300C39CCCAD1950011D10AF068C188D198051
:100EB300068C188D19D2AF120FE1D0E0FDD0E0FC03
:100EC3002274028000CCC0E0EDC0E0E518C39CCCE6
:100ED300AD1950011D10AF068C188D1980068C18A2
:100EE3008D19D2AF120FBFD0E0FDD0E0FC22121358
:100EF3000560251212E7602012134E70030213449B
:100F0300080808E76670101819E766700A1819E7E9
:100F13006670041819E76622F422C0E0C0F088F076
:100F2300E4936670080874019366187000A8F0A330
:100F3300A3700BD0F0D0E0D0E0D0E0020CBBA3A3B1
:100F4300D0F0D0E022D083D082CCC0E0E493A36081
:100F5300061210401470FAE493A3600612111114E0
:100F630070FAD0E0FCE493A3C0E0E493C0E022C0B5
:100F7300E074F2120AD112238E7F01020B88C0E0C3
:100F830074F2120AD112239480EFC0E074F2120AB1
:100F9300D112239A80E3C008C3E096F50808A3E0C2
:100FA30096420808A3E096420808A3E0964208A2E6
:100FB300D265D033E5087001D3D00822CAC0E0E47B
:100FC30093A3C582CCC582C583CDC583F0A3C58257
:100FD300CCC582C583CDC583DAE5D0E0CA22CAC0B9
:100FE300E0E0A3C582CCC582C583CDC583F0A3C58C
:100FF30082CCC582C583CDC583DAE6D0E0CA227030
:1010030009080808226016181818C6C333C608C68C
:1010130033C608C633C608C633C6D5E0EA22C008BD
:10102300C3E096F50808A3E096420808A3E09642B9
:101033000808A3E09645087001D3D00822C0E0E475
:1010430093A3D39C5010E493A3C39C400AD0E0D055
:10105300E0D0E0020F65A3A3A3D0E0222518F58218
:1010630010AF08F518400215198008F5184002154D
:1010730019D2AF851983227404800A74038006741D
:101083000280027401C0E0F40412105FD0E0121376
:101093001422C0D0251810AF08F518500205198086
:1010A30008F51850020519D2AFD0D022BB0102E7D0
:1010B30022C082C08389828A83BB0003E08002E46A
:1010C30093D083D082226016080808C6C313C618BB
:1010D300C613C618C613C618C613C6D5E0EA22C37C
:1010E300E0C696F608A3E0C696F608A3E0C696F611
:1010F30008A3E0C696F622C0E074F2120AD1C2C079
:10110300E5D1A2E450031223C47F01020B88C0E09F
:10111300E493A36C7009D0E0D0E0D0E0020F65A3A4
:10112300A3D0E022251810AF08F518400215198046
:1011330008F51840021519D2AF22C3E7960809E74C
:10114300960809E7960809E796A2D265D0332218D4
:101153001818E6084608700AE608C3337005E63334
:10116300F4220822E066701008A3E066700A08A360
:10117300E066700408A3E06622191919E709470914
:10118300700AE709C3337005E733F4220922C3E089
:101193009608A3E09608A3E09608A3E096A2D2657A
:1011A300D03322C3E096F008A3E096F008A3E096BC
:1011B300F008A3E096F022181818E4C396F608E4A2
:1011C30096F608E496F608E496F622E026F608A3D7
:1011D300E036F608A3E036F608A3E036F622E0266A
:1011E300F008A3E036F008A3E036F008A3E036F0F9
:1011F30022E627F60809E637F60809E637F608096E
:10120300E637F622C0E0E8C0E0E58124FCF8E6A278
:10121300E7D0E0F8D0E022E657F60809E657F608EB
:1012230009E657F60809E657F622E056F608A3E062
:1012330056F608A3E056F608A3E056F622E647F66C
:101243000809E647F60809E647F60809E647F622DD
:10125300700422600D18C6C333C608C633C6D5E072
:10126300F41822E056F008A3E056F008A3E056F085
:1012730008A3E056F022C3E09608A3E09608A3E093
:101283009608A3E09622C6F4C608C6F4C608C6F4B8
:10129300C608C6F4C622600D08C6A2E713C618C660
:1012A30013C6D5E0F322C3E7960809E7960809E7D2
:1012B300960809E7962275D0007581407518017567
:1012C300190300020B30600C08C6C313C618C613FB
:1012D300C6D5E0F422E6F008A3E6F008A3E6F0089A
:1012E300A3E6F022E7094709C3134709336002E77E
:1012F30033F422E0F608A3E0F608A3E0F608A3E03F
:10130300F622E6084608C3134608336002E633F4C0
:1013130022CAC0E0E6F0A308DAFAD0E0FA22E0FA43
:10132300A3E0FBA3E0FCA3E0FD22EAF0A3EBF0A320
:10133300ECF0A3EDF022E5C754F84401F5C77901B9
:1013430022E7C33319471947194722E6C33318461F
:1013530018461846222518F582E43519F58322121A
:101363000D3AFB3200120D3AEB3300120D3A2E34D4
:1013730000120D3A533400120D3AA93400120D3AFB
:10138300CE3400120D3AF33500120D3A67360012CF
:101393000D3A8A3600120D3AAD3600120D3AD536A3
:1013A30000120D3AE73600120D3AF13600120D3AEB
:1013B300753700120D3AE43700120D3A8D380012DA
:1013C3000D3A953800120D3A363900120D3A963916
:1013D30000120D3A623A00120D3AD93A00120D3A50
:1013E300163B00120D3A753B00120D3AC23C001237
:1013F3000D3ADE3C00120D3A403D00120D3ADD3D40
:1014030000120D3A243E00120D3ABF3E00120D3A6F
:101413006C3F00120D3AAA3F00120D3A1A40001217
:101423000D3A654000120D3A9E4000120D3ACC4130
:1014330000120D3A064300120D3A674300120D3AAB
:10144300B04300120D3AD84300120D3A5B44001228
:101453000D3ADB4400120D3A554500120D3A66452C
:1014630000120D3ADC4500120D3A804600120D3A87
:10147300C24600120D3A584700120D3A9447001223
:101483000D3AA74700120D3A004800120D3A4148A1
:1014930000120D3AB44900120D3A4A4B00120D3AAC
:1014A300704B00120D3A0D4C00120D3A574C0012BE
:1014B3000D3A9C4C00120D3A884D00120D3A8B4F99
:1014C30000120D3A954F00120D3A9F4F00120D3A3C
:1014D300A94F00120D3AC34F00120D3ACD4F00121F
:1014E3000D3AD74F00120D3AE14F00120D3A025058
:1014F30000120D3A505000120D3A745000120D3A7A
:10150300985000120D3AF55000120D3A4051001256
:101513000D3A5E5100120D3ACE5100120D3A0B52A4
:1015230000120D3A525200120D3ABA5200120D3AFD
:101533005E5300120D3A2B5500120D3A4E55001210
:101543000D3A205600120D3A465600120D3A265710
:1015530000120D3ABE5900120D3A205B00120D3AEB
:10156300E75C00120D3A395D00120D3A325E00124B
:101573000D3A7F5E00120D3AEA5E00120D3AF45EF8
:1015830000120D3AB06000120D3ADF6100120D3AFD
:101593003F6200120D3AF56200120D3ADD6300124C
:1015A3000D3A9A6500120D3AB96500120D3A1566A7
:1015B30000120D3AED6600120D3A126700120D3A51
:1015C300636700120D3A456800120D3A7D680012F8
:1015D3000D3ABD6800120D3A206900120D3A3C6ABB
:1015E30000120D3A9C6A00120D3A826B00120D3AFA
:1015F3008A6D00120D3AA66D00120D3A4B6F001260
:101603000D3A916F00120D3A6F7000120D3AC970C6
:1016130000120D3A117100120D3A817100120D3A48
:101623000F7200120D3A937200120D3AFF720012FC
:101633000D3A678201120D3AB98201120D3AF38411
:1016430001120D3A3F8501120D3A118601120D3A2E
:10165300888601120D3ACB8701120D3A188A0112BE
:101663000D3A3F8B01120D3AA69301120D3A2394C2
:1016730001120D3AA39601120D3A8F9701120D3AFA
:10168300349801120D3A519901120D3A689C0112D6
:101693000D3A6A9E01120D3ACA9E01120D3A809FBD
:1016A30001120D3A31A001120D3A5CA001120D3A5C
:1016B300FDA001120D3AE1A101120D3ABCA20112E3
:1016C3000D3A5AA301120D3A87A301120D3AA9A3A9
:1016D30001120D3A9CA501120D3A7CA601120D3A96
:1016E300C9A601120D3A2AA701120D3AECA701125D
:1016F3000D3A21A801120D3A6FA801120D3A9FA8C5
:1017030001120D3ADDA801120D3A35A901120D3A65
:101713003AA901120D3A95A901120D3ABDA9011278
:101723000D3ADCAA01120D3A48AB01120D3AB2ABE5
:1017330001120D3A3EAC01120D3A55AF01120D3AAA
:1017430021B001120D3A91B101120D3AE5B3011224
:101753000D3A8DB401120D3A42B501120D3AD0B6CD
:1017630001120D3A6DB701120D3AB5B701120D3AD8
:1017730051B901120D3A65B901120D3A72B901124C
:101783000D3A8DB901120D3A99B901120D3AB7B953
:1017930001120D3A6EBB01120D3AA7BB01120D3AAD
:1017A300B4BB01120D3AF6BB01120D3AE9BC0112AA
:1017B3000D3A2DBD01120D3AB0BD01120D3AB0BE66
:1017C30001120D3A6EBF01120D3A0DC101120D3A0D
:1017D300E2C101120D3A83C201120D3A13C3011281
:1017E3000D3A2AC301120D3A63C301120D3A6DC3B8
:1017F30001120D3A79C301120D3A97C301120D3A42
:10180300DBC301120D3A2CC401120D3A4DC401126F
:101813000D3A67C401120D3ADFC401120D3A20C616
:1018230001120D3A6AC601120D3A5DC701120D3A53
:1018330079C701120D3ADCC701120D3A31C8011202
:101843000D3AEFC801120D3AFEC901120D3AAACAA8
:1018530001120D3A81CB01120D3AEDCB01120D3A73
:1018630081CC01120D3A51CD01120D3A80CD0112F6
:101873000D3ADFCD01120D3A8DCE01120D3AB3CEE2
:1018830001120D3A2BCF01120D3A50CF01120D3A2E
:1018930073CF01120D3AAECF01120D3A8CD1011262
:1018A3000D3A6FD201120D3A27D301120D3ABCD46F
:1018B30001120D3A10D501120D3A53D501120D3A0A
:1018C300C2D501120D3A36D601120D3A8FD6011246
:1018D3000D3AB5D601120D3AF0D601120D3A1CD7C6
:1018E30001120D3A67D701120D3AC0D701120D3A12
:1018F3003CD801120D3A1AD901120D3AACDA011291
:101903000D3A19DB01120D3A42DB01120D3AA8DB45
:1019130001120D3AFFDB01120D3A38DC01120D3AC8
:101923008DDC01120D3AB2DC01120D3AF8DC011222
:101933000D3A15DD01120D3ABFDD01120D3AB890D3
:1019430004120D3A039104120D3A6C8002120D3AFF
:10195300A08002120D3A768102120D3A4A820212D7
:101963000D3A758302120D3AF98402120D3A778506
:1019730002120D3A3E8602120D3A5F8702120D3AA9
:10198300D18702120D3A338802120D3A818802126E
:101993000D3A8B8802120D3AC98802120D3A328928
:1019A30002120D3AD18902120D3A4F8A02120D3AF0
:1019B300048B02120D3A768B02120D3A9C8B0212A3
:1019C3000D3ACC8B02120D3AF98B02120D3A9F8C11
:1019D30002120D3AAF8C02120D3A028D02120D3A29
:1019E3000E8D02120D3A1A8D02120D3A238D021238
:1019F3000D3A848D02120D3AE48D02120D3A358EA2
:101A030002120D3A508E02120D3A808E02120D3AD6
:101A1300A18E02120D3AAD8E02120D3AEE8F021212
:101A23000D3A0C9002120D3A759002120D3A8890FD
:101A330002120D3A9F9002120D3A329102120D3AA0
:101A4300319202120D3A2D9302120D3AAF93021204
:101A53000D3AB99302120D3A1C9402120D3A2D94C9
:101A630002120D3A709402120D3AB79402120D3A13
:101A7300ED9402120D3A239502120D3A419502128A
:101A83000D3A659502120D3AA69502120D3A9996F2
:101A930002120D3ADF9602120D3A1A9702120D3A0C
:101AA300799702120D3AA19702120D3ADA970212B0
:101AB3000D3AE89702120D3A499802120D3A8698A8
:101AC30002120D3AC89802120D3AF99802120D3A11
:101AD3002D9902120D3A389902120D3A56990212B3
:101AE3000D3A1E9A02120D3A289A02120D3A679A7B
:101AF30002120D3A7D9A02120D3AE79A02120D3A3A
:101B0300FB9A02120D3AF39B02120D3A069C021243
:101B13000D3A1B9C02120D3ABB9C02120D3A1F9DFB
:101B230002120D3AE29D02120D3AED9D02120D3A98
:101B33000C9F02120D3A289F02120D3A809F021247
:101B43000D3AB79F02120D3AD19F02120D3A45A0EA
:101B530002120D3AD6A002120D3A1EA102120D3A3C
:101B630039A302120D3AA3A302120D3A0EA40212D4
:101B73000D3A67A602120D3A77A602120D3A7AA61B
:101B830002120D3A86A602120D3A9AA602120D3AD5
:101B9300A2A602120D3AD7A602120D3A85A7021287
:101BA3000D3AF5A702120D3A59A802120D3AF2A8FE
:101BB30002120D3A8CA902120D3ABAA902120D3A79
:101BC3004AAA02120D3A56AA02120D3A85AA021225
:101BD3000D3AA7AA02120D3ACEAA02120D3A34AB5D
:101BE30002120D3A9EAC02120D3AA1AC02120D3A4A
:101BF30018AD02120D3A04AE02120D3ADCAE021217
:101C03000D3A66AF02120D3A9BB002120D3A4DB176
:101C130002120D3A86B102120D3AB7B102120D3A11
:101C2300C0B102120D3AACB202120D3A28B302123D
:101C33000D3AB8B302120D3A82B402120D3A06B548
:101C430002120D3A3CB502120D3A85B502120D3A55
:101C53009A9003120D3AA89003120D3A11910312B0
:101C63000D3A499103120D3A9C9103120D3A3893A0
:101C730003120D3A189503120D3AF79703120D3A12
:101C8300239803120D3A439803120D3AA1980312B5
:101C93000D3ADF9803120D3A1D9903120D3A639919
:101CA30003120D3A519E03120D3A2DBF03120D3A42
:101CB300ADBF03120D3A1FC003120D3A96C00312B3
:101CC3000D3A62C303120D3A06C403120D3AE9C476
:101CD30003120D3A3DC503120D3A238804120D3A3F
:101CE300418804120D3A928804120D3AD7880412DF
:101CF3000D3A818904120D3A6B8304120D3AB084B4
:101D030004120D3AACC503120D3A2FC603120D3A55
:101D130039C603120D3A60C603120D3A74C6031294
:101D23000D3ADAC603120D3A0AC703120D3A0CC86C
:101D330003120D3ADCC803120D3A3CC903120D3AE3
:101D430085C903120D3AC2C903120D3A6B2D001255
:101D53000D3A51CA03120D3ADCCA03120D3A36CBBF
:101D630003120D3A008004120D3A198004120D3A41
:101D7300938004120D3A408104120D3A68810412D3
:101D83000D3A2D7D00120D3AA77D00120D3AB27D5A
:101D930000120D3AD37D00120D3A517300120D3A21
:101DA300547300120D3A157400120D3A4374001265
:101DB3000D3A9E7400120D3AC27400120D3AE27489
:101DC30000120D3A6B3200120D3A5A7500120D3A99
:101DD300897600120D3AB87600120D3AD9760012C0
:101DE3000D3A347700120D3AF77700120D3A17784F
:101DF30000120D3A8C7900120D3A247A00120D3A32
:101E03002D7B00120D3A967B00120D3AC47B001213
:101E13000D3A897C00120D3ABE7C00120D3AF17C1A
:101E230000120D3A47F502120D3A51F502120D3A1E
:101E330099F502120D3A07F602120D3A2AF602122A
:101E43000D3ACAF602120D3A79F902120D3A82F9E5
:101E530002120D3ACFF902120D3AF8F902120D3AB5
:101E630058FA02120D3AEEFA02120D3A22FB02124E
:101E73000D3A6FFB02120D3AC9FB02120D3AF7FB42
:101E830002120D3A7FFC02120D3AC4FC02120D3A03
:101E930003FD02120D3A38FD02120D3A4AFD0212F9
:101EA3000D3A5CFD02120D3A7BFD02120D3A32FE31
:101EB30002120D3A72FE02120D3AE78C04120D3A29
:101EC3000D9104120D3AD7FA03120D3A3BFB03129C
:101ED3000D3A5FFB03120D3A58FC03120D3A0080D2
:101EE30003120D3ADF8003120D3A1B8103120D3AE0
:101EF300B88203120D3AFA8203120D3AAE8403122A
:101F03000D3AF28403120D3AD38503120D3A60861B
:101F130003120D3AEB8603120D3A418703120D3A71
:101F2300818703120D3A238903120D3AAC8A0312F7
:101F33000D3AC38C03120D3AD18C03120D3A368D30
:101F430003120D3A808D03120D3A599003120D3A84
:101F5300919204120D3AA79204120D3A32EB031236
:101F63000D3A45EB03120D3AE3EB03120D3A1EEC67
:101F730003120D3A39EC03120D3A5EEC03120D3ADB
:101F8300A3EC03120D3AD4EC03120D3A05ED031240
:101F93000D3A7CEE03120D3A078504120D3A74854F
:101FA30004120D3A908504120D3AD28504120D3AAB
:101FB300E28504120D3A7A8604120D3A84860412DD
:101FC3000D3A9C8604120D3A7EF101120D3ACCF1C2
:101FD30001120D3ABCF201120D3A46F301120D3A09
:101FE30090F301120D3ADFF301120D3A3CF40112A2
:101FF3000D3A50F401120D3A3AF601120D3AB7F6C2
:1020030001120D3AE1F601120D3AD7F801120D3A19
:10201300F2F801120D3A33F901120D3A6FF9011278
:102023000D3AC8F901120D3AE6F901120D3A49FACF
:1020330001120D3AC8FB01120D3AFDFB01120D3AD4
:1020430025FC01120D3A32FC01120D3A37FC011244
:102053000D3A3AFC01120D3A86FC01120D3A2FFD9E
:1020630001120D3A54FD01120D3A5EFD01120D3AB3
:1020730061FD01120D3ACCFD01120D3AE7FD01128B
:102083000D3AFAFD01120D3A60FE01120D3A9BFE64
:1020930001120D3A9EFE01120D3A5D9104120D3AA2
:1020A300759104120D3A89B703120D3AD8B703128A
:1020B3000D3A7CB903120D3A32BB03120D3A7ABBC7
:1020C30003120D3AC0BC03120D3A0BBE03120D3AB4
:1020D3002DBE03120D3A77BE03120D3AF9BE031259
:1020E3000D3A11E202120D3A3CE202120D3A29E3D3
:1020F30002120D3AB2E302120D3A15E402120D3A3E
:1021030061E402120D3AD0E402120D3A5AE50212CA
:102113000D3AD1E502120D3A13E602120D3AD3E954
:1021230002120D3AB0EB02120D3AE9EB02120D3A2C
:10213300A1EC02120D3AA4EC02120D3A88ED021240
:102143000D3AD1EE02120D3AF4F002120D3A6FF18C
:1021530002120D3AAAF202120D3A32F302120D3AAA
:1021630024F402120D3AB1F402120D3AF9DD011210
:102173000D3AB8DE01120D3A2FDF01120D3A3EDFA0
:1021830001120D3AC3DF01120D3A2CE001120D3A90
:102193002CE101120D3A55E101120D3AEEE1011263
:1021A3000D3A31E201120D3A8EE201120D3A68E561
:1021B30001120D3A22E601120D3A87E601120D3A99
:1021C3002EE801120D3AE2E801120D3A7DE90112FF
:1021D3000D3AD6E901120D3A41EA01120D3A51EBDB
:1021E30001120D3A0EED01120D3A45EE01120D3AB0
:1021F300DEEE01120D3A48EF01120D3A3EF00112E4
:102203000D3A61D503120D3AD3D503120D3A3CD6DC
:1022130003120D3AAAD603120D3AE2D603120D3A6F
:102223006AD703120D3AB3D703120D3A10D803122B
:102233000D3A88D803120D3A8DD803120D3AFFD800
:1022430003120D3A25F403120D3A74F403120D3AF6
:102253002DF503120D3A93F503120D3A04F603120A
:102263000D3A0CEF03120D3A65EF03120D3AE4F049
:1022730003120D3AEDFE01120D3AFCFE01120D3A66
:1022830005FF01120D3A43FF01120D3A95FE0312A9
:102293000D3ACFFE03120D3A8AFF03120D3AB981AC
:1022A30004120D3AC78104120D3ACF9204120D3A6B
:1022B300258F04120D3A358F04120D3A538F0412F1
:1022C3000D3AB48F04120D3AC98A04120D3AF08AFA
:1022D30004120D3A758B04120D3ACE8B04120D3A8B
:1022E300DD9E03120D3A9F8604120D3AC186041235
:1022F3000D3A2B8704120D3A4B8704120D3A91873E
:1023030004120D3AEC8704120D3AB5D003120D3ABC
:10231300CAD003120D3ADFD103120D3A20D20312B1
:102323000D3A3AD203120D3AB6D203120D3AD1D373
:1023330003120D3A45D403120D3A5FD403120D3A3A
:1023430072D403120D3A80D403120D3A9AD40312B5
:102353000D3AB1D403120D3ADBD403120D3A2CD546
:1023630003120D3ACDE703120D3ADBE703120D3AE0
:1023730055E803120D3A21E903120D3ACDEA03128F
:102383000D3A9BFE02120D3AD4FE02120D3AF1FEF3
:1023930002120D3A4FFF02120D3AB4FF02120D3A28
:1023A30055CB03120D3AC2CB03120D3A79CC03126B
:1023B3000D3AE6CC03120D3A03CE03120D3A9FCF2A
:1023C30003120D3A03D003120D3A58D003120D3AFB
:1023D30061D003120D3A70D003120D3A83D0031269
:1023E3000D3A99D003120D3AA2D003120D3ABE8FC3
:1023F30004120D3ACB8F04120D3AF38F04120D3AE7
:10240300A19903120D3AF49903120D3AFC9B03129E
:102413000D3A2E9C03120D3A509C03120D3A699CFF
:1024230003120D3A829C03120D3A849D03120D3A56
:10243300129E03120D3AC6FC03120D3AF8FC031266
:102443000D3A04FD03120D3A37FD03120D3A68FDF0
:1024530003120D3A96FD03120D3A0BFE03120D3AC9
:102463003AFE03120D3A8FF103120D3AB5F103123E
:102473000D3AF2F103120D3A04F203120D3A20F26F
:1024830003120D3A8EF203120D3A97F203120D3A2C
:10249300F6F203120D3A1AF303120D3AD9F30312AB
:1024A3000D3AE6F303120D3AF7F303120D3A4C908B
:1024B30004120D3A999004120D3AA5E403120D3A51
:1024C300EDE503120D3AFAE503120D3A0DE6031298
:1024D3000D3A2CE603120D3A42E603120D3A56E684
:1024E30003120D3AD0E603120D3A66E703120D3AD2
:1024F300AEE703120D3ABEE703120D3AEC8D041258
:102503000D3A108E04120D3A388E04120D3A608E75
:1025130004120D3A87F603120D3AA0F603120D3A90
:10252300ACF603120D3AC0F603120D3ADEF60312AF
:102533000D3AE8F603120D3AF2F603120D3A05F7D7
:1025430003120D3A59F703120D3A92F703120D3A9B
:10255300C1F703120D3A0FF803120D3A5EF8031296
:102563000D3A79F803120D3A83F803120D3A94F8F1
:1025730003120D3ADAF803120D3AAB9104120D3A35
:102583004FAF03120D3A7BAF03120D3A97AF03120D
:102593000D3AAAAF03120D3AC0AF03120D3A2CB095
:1025A30003120D3A5FB003120D3ABCB303120D3A96
:1025B300E7B403120D3A1AB503120D3A7FB50312AD
:1025C3000D3A67B603120D3A8FB603120D3AA4B64D
:1025D30003120D3AB4B603120D3AF8B603120D3ACC
:1025E3004DB703120D3A5DB703120D3A96890412E3
:1025F3000D3AB18904120D3ADA8904120D3AF489BD
:1026030004120D3A198A04120D3A388A04120D3A4B
:10261300508A04120D3A7E8A04120D3A988A0412E3
:102623000D3AF39104120D3ADFE003120D3AE6E09E
:1026330003120D3AF2E103120D3A22E203120D3AAC
:1026430048E203120D3A7BE203120D3A8DE20312C4
:102653000D3AC7E203120D3A2DE303120D3A66E376
:1026630003120D3AB2E303120D3ADFE303120D3AFC
:10267300FFE303120D3AE5F803120D3AFDF80312D6
:102683000D3AEFF903120D3AE78B04120D3A468C1B
:1026930004120D3A848C04120D3AC58C04120D3ABF
:1026A3009DD903120D3ABCD903120D3A07DA03126E
:1026B3000D3A23DA03120D3A54DA03120D3A6BDAA8
:1026C30003120D3A78DA03120D3A95DA03120D3A32
:1026D30078DB03120D3AAFDB03120D3AB9DB0312B9
:1026E3000D3AC0DC03120D3ACBDC03120D3ADDDCEC
:1026F30003120D3AE6DC03120D3AF0DC03120D3A35
:1027030057DD03120D3AD1E003120D3ACFFF031246
:102713000D3A858E04120D3AAF8E04120D3A3392A0
:1027230004120D3A699204120D3AB19204120D3A51
:10273300009F03120D3A1EA403120D3A4C2D0012F2
:102743000D3A3A2D00120D3AE1E102120D3AC3E1BE
:1027530002120D3AF6E002120D3A5AE002120D3A55
:10276300EEDE02120D3A96DC02120D3A29DC021259
:102773000D3AD8DB02120D3ABA3100120D3AE030AD
:1027830000120D3A41DB02120D3A34DB02120D3A0C
:10279300933000120D3A723000120D3A07D802122C
:1027A3000D3AACD502120D3A50D402120D3AA4D30D
:1027B30002120D3AEBD102120D3AFBCF02120D3A7F
:1027C3008CCF02120D3A31CF02120D3ABECE021255
:1027D3000D3A94CE02120D3A82CC02120D3A5ACC23
:1027E30002120D3AFFCB02120D3ADCCB02120D3A64
:1027F3000BCB02120D3AB3CA02120D3A1DC90212D3
:102803000D3A1AC902120D3A1AC802120D3AFAC742
:1028130002120D3A4AC702120D3A323000120D3A33
:10282300F72F00120D3AD32F00120D3AB82F0012D2
:102833000D3A482F00120D3ACCC502120D3A93C53A
:1028430002120D3A64C502120D3A61C502120D3A25
:10285300762E00120D3A53C502120D3A3FC50212ED
:102863000D3A2CC502120D3A2EC402120D3A2C75E4
:1028730000120D3ADC2D00120D3ABEC302120D3ABE
:1028830084C302120D3A2CC302120D3AFBC2021288
:102893000D3A13C002120D3AD1BF02120D3AC5BF51
:1028A30002120D3A38BF02120D3A86BE02120D3AD9
:1028B30025BC02120D3A8FB902120D3A59B9021210
:1028C3000D3AEDB702120D3A9CB702120D3AE0B67B
:1028D30002120D3A32B602120D3ACBB502120D3A7C
:1028E30005B602120D3A25CA0300000080FBC2C7D9
:1028F30032E47300013636010100010201000103D5
:102903000100010401060605020000070100340866
:1029130001000F090401010D0100FF0E080000175B
:10292300020000190100FF1A0100011B0100FE1C37
:102933000100081D0200001F010001200100012108
:102943000200002301000F240200002601000127DA
:10295300010008280200FF2A0100072B0102402C76
:102963000100002D0100012E0100012F0100FF30A5
:10297300010B1C310800003A0100083B01000F2F36
:1029830001000003027102300160021102700201B2
:1029930002020202028002100261023A0041006355
:1029A3000273027202620243020002130238000041
:1029B30002000204021202000200020002000204EA
:1029C300020402370037003C0244020002390000CF
:1029D3000200026502000235028102000205028242
:1029E30002830200020101710101010101110101D0
:1029F300013101010101018001100161013B00145A
:102A030000630173017201620143010001130106B6
:102A1300013D013500040112010001000100010024
:102A23000104010401330133013C01440132013645
:102A3300000001000165010001350081010001056D
:102A43000182018301000103047104020460041183
:102A5300047004020402040104020410046104006B
:102A6300041404630473047204620443040004132F
:102A73000406040004000404041204000400040017
:102A8300040004510464000004000400044404002E
:102A93000400040004000465040004350481046494
:102AA300000504000483040004010371030103010E
:102AB30003010301030103220302030103100300C3
:102AC30003000300030003000300030003420300A9
:102AD3000324030603000300030403120325032353
:102AE3000325032303040304030003000300034437
:102AF300030003000323030003650321003503815F
:102B03000300030503000300030003030071003007
:102B13000160001100700031022003500480001096
:102B23000061000000140063007300720062004340
:102B33000000001300060000000000040012000063
:102B43000000000000000004000400370037003CD0
:102B53000244000000000000000000650000003592
:102B63000081000000050000008300000036000122
:102B730000060000000F000000000000000000003D
:102B830000000003FFFF00000403FFFF0000FFFF3E
:102B93000FF4010005C4040320000100000B000032
:102BA30000000000000003010F0000A821130042F1
:102BB300210100A8210200FA2003000021040006DD
:102BC3002105000C21060018211100362114003CB8
:102BD3002115002A21FFFF0000016E160698160832
:102BE30092160BAA1610F615027416058616077AA6
:102BF300160C56160D6216FF0000030003000400B6
:102C0300080010001F003E007B00F600EC01D70314
:102C1300AF075D0FB91E713D0000881AB81A8E1AEE
:102C2300941AB21AA61AA01ABE1AC41ACA1AD61A23
:102C33009A1A821A7C1A03EAF5E5D5D5C5B5A59586
:102C43009585857575656555554545353525251531
:102C530015059C36063A703DD9404344AD47174BA2
:102C6300814EEA5100160F00000B150B02000222E1
:102C73000F32000006000102030405060708090AD3
:102C83000B0C0D0E0F781B8A1B901B521A961B4CB4
:102C93001A581AF01B0E1C141CF61B021CFC1B8C6E
:102CA300198619C219C819BC1974193030171819A3
:102CB30021301B1D1F3000034948424D18172505BD
:102CC3000200383C3E363B3B352B432C3030161844
:102CD3001920231A1C1E300C0E020B040B0A0708C2
:102CE300000F0001191618161615230300AC1AD08D
:102CF3001A081CDC1AE21AE41B9C1BA21BAE1BA8BD
:102D03001B98199E199219CE190005150D09100863
:102D130004000000000000A419B61900BE040A0E46
:102D23000004001500010309280C05100C0A090012
:102D3300040008040F0C08C082C0838A828B83E0DE
:102D4300D2E7F012206A024C50C082C0837900128D
:102D530055F1900332125E22C3EA9CEB9D5006129A
:102D63003413600109024C5074F7120A65EA125CCD
:102D7300D8EB12607B122F94AEF075F00BEDA42EFE
:102D8300FD900334E02CFEA3E03DFFEA2403FCEBBB
:102D93003400FD740169600574026970278A828BAF
:102DA30083A31255FB8E828F83A312475274026949
:102DB300701DECFAEDFB122826E97013E48E828F66
:102DC30083F0800BEE2403FAEF3400FB12282CEE81
:102DD300FAEFFB122742023D3B74F2120A658A089E
:102DE3008B09EA240BF50CEB1262E079008A828BE3
:102DF30083E0606F890A890B805EE50A75F00BA496
:102E0300FAACF075F00BE50B1231A57048AE82AF4A
:102E130083850882850983126D5912325FA312607C
:102E230081124BE9E5082403FCE5093400FDEE2497
:102E3300030A0A0AEF3400FB12282C850C82850D45
:102E430083E50AF0A3E50B12513A12274279019068
:102E53000332126583122E6912319DE50A9AE50B3E
:102E63009B409702467BE50A2401F50AE50B3400F3
:102E7300F50B2274F1120A65EAFEEBFF740F1213CD
:102E8300581242C6750E01850882F583A385820C0C
:102E930085830DEE240BF8EF3400F9EC7001ED603F
:102EA30030EC125CD8ED1247487901EEFAEFFB12D1
:102EB3001D4CE5087002E5097003022F41850C8261
:102EC300850D831262E57902AA08AB09121D4C80B5
:102ED3006DEE2403F50AEF122E71E5087002E50981
:102EE3006033125CD6E509124748E5082403FAE586
:102EF300093400123195700CEEFAEFFB122874E9D5
:102F0300F50E80B9AA0AAB0B12319670317903EE34
:102F1300FAEFFB80B78E828F83A3E064FE7004A375
:102F2300E064FF700A0A0A0AAB0B123196700CEECA
:102F3300FAEFFB122874E9F50E8003750E00A90E53
:102F43007F07020DA774F7120A65900332124752E6
:102F5300EA7001EB6031EA75F00BA4FAACF075F09E
:102F63000BEBA42CFBEAFEEBFF121ED290033412F0
:102F73004752900334E07002A3E06012EEFCEFFDD1
:102F83007900121E368007900334E4F0A3F0023D6B
:102F93003B1260AAEC75F00BA4FC22E875F00BA4BD
:102FA300F8AAF075F00BE9A42AF9900334E028227B
:102FB300EE98EF9922C082C083EC7001ED60051298
:102FC300269A80097C087D007900121E36024C5037
:102FD30074F6120A657900EA7001EB60147C008CC8
:102FE30008126834600479017C080CECC39408402F
:102FF300EE024C0874F7120A6574F3121127ECFE03
:10300300EDFFE4851882851983F0740112135812B9
:1030130042FE12277E7403121358AC82AD83EEFA7C
:10302300EFFB12282CEEFAEFFB122826023D367432
:10303300F7120A6574F3121127ECFEEDFFE485180D
:1030430082851983F0EAFCEBFD74031213581243D3
:10305300337401121358126081124BEA74FE6870C4
:103063000374FF696004790180027900023D3674BC
:10307300F7120A65EAFEEBFF1230C070101230CB74
:1030830064FFFC8A828B83E05CF01227420245D7FF
:1030930074F7120A65EAFEEBFF7508008E828F83D0
:1030A300E060171230C070121230CBFC8A828B831F
:1030B300E05C7006E04CF01227420245D712273C31
:1030C300E9F5087401650822EE1249A6124F87122A
:1030D3002F9EFAA3E039FB8E828F83E02274F012D5
:1030E3000A658A088B09EA2403FEEB3400FF7C009F
:1030F3007D000A0A0AFB12282CE508240BF50CE5CF
:10310300091262E07900850882850983A385820A12
:1031130085830BE064FE7004A3E064FF60658908A7
:1031230089098054E50875F00BA4FAACF075F00B2F
:10313300E5091231A5603E850A82850B83126F383B
:10314300A3E06C7003A3E06D702BEA2403F50EEB90
:103153003400F50F123192700BAC0EAD0FEEFAEF97
:10316300FB12282C850C82850D831261B5790190A1
:1031730003321242C6124BF012319DE5089AE5095B
:103183009B40A18005740D1210957F08020DA70ABC
:103193000A0AFB122826E96401229003321256051B
:1031A300C322A42CFB900334E02AFAA3E03BFB8A5E
:1031B300828B83E0540F2274EF120A658A828B8319
:1031C300A385820E85830F1262E5EA240BF508EBD3
:1031D300124BF88508821262E3751000EA2403F5A6
:1031E3000CEB3400F50D1231927065750A00750B06
:1031F300008055E50A75F00BA4F8AAF075F00BE50D
:103203000B12325A540F603DAE82AF83EE2403FC9F
:10321300EF3400FDAA0CAB0D122694E9640170256E
:103223008E828F83A31249B0850E82850F83E8F0C7
:10323300A3E912325FE50AF0A3E50BF075100190E4
:103243000332126583122E699003321241B940A3EF
:10325300A9107F09020DA71232E9E022123263227C
:10326300F08508828509832274F3120A65EAFEEB6E
:10327300FF8E828F83A385820A85830B1262E5EE1C
:103283002403F508EF124BF87C007D000A0A0AFBC1
:1032930012282CEEFAEFFB12273CE9F50C740165BA
:1032A3000C703EEE125CD8EF1232F375F00BA4F8FB
:1032B300AAF075F00BE91232E9A31255FB850A82D5
:1032C300850B83124752E82403FEE93400FFEEFA2C
:1032D300EF123195700BEEFCEFFDAA08AB09122833
:1032E3002CA90C023DD8122FAAF8A3E03902550CE1
:1032F3001249AB124F87E82274EE120A6574E61284
:103303001127EAFEEBFFEE240BF50AEF122E71856F
:103313000A821262E3750E017508007509007510C3
:1033230000751100E4851882851983F0EE2403FCEF
:10333300EF3400FD7403121358AA82AB8312282CB6
:103343008E828F83A385820C85830D8518828519D0
:1033530083AA82AB83122778E964017034740B1259
:1033630013581249B0850A82850B83124BEA740104
:103373001213581249B0850C82850D83E0687003DF
:10338300A3E0696055851882851983858208858342
:1033930009740D121358E41261A6F8A3E0F9740E30
:1033A300121358124BEA740D121358AA82AB8312EC
:1033B300277EE96401700B740D1213588582108502
:1033C30083117810121082AC08AD09EEFAEFFB12EC
:1033D30028507402121095E9F50EEEFAEFFB12274E
:1033E30090A90E741A025E77C082C08378007900B8
:1033F3008003123B6C12319DE89AE99B500DE8FA69
:10340300E9FB12341370EB790080027901024C500E
:10341300EA75F00BA4FAACF075F00BEBA42CFB905F
:1034230003341270C0F583E0540F22C082C083902E
:103433002D26123CD6EC75F012A4FCAAF075F012FE
:10344300EDA42AFD79FF7AEC7B14121E36024C5050
:1034530074F6120A657E007F007C007D0080348C48
:10346300088D09E50875F012A4F508ABF075F012A4
:10347300E509A42BF509E50824F0F582E5093414E0
:10348300F583E0FBC3994008EAC39B4003123F4125
:103493001239671238FFC3EC9508ED950940C0EE69
:1034A300FAEFFB024C08C082C083780079008003E6
:1034B300123B6C902D26123EB6500912387164FFF0
:1034C30070EE80047A007B00024C5074F0120A659F
:1034D30074F31211278A0A8B0BECFEEDFF890CEEB5
:1034E3007001EF6011EEFAEFFB1213A48A088B0947
:1034F300EA7001EB705012137A8A088B09EA7001A3
:10350300EB60437401851882851983F0121358E523
:103513000AF0A3E50BF0EEFCEFFD7403121358124F
:103523003660740B1213581249B0124BE2E485084B
:1035330082850983A3A3A3A3A3A31260A2AA0AABB0
:103543000B1218CC800BE5087002E50970030235F5
:10355300D87A00E50C6007C3940550027A04850805
:10356300828509831261D4A3A3A3E50CF0EA85083D
:1035730082850983A3A3A3A3A3F07402850882858C
:103583000983A3A3A3A3A3A3A3A3F0740185088220
:10359300850983A3A3A3A3A3A3A3A31235ECA3A386
:1035A300A3F0E5082410F582E50912607BE4F0122C
:1035B30035ECF0125CD6E50912607BE4F09082539F
:1035C300780C1212F6E508240CF582E50912607BEB
:1035D300780C1212D81237D24005E4901A47F01231
:1035E30017A6AA08AB09023188A3124B2B026094D9
:1035F30074F2120A6574F31211278A088B09ECFE20
:10360300EDFF750A00EEFAEFFB1213A48A0C8B0D83
:10361300A80CA90DE87001E9603E88828983E06502
:10362300087004A3E06509602F88828983A3A3A39C
:10363300A3E0C3940550211261B1740185188285FA
:103643001983F01213581261B5EEFCEFFD740312E7
:103653001358123660750A01A90A02467612433AD4
:103663001213622274F6120A651236CB7002E583D6
:103673006010A3A3A3A3E06009C3940550047901D8
:1036830080027900024C0874F6120A651236CB7078
:1036930002E5836010A3A3A3A3E06009C3940350CE
:1036A30004790180027900024C0874F6120A65124B
:1036B30036CB7002E583600BA3A3A3A3E070047968
:1036C3000180027900024C0812139E8A828B83E5E3
:1036D3008222C082C083EAFCEBFD7A007B001213D6
:1036E300AA024C50C082C0837C007D0080F074F23B
:1036F300120A6574F31211278A0C8B0D8C0A8D0B39
:103703007E007F008021123A5112135812376960EC
:10371300137403121358AC82AD83AA0CAB0D12269B
:1037230094E97035123F41902D26123F51503012CB
:10373300391B60F0E50C7002E50D70CA74FF650A71
:10374300700474FF650B60DC850882850983E0657E
:103753000A7004A3E0650B70CBAA08AB0980047A56
:10376300007B00024676E8F0A3E912435E121DC413
:10377300E92274F4120A6574F31211277508001212
:1037830013A48A0A8B0BAE0AAF0BEE7001EF602A0B
:103793007401851882851983124B64F8A3E0F974C8
:1037A3000B1213581243561227967C127D0079FF91
:1037B300EEFAEFFB121E367508011237D250097468
:1037C30001901A47F01217A6A908740D024C947AB7
:1037D300047900121374902D26123F57EA98EB993F
:1037E3002274F7120A65E9FE74FE6A700374FF6BB4
:1037F300780079007005804D123B6C902D26123BAA
:103803005F5042E8FCE9FDEC75F012A4FCAFF075E3
:10381300F012EDA42FFDEC24ECFCED3414FD8C82AE
:103823008D83A3A3A3A3E064FF60CD8C828D83E08B
:103833006A7003A3E06B70C08008EC6005C3940555
:10384300401C123B6C902D26123EB6501A12387152
:10385300FCEE70E674016C600574036C70E48A829C
:103863008B831255FB80047AFE7BFF023D3BE8FA13
:10387300E9FBEA75F012A4FAACF075F012EBA42C94
:10388300123986221213B6024C50C082C0837901CA
:1038930080F274F0120A658A0A8B0B7A047901129A
:1038A30013748A0CEA7001EB6040EAC333FAEB331A
:1038B300FB121ED28A088B09AE08AF09EE7001EF26
:1038C30060237AFE7BFF1213BC74FE6A700374FFDD
:1038D3006B601B850882850983124752E508240221
:1038E300124BF480E1750C0080047E007F00850A92
:1038F30082850B83E50C12513A02318D902D2612ED
:10390300390622E493F508740193F50922902D26D4
:10391300E493FA740193FB22EEF8EFF9E875F012E1
:10392300A4F8AAF075F012E9123A36A3A3A3A3E010
:1039330064FF2274F7120A657C007D00800419126B
:10394300396712395E500D123970C3940550F0E98E
:1039530070EC80047A007B00023D3B123910C3EC0B
:103963009AED9B22EC24010CED3400FD22ECFAEDE0
:10397300FBEA75F012A4FAAEF075F012EBA42E1266
:10398300398622FBEA24ECFAEB3414FB8A828B831C
:10399300026A3174F3120A6574F3121127750A006F
:1039A300750B008052E50C1260688E828F83126261
:1039B3002DE0687003A3E06960257401121358E0D9
:1039C300687003A3E0696017EE2402FCEF3400FD86
:1039D3007403121358AA82AB83122694E96007EE8C
:1039E300FAEFFB1218D8050C902D2EE493FAE50C90
:1039F300C39A40B1122E69123A49E50A98E50B9928
:103A0300502CE50A75F012A4F8AAF075F012E50B34
:103A1300123A36E064FF7004A3E064FF60D6123A02
:103A23005112135812376960CB750C0080BA740DAC
:103A3300023DD5A42AF9E824ECF508E93414F50984
:103A4300850882F58322902D26E4123F58227401C3
:103A5300851882851983124B2B124F87740B22749E
:103A6300F6120A6512405B123CD6EC8508F0A4CC32
:103A7300AAF08509F0A42AFA8508F0EDA42AFD79B5
:103A8300FF7A037B1A121E3690033774E6F0A37491
:103A930013F090033974E0F0A37413F090033B74B4
:103AA3000AF0A37414F090033D741CF0A37414F093
:103AB30090033F7422F0A37414F09003417428F030
:103AC300A37414F0900343742EF0A37414F0E490E1
:103AD3000336F0024C08C082C0837800790080036B
:103AE300123B6C123EB35024E8FAE9FBEA75F00E80
:103AF300A4FAACF075F00EEBA42CFBEA2403F582D8
:103B0300EB12454D70DAAA82AB8380047A007B0006
:103B1300024C5074F7120A657A007B007800790032
:103B2300802FE8FCE9FDEC75F00EA4FCAEF075F017
:103B33000EEDA42EFDEC2403F582ED12454D600E2F
:103B4300A3A3A3A3A3E0FCEA2CFAEB3400FB123BF0
:103B53006C902D24123B5F40C9023D3BE493FC74FF
:103B63000193FDC3E89CE99D22E8240108E93400A0
:103B7300F92274EC120A6589108A088B098C0D8D61
:103B83000C74141213581265837E007F00121446BE
:103B9300AA08AB0912144C8A0E8B0F85088285097B
:103BA30083A3A3A3A3A3A3A3A3E06401700775083E
:103BB300018E0980058E08850D0974FE650E70045B
:103BC30074FF650F7003023CB98E0D8002050D85ED
:103BD3000D12902D24126D7A5071E50D75F00EA41F
:103BE3002403FEE5F0124014651070E1A3E06508BC
:103BF30070DB8E828F83A3A3E0650E7004A3E06560
:103C03000F70CA8E828F83A3A3A3A3E0650970BD3F
:103C1300750D00E50DC3950C4003023CB9E50DC3DA
:103C230033F8E433F9E50A28F508E50B39F5098596
:103C33000882126B7A1213F2E9700C8508828509E7
:103C430083126B7C1213FE050D80C81213DA8A12DD
:103C53008B13AE12AF13EE7001EF605A8E828F8317
:103C6300E510F0A3E508124BCEA3E50EF0A3E50F94
:103C7300124BCEA3A3A3E509F0902D36E493C3958D
:103C83000C5004E493F50C8E828F83A3A3A3A3A308
:103C9300E50CF0850A08850B09750A0078081210EF
:103CA3007EE50CC333FCE433FDEE2406FAEF340067
:103CB3001261CD121095EEFAEFFB7F0C020DA7C037
:103CC30082C083123CD379FF121E367901024C5015
:103CD300902D22E493FC740193FD2274F7120A657C
:103CE300EA7001EB60498A828B83A3A3A3A3A3A3F6
:103CF300E5827002E58360377E0080010E8A828B45
:103D030083A3A3A3A3A3E0FFEEC39F5022EEC33379
:103D1300F8E433F9EA28F582EB39F583A3A3A3A3E7
:103D2300A3A3E06C7003A3E06D70D17901800279E5
:103D3300008005740D1210957F01020DA774F31214
:103D43000A65EA2405F8EB3400F9E8FEE9FFEA70B6
:103D530001EB606F8E828F83E06073EA240608EBC9
:103D63003400F9E0F50B750A00800B8E828F83E037
:103D730014F0605A050AE50AC3950B5046E50AC3D9
:103D830033F508E433F509EA2508F508EB3509F5B9
:103D93000974062508F508E43509F509850882F54F
:103DA30083E06C7003A3E06D60C18508828509839D
:103DB300E0F508A3E01261AFE824020808E9340043
:103DC300F980B18E828F83E06004790180027900EB
:103DD30080031210957F05020DA774F7120A65EA96
:103DE3007001EB6037126F26C0E0902D36E493FE2E
:103DF300D0E0C39E502688828983E0C333FEE43338
:103E0300FFEA2EF582EB3FF583A3A3A3A3A3A3ECC1
:103E1300F0A3ED126A3704F0790180027900023DC4
:103E23003B74F2120A6589088C09123F607005120F
:103E3300657F8003123F3974FE650A700474FF6561
:103E43000B70067A007B0080647800790080187418
:103E530001650C700F8C828D83E0650A7004A3E00A
:103E6300650B6049123B6C123EB350D71242E28A93
:103E7300828B83E0650870ECA3E0F50CEA2402FC76
:103E8300EB3400FD8E828F83E0640160C2E50C7029
:103E9300D38C828D83E0650A7004A3E0650B70C444
:103EA3008A828B83A3A3A3A3E0650970B702467B31
:103EB300902D24123913C3E89AE99B2274F2120A53
:103EC30065EA2408F8EB124B5B6401700512657F09
:103ED3008003123F3974FE650A700474FF650B603A
:103EE300527E007F008047EEF8EFF9E875F00EA4EC
:103EF300F8AAF075F00EE9A42AF9E82403FAE934E4
:103F03001AFB850882850983E06401701B8A828B12
:103F130083A3E0640170148A828B83A3A3E0650A00
:103F23007004A3E0650B70031213EC123F41123FC0
:103F33004E40B402467B1214348A0A8B0B22123F82
:103F430046FF22EE24010EEF340022902D24123F6F
:103F530057022FB3E493F8740193F9C322EA2408B8
:103F6300F8EB1262CCE064012274F3120A65890C47
:103F73008A0A8B0B7508007509007E007F00801B81
:103F8300124293650C7011AC0AAD0BAA82AB83127B
:103F930013F2E96003124BF0123F41123F4E40E02F
:103FA300AA08AB09023DD874F1120A65890D8A0A81
:103FB3008B0B8C0E750C00750800750900800505C8
:103FC3000C124BF0902D24123A4CE50898E5099910
:103FD3005038E50875F00EA4F8AAF075F00EE5095F
:103FE300A42AF9E82403FEE9124014650D70D2AC4B
:103FF3000AAD0BEEFAEFFB1213F2E960C4E50CC352
:10400300950E40BBEEFAEFFB80047A007B00022F93
:1040130043341AFF0230DA74F6120A657508007524
:104023000900780812108212405B124270E9A42A38
:10403300F975832D758222E49328FCA3E49339FD5B
:104043007A417B00121F387402121095E9FE600357
:10405300121422EEF9024C08902D22123906902DEB
:10406300242274F6120A6574FE1211271240891273
:10407300108275080275090078081210827C007D91
:10408300007A41024BFD851882851983E4F0A3125F
:1040930042D685820885830978082274F4120A655A
:1040A30074E71211277E007F0085188285198385A6
:1040B300820885830978081210827508028E0978B0
:1040C300081210827C007D007A411241C4121095BF
:1040D300E960030241A88E0A8E0B80587402121302
:1040E30058AC82AD83740D1213581255FB12143A57
:1040F300740A121358E06039741112135885820838
:1041030085830978081210827412121358E0FD7423
:1041130011121358E0FC7404121358AA82AB83746F
:104123000D121358E0F91213E67402121095123FA0
:1041330041122E698518828519831241B95066741C
:104143000B12135885820885830978081210829010
:104153002D22120EC4902D221241B1E8850AF0A43B
:10416300C8AAF0850BF0A42AFA850AF01242851238
:1041730041C4121095E970B9740A121358E4F0742B
:104183000C121358E070030240DF740A12135874C0
:1041930001F0740D1213581249B07402121358121D
:1041A3004BEA0240FBEEFAEFFB7419024C94E493E2
:1041B300F8740193F922124F87C3E50A98E50B9926
:1041C300227B00121F4A74042274F5120A6574F0EC
:1041D300121127851882851983E4F0A3F0FE805A13
:1041E30012429364FF6050858208858309750A0033
:1041F300780812107E123CD37405121358AA82ABAE
:10420300831261CE121095740212135885820885A9
:1042130083097808121082902D22120EC47404129E
:1042230013581242C6902D22124270124285124236
:10423300CE1210951242B6123F46FF123F4E40A0D7
:104243008518828519838582088583097808121069
:104253008275080275090078081210827C007D00BF
:104263007A411242CE12109574100245291241B1BF
:10427300E88508F0A4C8AAF08509F0A42AFA8508FD
:10428300F022E9A42AF9740228FCE439FD7A4122D8
:10429300124298E022EEF8EFF9E875F00EA4F8AABE
:1042A300F075F00EE9A42AF9E82403F582E9341A3B
:1042B300F58322851882851983E02401F0A3E03475
:1042C30000F022E0F508A3E0F509227B00121F4469
:1042D3007404221242DA22F085188285198322E8B7
:1042E300FAE9FBEA75F00EA4FAACF075F00EEBA454
:1042F3002CFBEA2403FAEB341AFB22EAF0A3EB12B9
:10430300435E22C082C08374F31211271244C76430
:1043130002700E12434C12135812435612277E801A
:104323000CEAFCEBFD7403121358124333024C45A1
:1043330012433A12277822AA82AB8312282C8518BB
:1043430082851983AA82AB83228A828B83124F8749
:10435300740122E8F0A3E912435E2212436222129F
:1043630042DA80E074F7120A6574F3121127ECFE47
:10437300EDFF7404851882851983F0740B121358AA
:10438300EAF0A3EB12376DF508601D74038E828F7C
:1043930083A3A3A3A3A3A3A3A3F0121358AC82AD37
:1043A30083EEFAEFFB12269AA908023D36C082C0BB
:1043B3008374F31211277404851882851983F074AA
:1043C3000B1213581242FE121DC47401024C471201
:1043D3005605740D2274F6120A6574F312112790B0
:1043E3000336E0706E7404851882851983F0900398
:1043F30075124350121358124BEA121770EAFCEB72
:10440300FD740312135812366012177C8A088B0945
:10441300A808A9097401121358E0687003A3E0699E
:10442300602B74FE68700374FF69602174011213BA
:1044330058124BEA7403121358AA82AB83121782E1
:10444300851882851983AA82AB8312136274019043
:104453000336F0740D024C05C082C08374F312114D
:10446300271244C7FC74026C701E12434C1213587B
:10447300E8F0A3E9125EE27048851882851983AAE1
:1044830082AB83121362803974036C7011EAFCEB04
:10449300FD7403121358124333E9702580DB740152
:1044A3006C70128A828B831249B0740B121358E812
:1044B300F0A3E9800B740B12135874FEF0A374FF7E
:1044C300F0024C457404851882851983F08A828B27
:1044D30083A3A3A3A3026A3174F5120A6578007952
:1044E30000880888097C007D008003123967902DBD
:1044F30024E493FE740193FFC3EC9EED9F5021ECE3
:10450300FEED12453160E4AE08AF0974012EF508E3
:10451300E43FF509EA6E7002EB6F70CFA882A983BE
:10452300E8FAE9FB80031210957F03020DA7FFEE63
:1045330075F00EA4FE85F00A75F00EEFA4250AFFB0
:10454300EE2403F582EF12454D22341AF583E0641D
:10455300FF22C082C08390034E7480F0A37416F0D0
:10456300024C5074F7120A65EAFEEBFF900384E0F5
:10457300FA74086A601974046A60148E828F83E087
:10458300640170461249A1125719E06406703B8E0C
:10459300828F83A3A31249B074FE68700374FF690A
:1045A3006028900375E0687003A3E069700BEE2444
:1045B30015F582EF12683A600AEEFA121734E9F53C
:1045C30008800AEEFA12173A80F47508C2EEFAEF81
:1045D300FB121ED8A908023D3B74F2120A658A0831
:1045E3008B098A828B83A385820A85830B8A828BBC
:1045F30083E0F8850A82850B83E028FAE43400FB24
:10460300121ED28A0C8B0DAE0CAF0DEE7001EF6053
:104613005C850882850983E0FC7D007900121E36E3
:104623008E828F83A3A31262E51217768E828F8305
:10463300A3A3A3A3124752850882850983E0F8EE5A
:1046430028F8EF3400F91249A1124F6AC0E0126052
:1046530075D0E0F0121788EE240E126078E9124B41
:1046630027E0C0E0EE2411126078D0E0F0EEFAEF1C
:10467300FB8005740D1210957F06020DA774F412CA
:104683000A6574EB1211278A088B098C0A8D0B902B
:10469300038578081212D8E990038B124835121259
:1046A300D87405121358E9F074041213587401F006
:1046B3007407121358E4F07402900384024C91744B
:1046C300F4120A6574EB121127EAFEEBFF9003461E
:1046D300E07002A3E070677A077B00121ED290039A
:1046E30046124752900346E07002A3E0604C9003E9
:1046F30046125E228F838E827407120FE18E828FA1
:104703008378081212F685188285198378081212A5
:10471300D88E828F83A3A3A3A3E0C0E074051213F2
:1047230058D0E0126A2EC0E07404121358D0E0F09F
:10473300740712135812477F80067910800279019B
:104743007415024C941249AB12560588828983EA88
:10475300F0A3EBF022C082C083900346E07002A373
:10476300E060109003461255FB121ED8900346E4F6
:10477300F0A3F01216A4121878024C50E4124784E6
:10478300221243621226CA229003D0E0F9121F803C
:1047930022C082C083900345E070031221301214BB
:1047A30082024C50C082C083900345E07007E490BE
:1047B3001A46F080317401901A46F0900345E06484
:1047C300FF60237C41E0C394415002E0FCECFAE03B
:1047D300C39AF0EC75F0E8A4CCAAF075F003A42A10
:1047E300FD7A801247F57A467B1A79411226B20286
:1047F3004C507B009003D0E0F9121F742274F41222
:104803000A6574EB1211278A088B098C0A8D0B74C5
:10481300019003841248351212D87405121358E913
:10482300F074041213587403F07407121358E4025B
:104833004C911242D678082212478474152274F4DC
:10484300120A6574FC121127E9851882851983F011
:10485300EAFEEBFF900382125E2212169E8A0A8BF7
:104863000BEA7001EB700579CA024993EA2409F552
:1048730008EB124BF8850882F583E064FE7004A30D
:10488300E064FF700579C30249939003821255FBDC
:104893001218DEE50A240CF582E50B124B18124BB5
:1048A3003D74021213587402F07401121358AA8251
:1048B300AB831217E28A0A8B0BAE0AAF0BEE7001C1
:1048C300EF700302498A1249A11249B07406888223
:1048D3008983F0A3A882A98390036FE088828983E8
:1048E300F0125512241312499812609A7440F0A3DF
:1048F300E4124F808E828F83A3A3E8F0A3E91265AD
:104903008BE9FE600302498C7409900384F0AA08C2
:10491300AB09794B124B121249B0900378124BEA50
:10492300900377E0FA851882851983E06A600CE0CA
:10493300900377124F7C79E11226B2901AB612498E
:10494300B0901AB8E0687003A3E069601A90034856
:10495300124BEA901AB81255FB1217A0901AB8120C
:104963005E227A011247F57A007B0412478B901A74
:10497300B81242C674027808121253AC08AD09FA91
:104983007B041247F780027E10E4901137F0EEF9B2
:104993007404024C94F582EF1249AB740122EE12B7
:1049A30049A622240BF582EF3400F58322124F87A8
:1049B3002274F1120A6574E212112785188285198F
:1049C30083ECF0A3EDF0EAFEEBFF742D121358E035
:1049D300F50E900384E0FA74046A600574086A7043
:1049E3000579C2024B0A851882851983E0FCEEFA29
:1049F30012169E8A088B09EA7001EB700579CA02C8
:104A03004B0AEA2409F50AEB126565E064FE7004BB
:104A1300A3E064FF700579C3024B0A740390038417
:104A2300124F7C79501226B2AA0AAB0B794B12268D
:104A3300B2851882851983124B20124BEAE50824AC
:104A430002F50CE50912656F900377124B3590035D
:104A530078124BEAE50E90036F124B3D74CE550E60
:104A63004480C0E07412121358D0E0F0E508240C1F
:104A7300F582E509124B18F0740F121358740212E1
:104A83004B357407121358E8F0A3E9124B6A7410FC
:104A9300121358E8F0A3E91261A6C0E074051213DB
:104AA30058D0E0F0741B121358E4124B27A3A3E071
:104AB30090038AF07A8A7B037954124B12A3A3A33F
:104AC300E0900389F07A897B0379471226B2900339
:104AD30089E0C3940F50247405121358E0C0E074A6
:104AE30002121358D0E0F074041213587401F074D6
:104AF30002121358AA82AB831226D67405121358D6
:104B0300AA82AB831226B8741E121095022F431289
:104B130026B20232641252B40490039522124F87D4
:104B230090038222124B2B22F0850882850983A3EE
:104B3300A322124F72F8A3E0F922F0EEFCEFFD7A04
:104B4300967B0312269A22C082C083EB90038CF0DB
:104B530012168C024C50F8EF124D808882F583E0D8
:104B630022124BD2A3E022124BDD024B3874F71210
:104B73000A6574F8121127EAFEEBFF7900900384AB
:104B8300E06408704185188285198374FD1262E719
:104B930012177074021213581247527405121358E5
:104BA300E4124BCEE0C0E07404121358D0E0124B71
:104BB300D9C0E07406121358D0E0F07407121358EA
:104BC300124F7B1217C47408023D38124BD222F0E5
:104BD3008E828F83A322F00230DA1242DAE022853A
:104BE3000882850983A3A3E8F0A3E9F022E508245A
:104BF30001F508E5093400F509221242CE12109599
:104C030074021210957F02020DA7C082C083900325
:104C1300567442F0A37415F09003FC741EF0A37451
:104C230018F090035A7472F0A37415F090035C7437
:104C330042F0A37415F090035E7478F0A37415F03A
:104C4300800B740B1213581243D2121095D083D0D9
:104C530082020D2D74F4120A6574F91211278A0861
:104C63008B098C0A8D0B851882851983780812129B
:104C7300D87404121358E9F07405121358E4F0744D
:104C830006121358124F7B121470740780031248D4
:104C93003B1210957F04020DA774F0120A658A82F5
:104CA3008B831263D7EE7001EF7003024D7DEA240C
:104CB30002F8EB124D80900312E07002A3E0601340
:104CC30088828983E0F9EEFAEFFB900312125719F9
:104CD3001228F4EE2406F8EF3400F9880A890BEE63
:104CE3002409080808EF3400F9880C890D8882F537
:104CF30083E06402704B850A82850B83E054026073
:104D030052850882850983E064E96047EE240A0836
:104D1300EF126F2B700A901AC9E00488828983F01E
:104D2300E014F07404850C82850D83F0901ACA1286
:104D3300608FE8F0A3E9126F407001EB7003126A11
:104D430013850C82850D83E0FA74026A600574068C
:104D53006A7027850A82850B83E0A2E0501C8508D0
:104D630082850983E0F9EEFAEFFB1227E4850A82D4
:104D7300850B83E054FEF0A3E0F002318D3400F99B
:104D8300880889092274EC120A6574DD121127EA76
:104D9300FEEBFF8C128D137437121358780C12121A
:104DA300F67510007405121358AC82AD8312276692
:104DB300EE240BF508EF124BF87405121358E0A21A
:104DC300E55019751001AC82AD838508828509838E
:104DD3001255FB1227F0E96003024F2374051213E7
:104DE30058E0A2E650227406121358E054037018D8
:104DF3007405121358E0540CFA740C6A600A7408B0
:104E03006A6005751101800375110074051213584A
:104E1300E05403FA74026A7013AC82AD838508828E
:104E23008509831255FB122754024F23EE2406F5FE
:104E33000AEF122E7174016A7037E5116003124F85
:104E4300597405121358A882A9837403121358E8DE
:104E5300F0A3E9124F80851882851983124F6AC027
:104E6300E07402121358D0E0124F7C1228CE024F86
:104E730023EA6003024F2390036CE06401700C8506
:104E83000A82850B83E07003024F237422121358A6
:104E93007402124F80741A121358124BEAE5116010
:104EA300087405121358124F597405121358E0541D
:104EB3000C64047073EE240FF582EF12683AC0E0BD
:104EC3007417121358D0E0F0900314E07002A3E0BB
:104ED300604E1217768A088B09A808A909741A125A
:104EE3001358E0687003A3E0697035780C12107AE8
:104EF300E510F50878081210867812121082A911AD
:104F0300740C121358AC82AD837421121358AA8205
:104F1300AB839003141257191228F47407121095D7
:104F23007423121095023CBD780C12107A78121279
:104F33001082900382120E97A9107422121358AC98
:104F430082AD83740D121358AA82AB831227D874CF
:104F53000812109580CAAC82AD83850882850983C7
:104F630012560512276022E8F0A3E9124F7222F0CD
:104F7300850A82850B83E022E412435E22123263A8
:104F8300124F8722E0024B38C082C08312202E02C8
:104F93004C50C082C083122034024C50C082C08364
:104FA30012203A024C5074F7120A6574091213580E
:104FB300E0F50878081210861220467401023D3885
:104FC300C082C083122052024C50C082C083122080
:104FD30058024C50C082C08312205E024C5074F7BA
:104FE300120A65EAFEEBFF7401697010790012156D
:104FF300B47C1E7900EEFAEFFB121530023D3B74D0
:10500300F4120A6574F91211278A088B098C0A8D28
:105013000B74131213581255FB901177E07002A30F
:10502300E06027E9851882851983F074011213580B
:1050330078081212D8EAF8EBF974051213581243E0
:10504300569011771257191228F4024C8D74F712E7
:105053000A65901A49E0F97F00800B12528D540DB6
:1050630064017001190F12524A5003E970ED023DB9
:105073003B74F7120A65901A4AE0F97F00800B121D
:10508300528D548D64817001190F12524A5003E9F5
:1050930070ED023D3B74F3120A65890CE975F00665
:1050A300A4F8A9F0740C28F508E439F509EA2508F1
:1050B300FAE43509FB121ED28A0A8B0BAE0AAF0B38
:1050C300EE7001EF6025AC08AD097900121E3612AF
:1050D30049A1E50CF0EE2508F8EF3509F98E828F2A
:1050E30083A3A3A3A3A3A3A3124BE8EEFAEFFB02AC
:1050F3003DD874F6120A65EAFEEBFF12150C901AFE
:1051030048E0FAE9C39A40099003521255FB12157D
:1051130012EE2402F8EF124D80900354E088828946
:1051230083F0900354E00412513A12151885088253
:10513300850983E0024057F0EEFAEFFB22C082C0FC
:105143008379009003528001091255FB8A828B8375
:10515300E5827002E58370F0024C5074F7120A6521
:10516300EAFEEBFFEE7001EF605E900352E0700227
:10517300A3E060549003521259AC7A007B00800F75
:10518300AA82AB831259ACE5827002E5836039EEE3
:1051930065827003EF658370E78E828F831249B057
:1051A300900352125E22EE6C7002EF6D7005900355
:1051B3005280048A828B83124BEAEEFAEFFB1228A9
:1051C3009EEEFAEFFB121ED8023D3BC082C08390D5
:1051D3000352E0F8A3E08003ECF8EDF9E87001E98D
:1051E3006009125E1EEC7001ED70ED8A828B83E420
:1051F300F0A3F0E87001E960068882898380039058
:105203000352124752024C5074F7120A659003522C
:1052130080048A828B831262DB7001EB60227F0041
:1052230080010F12524A50EAEF75F006A4FCADF06C
:10523300EA2CFCEB3DFD74101252A16970E480046A
:105243007A007B00023D3B1252AEFCEFC39C2274FA
:10525300F7120A6578008001081252AAFDE8C39D7F
:105263005025E875F006A4FEAFF0EA2EFEEB3FFFF3
:10527300EE2410F582EF12683A6970DCEE2411F522
:1052830082EF12683A4CF0023D3BEF75F006A4FC46
:10529300ADF0EA2CFCEB3DFD74111252A1222CF56A
:1052A30082E43DF583E0221252AE22EA240BF5821A
:1052B300EB3400F583E02274F6120A6512162C7A99
:1052C300008010EA12622812534B126233F0125517
:1052D30004F00A902D38126D7340E87A00801E8A1C
:1052E300087509007403780812125312682988821A
:1052F300898312534BA3A3A3A3A3A3F00A902D3531
:10530300126D7340DA7A00801A8A087509007403F3
:105313007808121253E508248EF582E50934191230
:1053230062E30A126D7040E1902D28E493900360CC
:10533300F012533A024C087CE87D037A107B00900C
:1053430003D0E0F9121F7A2212534F22A374FEF006
:10535300A374FFF0E488828983A32274F0120A65A0
:1053630074F51211278A088B09890A8C0BE9A2E0CC
:1053730050147508FC7509FFA2E15005D2E40254EC
:1053830028D2E302542812160E8A0C8B0DA80CA9FE
:105393000D900375E0687003A3E06970057900025E
:1053A30054FFAC0A7902AA08AB09121608E960EDAA
:1053B300E50AF50C780C12108679027CFE7DFFAAB3
:1053C30008AB09125B1A121095E960030254FDE55C
:1053D3000AC2E5F50A9003C2E0704CE50AA2E64072
:1053E300467403121358AC82AD83AA08AB09122882
:1053F30020E9702D12560BF8EBF9EA7001EB6027E8
:10540300E82402FEE93400FF0A0AFB122826E960B9
:1054130016EEFCEFFD7403121358AA82AB83122617
:105423009AE50AD2E5F50A900355E0F50C90037569
:10543300E0F50EA3E0F50F780E1210827D017C00DB
:10544300900355E0F9AA0EAB0F1215C074021210A7
:1054530095E9FA900355E004F0EA60030254FDE590
:105463000AA2E550047A0E80027A067401121358D8
:105473001265928A0E8B0FAE0EAF0FEE7001EF60C6
:10548300751255121249A212435088828983F0740F
:1054930078550A125504A3A3E50C12683EE508F0FB
:1054A300E50988828983A3A3A3A3F0E4888289837F
:1054B300A3A3A3A3A3F0E50AA2E550147403121354
:1054C30058AC82AD83E82406FAE93400FB12269A2D
:1054D3008E828F83A3A374FD1262E7E50B600EC374
:1054E300941E5009EE2413126078E50BF0EEFAEFE8
:1054F300FB12145E80067910800279C7740B0231A7
:105503008AA312550922F08001F98882898322EE49
:1055130024171249A87401F0121770EE241A1249C5
:10552300A8EAF0A3EBF0EE22C082C083901216E04B
:105533006401901AC87006E0FC79018004E0FC79EC
:10554300037A007B00121530024C5074F4120A6582
:105553008A088B09E9FE1217FAE960067AFF7BFFD6
:105563008078901AC7E06402706379001255E0EA0C
:105573007001EB6042126F26FC74016C7022900381
:1055830074E08A828B83A3A3A3A3F08A828B83A371
:10559300A31255FB74FE6A700374FF6B6010803AAC
:1055A30074036C601A74046C70047AFE80B0888291
:1055B3008983E0640270089003C1E06402700E12F4
:1055C300560B7001EB6006AA08AB09800DAA08AB65
:1055D300099003561257191228F4024C97AA08ABE4
:1055E300091255E82212160EEEF912160222EA24C7
:1055F3000BF582EB3400F58312560522850E828566
:105603000F83E0FAA3E0FB221256131218BAEA2220
:10561300900382E0FCA3E0FDAA08AB092274F71211
:105623000A65EAFEEBFF12138CE9700AEEFAEFFB50
:10563300121398E96006EEFAEFFB80047AFE7BFF13
:10564300023D3B74F2120A658A088B098C0A8D0BA2
:10565300E9FE7F001217FAE97900600302570FAAE7
:1056630008AB091270B17002E5836017A3A3A3A36B
:10567300A3E0FA74026A704F9003C1E064027003FE
:1056830002570DAA08AB0990035C1257191228F4AC
:1056930012139E8A0C8B0DA80CA90DE87001E9600A
:1056A30069E82405F582E912683AA2E0505C750CBA
:1056B30001A2E1501C7901AC08AD09AA0AAB0B1297
:1056C3001560E9700F804374036A703E750C0280A5
:1056D30003D2E1F0900375E0650A7004A3E0650B63
:1056E300700E7C1EEEF9AA08AB091215300F801A52
:1056F300A90CAC08AD09AA0AAB0B121560E9700A34
:105703000FEEF9AA08AB091215B4EFF902467BEEC6
:10571300FAEFFB90035812571D22E0F8A3E0F5833C
:1057230088822274E8120A6574F01211278A148B96
:10573300158C088D097428121358E0F510A3E0F5B1
:1057430011900402E07002A3E060121270B77002BD
:10575300E5836009A3E07005790002598BE5142401
:105763001DF516E5153400F5178516821259AAA3FF
:10577300E0F50A88828983125AFAFA88828983A318
:10578300A3A3A3E0F9EAFEE9FFAA08AB091215BA3D
:10579300E9FA1259B2E02AF50B530A78E514240BFF
:1057A300F50EE5153400F50F78081210827D00120E
:1057B300599D121095E9FA74036A609CEA7040746B
:1057C30018550A70030258A9E50AD2E0F50AA2E4C3
:1057D3005004D2E1F50AE50AF50D780D1210861290
:1057E3005990121095E9701785108285118374FF03
:1057F300F0A3F0850E82850F831255FB12204C8592
:105803001082851183E064FF7004A3E064FF6039B4
:105813009003C1E06402700302575B850E82850F1B
:1058230083E0FAA3E01257151228F4EA650870031F
:10583300EB6509600302575B1257121228F48510B7
:1058430082851183EAF0A3EBF078081210827D01C0
:1058530012599D121095A90AEEFAEFFB12160E8A41
:10586300088B09A808A909900375E0687003A3E0F1
:10587300696003025982EEFAEFFB1236CB7002E540
:10588300836064A3A3A3A3E0FA74016A60057402AE
:105893006A7054851882851983AC82AD83EEFAEF62
:1058A300FB122820805590036EE0600FE50AF50D8A
:1058B300780D121086125990121095E50AF50D789D
:1058C3000D12108679027CFE7DFFEEFAEFFB125B70
:1058D3001A121095E960030258028510828511831C
:1058E30074FFF0A302584B121770EAFCEBFD851806
:1058F30082851983AA82AB8312269A851482851521
:1059030083A3A3A3A3A3A3A3A3E06401701AE51431
:105913002415F582E51512607B125E2274081213BA
:1059230058AA82AB8312269A85168285178312574B
:1059330019A3E04430F50878081210867401121395
:10594300588582088583097808121082740B121314
:10595300588582088583097808121082E50CF508BA
:1059630078081210867900EEFCEFFD850E82850F14
:10597300831255FB12155A740612109502575B12C7
:1059830059B2E50BF01217887410026D517901AC0E
:1059930008AD091255FF125B1A22AC0BA90C125564
:1059A300FF1215C0740222F583124F8702550D852D
:1059B300168285178312571D02609474EE120A65CE
:1059C30074F01211278A108B11EA241DF50EEB34A3
:1059D30000F50F850E821259AA125AFAFC888289A1
:1059E30083A3A3A3A3E0FBECFEEBFF88828983A33D
:1059F300A3A3A3A3E0FC88828983A3A3A3A3A3A354
:105A0300E0FAE4CAFBECF508EBF50988828983A385
:105A1300A3A3A3A3A3A3E0F50A88828983A3E054E5
:105A230078F50BA2E45016E82408FCE93400FD7471
:105A330008121358AA82AB8312269A7A08E50BA29E
:105A4300E55024EAF8850E82850F83E028F8A3E069
:105A53003400F9740828FCE439FD8518828519831C
:105A6300AA82AB8312269AAC0AA90CEEFAEFFB12B8
:105A730015C6E9FA74036A6079900375E06E7003E2
:105A8300A3E06F605EEA7054E50BF50D780D12101C
:105A930086125B06121095E97058780B1210867403
:105AA3000112135885820E85830F780E12108274AB
:105AB3000B12135885820E85830F780E121082E520
:105AC3000CF50B780B121086A90AAC08AD09EEFA97
:105AD300EFFB12155A7406121095801674046A703F
:105AE3001180B7E50BF50A780A121086125B0612CD
:105AF30010957410025E77A3A3E0F50C8882898366
:105B0300026A327901E510240BF582E5111249ABE3
:105B1300125616125B1A2212157E74012274E812B1
