:020000040000FA
:060000000212890207B0A4
:03002B000228D9CF
:03003300020E5565
:030043000210CADE
:03004B00020F425F
:030053000207039E
:03005B00020F5140
:03006300020F5D2C
:03006B00020E3B47
:1000830002074C0101FF01010503010F10FEFF03ED
:100093000003000300030003000300030003000345
:1000A3000005000A00140028004F009E00000030E5
:1000B3001B301B301B301BEC19E619301BF62A00D2
:1000C300000000942A000000000C0000000C000156
:1000D3000000B61C000000000000521D00000000DC
:1000E30000000000F604FF0102003B11000000AE17
:1000F3001164000202008000000502071E02051EB3
:10010300020A03B80B02803E0103320002341202DA
:1001130002063031323334353637383941424344BD
:10012300454600286E756C6C20706F696E7465723D
:1001330029003F3F3F000000807F0000803FF9021D
:100143001550B743BA510000204100E7DB2E0000F1
:10015300A04010000000080000000A000000121276
:10016300B760461212D5603DE9687008F618F618B4
:10017300F618F622748067F712019509090974804D
:1001830067F7221212D5601D1212B77005191919DB
:10019300801A121122701F12114CC37003E66733C9
:1001A30019191940071818182208080874FFF618B7
:1001B300F618F618F62212114C6017121314702158
:1001C30092F012131E7019501720F0140808080932
:1001D3000909E7F61819E7F61819E7F61819E7F603
:1001E3002212131E60E6E869701F0808E62480F6F1
:1001F30008E436F618547FB47F0CE654806007F6A3
:10020300E418F618F622181822E9C6CC08C6CD0859
:10021300C6CE08C6CFC0E0E8C0E0EAC0E0EBC0E06D
:1002230009E9F809E7FA09E7FBE6F918E6F8C3EC88
:1002330098ED99EE9AEBC2E7F5F0EFC2E795F0502F
:100243000E600CEBCFFBEACEFAE9CDF9E8CCF8EA85
:10025300A2E7D2E7FAEB33FB13F5F0EEA2E7D2E71E
:10026300FEEF33FFC5F013A2E730E601B313C5F089
:10027300C3C0E0C0F07F00C39BFB605B9418600CBD
:10028300401AD0E023F9D0E0F80203648AF0E94889
:100293006003D2F0E4AFF0FAF9F8803BEB30E40D01
:1002A30089F0EA6003D2F0E4AFF0F9CAF8EB30E387
:1002B3000D88F0EF6002D2F0AFF0E4CAC9F8EB5456
:1002C300076014FBC3EA13FAE913F9E813F8EF1311
:1002D3005002D2E0FFDBEDD0E0C0E030E739C3E409
:1002E3009FFFF5F0EC98FC42F0ED99FD42F0EE9A99
:1002F300FE42F0D0E0F9D0E0F8E5F0607AE923F9C6
:10030300EE20E742D8028067C3EF33FFEC33FCED06
:1003130033FDEE33FE80EAEC28FCED39FDEE3AFEC8
:10032300D0E023F9D0E0F84002801BC3EE13FEEDCA
:1003330013FDEC13FCEF135002D2E0FF08B80006E4
:100343007F7F74FF802EEF3350178CF020F0026014
:10035300100CBC000C0DBD00080EBE000408E860C4
:10036300DFE933E813FFEE2313FE4F4D4C8008E91A
:100373005480FFE4FEFDFCEE33EF33F47004FCFD28
:100383007E80D0E0FBD0E0FAD0E0F8D0E0CFC61812
:10039300CEC618CDC618CCC6F9221212D5700418D1
:1003A3001818221212B7700D74FFF61819F61819DF
:1003B300F61819F622E7548066F612131E700F1210
:1003C300131470F014F608F608F608F680D1121329
:1003D30014700CF608F608768008E6447F80EC1269
:1003E300114F700C12112560BFE65480F6E480BBF8
:1003F300121125700519191980A5E869700C763F4B
:1004030018768018F618F6E8F922E6CDC0E018EC65
:10041300C0E0E633CD33CDD313F6E719FCE7191962
:1004230033CC33C3947F400ECD9D502408E65480D3
:10043300F6E418F6800FF4043D14501408E6447FE4
:10044300F6187680E418F618F6D0E0FCD0E0FD222A
:10045300CCD313CCFD18E4C6CBC0E018E4C6CAC0A5
:10046300E00808ED08C633E613F618E433C675F062
:1004730003C3CA97CA09CB97CB199C40047D088054
:100483002EBD000302054616B6FF0506060816181C
:10049300C3CA33CACB33CB33CA27CA09CB37CB1929
:1004A3003CC37D08803E187D0820E75CC633C6CA7E
:1004B30033CACB33CB33DDF1D5F0EB30E77BCA97CF
:1004C300CA09CB974ACB199C406F4B7025E620E0B5
:1004D300218066187D08C3CA97CA09CB97CB199C9C
:1004E300D3C633C6CA33CACB33CB3350C9DDE7D502
:1004F300F0E1D3E4C636C608C636C608C636C60813
:10050300C636C61818188031C3CA97CA09CB97CB09
:10051300199CB34097C633C6CA33CACB33CB33DD3A
:1005230034D5F02EC6A2E0C640C8CA27CA09CB37C5
:10053300194A70BECB3CB480B90808E63308E633E9
:10054300601F181818D0E0FAD0E0FBD0E0FCD0E030
:10055300FD22187D08CA27CA09CB37CB193CD380A3
:100563008013F618E4B67F11F618B6FF0EF618C618
:100573000470D20808768080CAF618F618F680C58B
:10058300001212D5604F1212B76012E7548066F65C
:100593001211227011121314703B090909F4F61891
:1005A300F618F618F62212114C701512131E0808CD
:1005B3000860EAE6447FF618768018E4F618F62217
:1005C30012131E60161213147012E4F608F608F6DE
:1005D30008E65480F609090918181822EAC0E0EB66
:1005E300C0E0ECC0E0EDC0E0E687F0A4FBACF008AF
:1005F300E687F0A42CFCE435F0FA1809E687F0A4AA
:100603002C4B60027401CA35F0FCE433FB09E68726
:10061300F0D2F7A42CCB35F0FC1908E687F0A42B15
:10062300CC35F0FBE433FD0819E687F0D2E7A42CC0
:100633004ACB35F0CD3400FC09E687F0D2E7A42D90
:10064300CC35F0FDE433FA0918E687F0D2F7A42C91
:10065300CD35F0CA3400FC08E687F0D2E7D2F7A420
:100663002ACC35F07A7E20E70B0ACB33CBCD33CDC2
:10067300CC33CC33CB3350147004ED30E00ED2F1D5
:10068300E4CD3DCDCC3CCC3B5005DA05C2F1EB5477
:100693007FC63308E63392F0FBE73309E733C39AA7
:1006A300502D2B70190C0D4C4D70151806E608C310
:1006B30033700D20F10AA2F013F6E418800B4024E6
:1006C300E4F630F002768018F618F618F68024D394
:1006D3003B14501074FFA2F013F6187680E418F65A
:1006E30018F6800FA2F013F618E63303F618ECF6AB
:1006F30018EDF6D0E0FDD0E0FCD0E0FBD0E0FA222C
:10070300C0E074F2120AC9E5A7F8E5A1F95854103C
:10071300600812245453A1EF802AE8A2E0C0D0E974
:10072300A2E092F01211D7158182F05017906198D0
:10073300E0F89014BCE0C398A2D265D0335002E82D
:10074300F053A1FE7F01020B80C0E074F2120AC9CC
:100753009061A4E0F8759B00E59158540860087512
:1007630091F7122496802AE59158541060087591E8
:10077300EF12249C801BE8A2E0C0D0E591A2E09296
:10078300F01211D7158182F05007E0C2E0F0122574
:10079300BC9061A3E0F8E5E9585404600E12259279
:1007A30075E9FB906193E0A2E640F28097C0E074A4
:1007B300F2120AC99061A5E0F8E5BF585404600637
:1007C30053BFFB1225D4020747C3E498F8E499F911
:1007D30012080D8026C3E49AFAE49BFBE920E7E9BB
:1007E30012080DE498F8E499F922C3E498F8E4991F
:1007F300F912080DE498F8E499F9C3E49AFAE49B32
:10080300FB22EB20E7CFE920E7E0B90010BB0008AB
:10081300E88AF084F8AAF022E4FBC8FA22EB7022FB
:100823007B10C833C8C933C9335007C39AC3DBF23B
:1008330080069A50012ADBEAC833F4C8C933F4C9E5
:10084300FA2275F008E4C833C8C933C933C99AC951
:100853009B5004C92AC93BD5F0ECFBC833F4C8E468
:10086300C9FA221208A620F01430E72B74FFFCFB10
:10087300FA747F8022E4FCFBFA7480801AB4800847
:10088300BC00F2BB00EF800F50EBF9E4C39AFAE42B
:100893009BFBE49CFCE499C6CC18C6CB18C6CA18CB
:1008A300C6F922E4C9C608CAC608CBC6D3330308AF
:1008B300CCC63392F0C3947F402E94184019C9B923
:1008C3000704CACBCC225025C309CA33CACB33CBC6
:1008D300CC33CC33D9F422F4600DC9CCC313CB137E
:1008E300CBCA13CAD9F6CC22E4FCFBFA2214FCFBD4
:1008F300FA22080808EAC0E0EBC0E086F0E7A4FAB1
:10090300180986F0E7A42AFA180986F0E7A42AFA58
:10091300180986F0E7A42AFA1986F0E7A4FBE5F0A4
:100923002AFA190886F0E7A42BFBE5F03AFA19082E
:1009330086F0E7A42BFBE5F03AFA18180986F0E7EE
:10094300A4C5F02BFBE43AFA1908E7C5F0C6A426C0
:10095300F6E5F03BFBE43AFA1886F0E7A4F6E5F097
:100963000826F6E43B08F6E43A08F6D0E0FBD0E0CC
:10097300FA22080808E630E71112118A12098D08D5
:100983000808C64480C618181822181818E9799E52
:10099300C608CAC608CBC608CCC6C370207996CA97
:1009A300CBCC7019798ECBCC70137986CC700EF9C1
:1009B300802ACA33CACB33CBCC33CC331930E7F2DA
:1009C300CCCBCA3350147004EA30E00DE4CA3ACAFF
:1009D300CB3BCBCC3CCC500209C3E913C6CC182388
:1009E30013C6CB18C6CA18C6F922E4CFC0E0E4CEBA
:1009F300C0E0E4CDC0E0E4CCC0E075F020C3E63352
:100A0300F608E633F608E633F608E633F618181860
:100A1300EC33FCED33FDEE33FEEF33FFC3EC97090C
:100A2300ED9709EE9709EF97191919400FFFEC9706
:100A3300FC09ED97FD09EE97FE191906D5F0BEECFA
:100A4300F709EDF709EEF709EFF7191919D0E0FCEB
:100A5300D0E0FDD0E0FED0E0FF222518C582C0E043
:100A6300E51934FFC583C0E0E518C3958224F81067
:100A7300AF088583198582188008858319858218B4
:100A8300D2AFCEF0A3E520F0A37808E608F0A3DE0A
:100A9300FAEFF0A3E58124FAF8E608F0A3E608F0FC
:100AA300A3E608F0A30808E608F0A3E608F0A315F8
:100AB300811581D0E0FED0E0F8158115811581E81C
:100AC300C0E0EEC0E022C0D02518C582C0E0E51921
:100AD30034FFC583C0E0E518C3958224F310AF0843
:100AE3008583198582188008858319858218D2AF7A
:100AF300C8F0A3E9F0A3EAF0A3EBF0A37908E709B0
:100B0300F0A3D8FAECF0A3EDF0A3EEF0A3EFF0A37B
:100B1300D0E0F0A3D0E0F0A3D0E0F0A3E520F0A371
:100B2300E5F0F0A322121309B90003020B6AE49063
:100B33000301783D79188002F0A3D8FCD9FA901A02
:100B43003DAA82AB8390008678DC79018015E4931B
:100B5300A3AC82AD838A828B83F0A3AA82AB838CFE
:100B6300828D83D8E9D9E77582147583EE740312F5
:100B73000CBF7582D47583287400120CBF8519834A
:100B8300851882E0C0E0A3E0F9A3E0FAA3E0FBA3A9
:100B93007808E0F608A3DFFAE0FCA3E0FDA3E0FE9B
:100BA300A3E0FFA3E0C0E0A3E0C0E0A3E0F5D0A38F
:100BB300E0F520A3E0A3F5F010AF08858319858243
:100BC300188008858319858218D2AFD082D083D04C
:100BD300E0F8D0E0321212D5601C1212B76017127F
:100BE300131E70071213147001D322C0D0121314F2
:100BF3007006D0D0B322C32233D0D0501430E0F6E5
:100C0300C3E7960809E7960809E7960809E796B344
:100C13002220E0D5E6970809E6970809E697080930
:100C2300E697B3221212D5601B1212B76016121385
:100C33001E7007121314600CB322C0D01213147069
:100C430005D0D022C32233D0D0501330E0EBC3E71A
:100C5300960809E7960809E7960809E7962220E02F
:100C6300E4E6970809E6970809E6970809E6972254
:100C7300D083D082ECC0E0EDC0E0E493A3FCE49326
:100C8300A3FDED4C600D120D95EC24FFFCED34FF3C
:100C9300FD80EFE493A3FCE493A3FDED4C600D1200
:100CA3000EC5EC24FFFCED34FFFD80EFD0E0FDD05A
:100CB300E0FCE493A3C0E0E493C0E022C0F0F5F0CD
:100CC300E59F5407C0E0E59F54F845F0D0F0F59F49
:100CD300E473859FF053F0F8D0E045F0F59F22D000
:100CE30083D082E59F5407C0E0E493C0E07401938E
:100CF300C0E07402935407C0F0F5F0E59F54F84543
:100D0300F0D0F0F59F22851983851882E0A3FEE0D9
:100D1300A3F5207808E0A3F608DFFAE0A3FFE0A339
:100D2300C0E0E0A3C0E0E0A3C0E0E0A3C0E0E0A334
:100D3300C0E010AF08858218858319800885821862
:100D4300858319D2AFD083D082020CD5D083D082D1
:100D5300E9C0E0E493A3C386F0C5F095F0F908E495
:100D630093A386F0C5F095F0700BE493A3C3994069
:100D730005E9048002A3E475F002A42582F582E567
:100D8300F03583F583D0E0F9E493A3C0E0E493C0A6
:100D9300E022C0E0C3E49396087401939618400FD1
:100DA300E49366700808740193661870007019A3C1
:100DB300A3C3E49396087401939618A3A3400DD09C
:100DC300E0D0E0D0E0020CAFA3A3A3A3A3A3D0E0A1
:100DD30022D083D082C5F0E493A3C5F0C395F0F588
:100DE300F0E493A3C395F04005E5F0048001E475B6
:100DF300F002A42582F582E5F03583F583E493A31D
:100E0300C0E0E493C0E0227404800474028000CC48
:100E1300C0E0EDC0E0E518C39CCCAD1950011D1036
:100E2300AF068C188D1980068C188D19D2AF120F4E
:100E3300B1D0E0FDD0E0FC22C0E074F2120AC9E5B3
:100E430089A2E150031222F2758900C2C57F010213
:100E53000B80C0E074F2120AC9E58BA2E0500312C2
:100E630022F2758B00C2E880E474028000CCC0E0FB
:100E7300EDC0E0E518C39CCCAD1950011D10AF06C1
:100E83008C188D1980068C188D19D2AF120F8FD044
:100E9300E0FDD0E0FC221212D560251212B76020CB
:100EA30012131E7003021314080808E76670101863
:100EB30019E766700A1819E76670041819E76622BD
:100EC300F422C0E0C0F088F0E4936670080874016F
:100ED3009366187000A8F0A3A3700BD0F0D0E0D0F5
:100EE300E0D0E0020CAFA3A3D0F0D0E022D083D0B7
:100EF30082CCC0E0E493A360061210101470FAE4ED
:100F030093A360061210E11470FAD0E0FCE493A3FB
:100F1300C0E0E493C0E022C0E074F2120AC9E5899C
:100F2300A2E050117C647D007A047B009004CBE046
:100F3300F9121F26E9758900C2C57F01020B80C023
:100F4300E074F2120AC912237C7F01020B80C0E015
:100F530074F2120AC912238280EFC0E074F2120AFB
:100F6300C912238880E3C008C3E096F50808A3E00C
:100F730096420808A3E096420808A3E0964208A216
:100F8300D265D033E5087001D3D00822CAC0E0E4AB
:100F930093A3C582CCC582C583CDC583F0A3C58287
:100FA300CCC582C583CDC583DAE5D0E0CA22CAC0E9
:100FB300E0E0A3C582CCC582C583CDC583F0A3C5BC
:100FC30082CCC582C583CDC583DAE6D0E0CA22C010
:100FD30008C3E096F50808A3E096420808A3E09644
:100FE300420808A3E09645087001D3D0082270098F
:100FF300080808226016181818C6C333C608C63373
:10100300C608C633C608C633C6D5E0EA22C0E0E444
:1010130093A3D39C5010E493A3C39C400AD0E0D085
:10102300E0D0E0020F0DA3A3A3D0E0222518F582A0
:1010330010AF08F518400215198008F5184002157D
:1010430019D2AF851983227404800A74038006744D
:101053000280027401C0E0F40412102FD0E01212D7
:10106300E422C0D0251810AF08F5185002051980E6
:1010730008F51850020519D2AFD0D022BB0102E700
:1010830022C082C08389828A83BB0003E08002E49A
:1010930093D083D082226016080808C6C313C618EB
:1010A300C613C618C613C618C613C6D5E0EA22C3AC
:1010B300E0C696F608A3E0C696F608A3E0C696F641
:1010C30008A3E0C696F622C0E074F2120AC9C2C0B1
:1010D300E5D1A2E450031223B27F01020B80C0E0EA
:1010E300E493A36C7009D0E0D0E0D0E0020F0DA32D
:1010F300A3D0E022251810AF08F518400215198077
:1011030008F51840021519D2AF22C3E7960809E77C
:10111300960809E7960809E796A2D265D033221804
:101123001818E6084608700AE608C3337005E63364
:10113300F4220822E066701008A3E066700A08A390
:10114300E066700408A3E06622191919E709470944
:10115300700AE709C3337005E733F4220922C3E0B9
:101163009608A3E09608A3E09608A3E096A2D265AA
:10117300D03322C3E096F008A3E096F008A3E096EC
:10118300F008A3E096F022181818E4C396F608E4D2
:1011930096F608E496F608E496F622E026F608A307
:1011A300E036F608A3E036F608A3E036F622E0269A
:1011B300F008A3E036F008A3E036F008A3E036F029
:1011C30022E627F60809E637F60809E637F608099E
:1011D300E637F622C0E0E8C0E0E58124FCF8E6A2A9
:1011E300E7D0E0F8D0E022E657F60809E657F6081C
:1011F30009E657F60809E657F622E056F608A3E093
:1012030056F608A3E056F608A3E056F622E647F69C
:101213000809E647F60809E647F60809E647F6220D
:10122300700422600D18C6C333C608C633C6D5E0A2
:10123300F41822E056F008A3E056F008A3E056F0B5
:1012430008A3E056F022C3E09608A3E09608A3E0C3
:101253009608A3E09622C6F4C608C6F4C608C6F4E8
:10126300C608C6F4C622600D08C6A2E713C618C690
:1012730013C6D5E0F322C3E7960809E7960809E702
:10128300960809E7962275D0007581407518017597
:10129300190300020B28600C08C6C313C618C61333
:1012A300C6D5E0F422E6F008A3E6F008A3E6F008CA
:1012B300A3E6F022E7094709C3134709336002E7AE
:1012C30033F422E0F608A3E0F608A3E0F608A3E06F
:1012D300F622E6084608C3134608336002E633F4F1
:1012E30022CAC0E0E6F0A308DAFAD0E0FA22E0FA74
:1012F300A3E0FBA3E0FCA3E0FD22EAF0A3EBF0A351
:10130300ECF0A3EDF022E5C754F84401F5C77901E9
:1013130022E7C33319471947194722E6C33318464F
:1013230018461846222518F582E43519F58322124A
:101333000CE2533200120CE2E33200120CE2D3331C
:1013430000120CE2163400120CE23B3400120CE2E1
:10135300913400120CE2B63400120CE2DB350012B9
:101363000CE24F3600120CE2723600120CE2953694
:1013730000120CE2BD3600120CE2CF3600120CE272
:10138300D93600120CE25D3700120CE2CC370012A2
:101393000CE2753800120CE27D3800120CE21E39A3
:1013A30000120CE27E3900120CE24A3A00120CE2FF
:1013B300C13A00120CE2FE3A00120CE25D3B00124D
:1013C3000CE2AA3C00120CE2C63C00120CE2283DDF
:1013D30000120CE2C53D00120CE20C3E00120CE2BE
:1013E300A73E00120CE2543F00120CE2923F00129F
:1013F3000CE2024000120CE24D4000120CE2864067
:1014030000120CE2B44100120CE2EE4200120CE2B4
:101413004F4300120CE2984300120CE2C043001247
:101423000CE2434400120CE2C34400120CE23D45BB
:1014330000120CE2624500120CE2D84500120CE2E5
:101443007C4600120CE2124700120CE239470012EC
:101453000CE25E4800120CE2714800120CE20049F3
:1014630000120CE2204900120CE2B84900120CE20F
:10147300024A00120CE2444A00120CE2304B001202
:101483000CE2334D00120CE23D4D00120CE2474DCD
:1014930000120CE2514D00120CE25B4D00120CE203
:1014A300754D00120CE27F4D00120CE2894D0012C3
:1014B3000CE2934D00120CE2B44D00120CE2024E0A
:1014C30000120CE20C4E00120CE2304E00120CE241
:1014D300544E00120CE2B14E00120CE2FC4E00120C
:1014E3000CE21A4F00120CE28A4F00120CE2C74FB3
:1014F30000120CE20E5000120CE2765000120CE2C5
:101503001A5100120CE2E75200120CE20A530012C5
:101513000CE2DC5300120CE2025400120CE2E2541F
:1015230000120CE27A5700120CE2DC5800120CE2B3
:10153300A35A00120CE2F55A00120CE2EE5B001201
:101543000CE23B5C00120CE2A65C00120CE2B05C05
:1015530000120CE26C5E00120CE29B5F00120CE2C4
:10156300FB5F00120CE2B16000120CE29961001201
:101573000CE2566300120CE2756300120CE2D163B5
:1015830000120CE2A96400120CE2CE6400120CE219
:101593001F6500120CE2016600120CE239660012AC
:1015A3000CE2796600120CE2DC6600120CE2F867CA
:1015B30000120CE2586800120CE23E6900120CE2C1
:1015C300466B00120CE2626B00120CE2076D001214
:1015D3000CE24D6D00120CE22B6E00120CE2856ED4
:1015E30000120CE2CD6E00120CE23D6F00120CE211
:1015F300CB6F00120CE24F7000120CE2BB700012B2
:101603000CE2138201120CE2658201120CE29F8448
:1016130001120CE2EB8401120CE2BD8501120CE213
:101623002C8601120CE26F8701120CE2BC890112B5
:101633000CE2E38A01120CE24A9301120CE2C79313
:1016430001120CE2479601120CE2339701120CE2ED
:10165300DF9701120CE2109901120CE2039A0112B6
:101663000CE21A9D01120CE21C9F01120CE27C9FFA
:1016730001120CE23DA001120CE268A001120CE27F
:1016830009A101120CE2EDA101120CE2C8A20112A0
:101693000CE25CA301120CE289A301120CE2ABA3DE
:1016A30001120CE29EA501120CE27EA601120CE2CD
:1016B300CBA601120CE22CA701120CE2EEA7011239
:1016C3000CE223A801120CE271A801120CE2A1A8FA
:1016D30001120CE2DFA801120CE237A901120CE29D
:1016E3003CA901120CE297A901120CE2BFA9011255
:1016F3000CE2DEAA01120CE24AAB01120CE2B4AB1B
:1017030001120CE240AC01120CE257AF01120CE2E1
:1017130023B001120CE293B101120CE2E7B3011200
:101723000CE28FB401120CE244B501120CE2D2B602
:1017330001120CE26FB701120CE2B7B701120CE20F
:1017430053B901120CE267B901120CE274B9011228
:101753000CE28FB901120CE29BB901120CE2B9B988
:1017630001120CE2B6BB01120CE2A9BC01120CE29D
:10177300EDBC01120CE270BD01120CE271BE01124C
:101783000CE22FBF01120CE2CEC001120CE2A3C186
:1017930001120CE244C201120CE2D4C201120CE2A7
:1017A300EBC201120CE224C301120CE22EC301129C
:1017B3000CE23AC301120CE258C301120CE29CC3BF
:1017C30001120CE2EDC301120CE20EC401120CE291
:1017D30028C401120CE2A0C401120CE2E1C50112FB
:1017E3000CE22BC601120CE21EC701120CE23AC72F
:1017F30001120CE29DC701120CE2F2C701120CE2C6
:10180300B0C801120CE2BFC901120CE26BCA01128B
:101813000CE242CB01120CE2AECB01120CE242CC41
:1018230001120CE212CD01120CE241CD01120CE2C5
:10183300A0CD01120CE24ECE01120CE274CE0112C5
:101843000CE2ECCE01120CE211CF01120CE234CF08
:1018530001120CE26FCF01120CE24DD101120CE226
:1018630030D201120CE2E8D201120CE27DD4011253
:101873000CE2D1D401120CE214D501120CE283D58F
:1018830001120CE2F7D501120CE250D601120CE260
:1018930076D601120CE2B1D601120CE2DDD60112AA
:1018A3000CE228D701120CE281D701120CE2FDD71A
:1018B30001120CE2DBD801120CE26DDA01120CE228
:1018C300DADA01120CE203DB01120CE269DB01122A
:1018D3000CE2C0DB01120CE2F9DB01120CE24EDC7C
:1018E30001120CE273DC01120CE2B9DC01120CE20E
:1018F300D6DC01120CE280DD01120CE263940412C7
:101903000CE2AE9404120CE26C8002120CE2A08092
:1019130002120CE2768102120CE24A8202120CE2FB
:10192300758302120CE2F98402120CE2778502122B
:101933000CE23E8602120CE25F8702120CE2D187B0
:1019430002120CE2338802120CE2818802120CE2CA
:101953008B8802120CE2C98802120CE2328902124D
:101963000CE2D18902120CE24F8A02120CE2048BC0
:1019730002120CE2768B02120CE29C8B02120CE236
:10198300CC8B02120CE2F98B02120CE29F8C021236
:101993000CE2AF8C02120CE2028D02120CE20E8DED
:1019A30002120CE21A8D02120CE2238D02120CE2D7
:1019B300848D02120CE2E48D02120CE2358E0212C7
:1019C3000CE2508E02120CE2808E02120CE2A18E07
:1019D30002120CE2AD8E02120CE2EE8F02120CE246
:1019E3000C9002120CE2759002120CE28890021223
:1019F3000CE29F9002120CE2329102120CE231923D
:101A030002120CE22D9302120CE2AF9302120CE2CB
:101A1300B99302120CE21C9402120CE22D940212EE
:101A23000CE2709402120CE2B79402120CE2ED94F1
:101A330002120CE2239502120CE2419502120CE20F
:101A4300659502120CE2A69502120CE29996021217
:101A53000CE2DF9602120CE21A9702120CE279975B
:101A630002120CE2A19702120CE2DA9702120CE2C4
:101A7300E89702120CE2499802120CE286980212CD
:101A83000CE2C89802120CE2F99802120CE22D99AA
:101A930002120CE2389902120CE2569902120CE27D
:101AA3001E9A02120CE2289A02120CE26D9A02129A
:101AB3000CE2D79A02120CE2EB9A02120CE2E39BBD
:101AC30002120CE2F69B02120CE20B9C02120CE2D5
:101AD300AB9C02120CE20F9D02120CE2D29D021289
:101AE3000CE2DD9D02120CE2FC9E02120CE2189F36
:101AF30002120CE2709F02120CE2A79F02120CE288
:101B0300C19F02120CE235A002120CE2C6A002121F
:101B13000CE20EA102120CE229A302120CE293A31F
:101B230002120CE2FEA302120CE257A602120CE20E
:101B330067A602120CE26AA602120CE276A6021251
:101B43000CE28AA602120CE292A602120CE2C7A6CB
:101B530002120CE275A702120CE2E5A702120CE2D4
:101B630049A802120CE2E2A802120CE27CA90212BA
:101B73000CE2AAA902120CE240AA02120CE26FAA1A
:101B830002120CE291AA02120CE2B8AA02120CE2AF
:101B93001EAB02120CE288AC02120CE28BAC0212F6
:101BA3000CE202AD02120CE2EEAD02120CE2C6AE82
:101BB30002120CE250AF02120CE285B002120CE2E8
:101BC30037B102120CE270B102120CE2A1B102129F
:101BD3000CE2AAB102120CE296B202120CE212B3A8
:101BE30002120CE2A2B302120CE26CB402120CE277
:101BF300F0B402120CE226B502120CE26FB5021227
:101C03000CE24FAF03120CE25DAF03120CE2C6AF5E
:101C130003120CE2FEAF03120CE251B003120CE20A
:101C2300EDB103120CE2CDB303120CE2ACB6031216
:101C33000CE2D8B603120CE2F8B603120CE256B764
:101C430003120CE294B703120CE2D2B703120CE2B4
:101C530018B803120CE2E49304120CE281F90112A6
:101C63000CE201FA01120CE273FA01120CE2EAFA35
:101C730001120CE243FD01120CE2E7FD01120CE23A
:101C8300CFFE01120CE223FF01120CE2F2890412CF
:101C93000CE2108A04120CE2618A04120CE2A68A96
:101CA30004120CE2508B04120CE23A8504120CE28B
:101CB3007F8604120CE234C803120CE2B7C8031285
:101CC3000CE2C1C803120CE2E8C803120CE2FCC820
:101CD30003120CE262C903120CE292C903120CE272
:101CE30094CA03120CE264CB03120CE2C4CB0312BA
:101CF3000CE20DCC03120CE24ACC03120CE2ADCC85
:101D030003120CE2D9CC03120CE264CD03120CE2F1
:101D1300BECD03120CE2CF8104120CE2E88104125F
:101D23000CE2628204120CE2342D00120CE23783BF
:101D330004120CE210F103120CE28AF103120CE21A
:101D430095F103120CE2B6F103120CE2ADF50212A7
:101D53000CE2B0F502120CE271F602120CE29FF6ED
:101D630002120CE2FAF602120CE21EF702120CE265
:101D73003EF702120CE288F702120CE2B6F70212E7
:101D83000CE2E5F802120CE214F902120CE235F946
:101D930002120CE290F902120CE253FA02120CE264
:101DA300A23100120CE2E8FB02120CE280FC0212E8
:101DB3000CE289FD02120CE2F2FD02120CE220FE9B
:101DC30002120CE2E5FE02120CE21AFF02120CE20E
:101DD3004DFF02120CE29A9003120CE2A49003123C
:101DE3000CE2EC9003120CE25A9103120CE27D9187
:101DF30003120CE21D9203120CE2CC9403120CE2C8
:101E0300D59403120CE2229503120CE24B950312B4
:101E13000CE2AB9503120CE2419603120CE27596A9
:101E230003120CE2C29603120CE21C9703120CE29B
:101E33004A9703120CE2D29703120CE2179803128B
:101E43000CE2569803120CE28B9803120CE29D9855
:101E530003120CE2AF9803120CE2CE9803120CE2C9
:101E6300859903120CE2C59903120CE24D920412F8
:101E73000CE2B89404120CE224FD03120CE288FD78
:101E830003120CE2ACFD03120CE2A5FE03120CE2FA
:101E9300008003120CE2DF8003120CE21B810312A9
:101EA3000CE2B88203120CE2FA8203120CE2AE8453
:101EB30003120CE2F28403120CE2D38503120CE248
:101EC300608603120CE2EB8603120CE241870312D5
:101ED3000CE2818703120CE2238903120CE2AC8A21
:101EE30003120CE2C38C03120CE2D18C03120CE23A
:101EF300368D03120CE2808D03120CE2599003120B
:101F03000CE2B89504120CE2CE9504120CE2BDEA81
:101F130003120CE2D0EA03120CE26EEB03120CE2A2
:101F2300A9EB03120CE2C4EB03120CE2E9EB03127C
:101F33000CE22EEC03120CE25FEC03120CE290ECC9
:101F430003120CE207EE03120CE2D68604120CE233
:101F5300438704120CE25F8704120CE2A187041288
:101F63000CE2B18704120CE2498804120CE2538894
:101F730004120CE26B8804120CE20D7100120CE2E5
:101F83005B7100120CE24B7200120CE2DD72001264
:101F93000CE2277300120CE2767300120CE2D37387
:101FA30000120CE2E77300120CE21B7400120CE245
:101FB300337500120CE2A57500120CE2C67500120F
:101FC3000CE2077600120CE23C7600120CE29576E6
:101FD30000120CE2B37600120CE2167700120CE248
:101FE300957800120CE2B77800120CE2EC7800123C
:101FF3000CE2147900120CE2217900120CE226792A
:1020030000120CE2297900120CE2757900120CE23D
:102013001A7A00120CE23F7A00120CE2497A00129B
:102023000CE24C7A00120CE2C07A00120CE2DB7A6A
:1020330000120CE2EE7A00120CE2297B00120CE291
:102043002C7B00120CE2377B00120CE2B3FF03126D
:102053000CE2CBFF03120CE290C003120CE2DFC0D0
:1020630003120CE283C203120CE239C403120CE222
:1020730081C403120CE2C7C503120CE212C7031298
:102083000CE234C703120CE27EC703120CE200C851
:1020930003120CE2BADD01120CE2DBDD01120CE2E9
:1020A30065DE01120CE2EEDE01120CE26ADF0112C0
:1020B3000CE2CDDF01120CE219E001120CE288E020
:1020C30001120CE212E101120CE289E101120CE2AD
:1020D300CBE101120CE28BE501120CE268E701127D
:1020E3000CE2A1E701120CE25BE801120CE25EE8EC
:1020F30001120CE242E901120CE287EA01120CE23E
:1021030021EC01120CE27DEE01120CE204EF01124C
:102113000CE2FAEF01120CE264F301120CE274F325
:1021230001120CE2D4F401120CE24FF501120CE29D
:1021330093F601120CE21BF701120CE257F801129D
:102143000CE2EBF801120CE228E202120CE2E7E2E5
:1021530002120CE25EE302120CE26DE302120CE2E5
:10216300F2E302120CE25BE402120CE25BE5021200
:102173000CE284E502120CE21DE602120CE260E6B8
:1021830002120CE2BDE602120CE297E902120CE223
:1021930051EA02120CE2B6EA02120CE25DEC021200
:1021A3000CE211ED02120CE2ACED02120CE205EEB0
:1021B30002120CE270EE02120CE280EF02120CE249
:1021C3003DF102120CE274F202120CE20DF3021260
:1021D3000CE277F302120CE26DF402120CE23DD32F
:1021E30003120CE2A9D303120CE212D403120CE281
:1021F30080D403120CE2B8D403120CE22CD50312E0
:102203000CE2B0D503120CE2DDD503120CE2F6D5D5
:1022130003120CE256D603120CE2A3D603120CE20D
:102223001BD703120CE220D703120CE28CD7031244
:102233000CE272F603120CE2C1F603120CE27AF717
:1022430003120CE2E0F703120CE251F803120CE262
:1022530097EE03120CE2F0EE03120CE26FF003129E
:102263000CE2489004120CE2579004120CE26090C6
:1022730004120CE29E9004120CE2BD8C04120CE2D8
:10228300F78C04120CE2B28D04120CE28883041260
:102293000CE2968304120CE2E6FF02120CE24B936B
:1022A30004120CE25B9304120CE2799304120CE225
:1022B300DA9304120CE22A8F04120CE2518F0412F7
:1022C3000CE2D68F04120CE22F9004120CE2DD9E76
:1022D30003120CE26E8804120CE2908804120CE2E2
:1022E300FA8804120CE21A8904120CE260890412BF
:1022F3000CE2BB8904120CE236D803120CE24BD871
:1023030003120CE260D903120CE2A1D903120CE20E
:10231300BBD903120CE237DA03120CE252DB0312CD
:102323000CE2C6DB03120CE2E0DB03120CE2F3DB8C
:1023330003120CE201DC03120CE21BDC03120CE2BD
:1023430032DC03120CE25CDC03120CE2ADDC0312A0
:102353000CE258E703120CE266E703120CE2E0E733
:1023630003120CE2ACE803120CE258EA03120CE28B
:10237300658B04120CE29E8B04120CE2BB8B0412DD
:102383000CE2198C04120CE27E8C04120CE2DDCDFB
:1023930003120CE24ACE03120CE201CF03120CE249
:1023A3006ECF03120CE28BD003120CE227D203127E
:1023B3000CE28BD203120CE2E0D203120CE2E9D25C
:1023C30003120CE2F8D203120CE20BD303120CE259
:1023D30021D303120CE22AD303120CE289FF021267
:1023E3000CE296FF02120CE2BEFF02120CE2CDFFDA
:1023F30002120CE2EE9903120CE2419A03120CE270
:10240300499C03120CE27B9C03120CE29D9C031279
:102413000CE2B69C03120CE2CF9C03120CE2D19D9A
:1024230003120CE25F9E03120CE2008004120CE222
:10243300328004120CE23E8004120CE2718004121A
:102443000CE2A28004120CE2D08004120CE245815B
:1024530004120CE2748104120CE2DCF303120CE2AA
:1024630002F403120CE23FF403120CE251F40312E0
:102473000CE26DF403120CE2DBF403120CE2E4F45D
:1024830003120CE243F503120CE267F503120CE2AC
:1024930026F603120CE233F603120CE244F603129F
:1024A3000CE292FF01120CE2DFFF01120CE230E4B6
:1024B30003120CE278E503120CE285E503120CE249
:1024C30098E503120CE2B7E503120CE2CDE5031223
:1024D3000CE2E1E503120CE25BE603120CE2F1E627
:1024E30003120CE239E703120CE249E703120CE290
:1024F300297F00120CE24D7F00120CE2757F00125F
:102503000CE29D7F00120CE2D4F803120CE2EDF80A
:1025130003120CE2F9F803120CE20DF903120CE2B8
:102523002BF903120CE235F903120CE23FF9031203
:102533000CE252F903120CE2A6F903120CE2DFF9E2
:1025430003120CE20EFA03120CE25CFA03120CE221
:10255300ABFA03120CE2C6FA03120CE2D0FA03122E
:102563000CE2E1FA03120CE227FB03120CE20895DA
:1025730004120CE256B803120CE282B803120CE206
:102583009EB803120CE2B1B803120CE2C7B80312EF
:102593000CE233B903120CE266B903120CE2C3BCBA
:1025A30003120CE2EEBD03120CE221BE03120CE295
:1025B30086BE03120CE26EBF03120CE296BF031237
:1025C3000CE2ABBF03120CE2BBBF03120CE2FFBF72
:1025D30003120CE254C003120CE264C003120CE2B7
:1025E300F78D04120CE2128E04120CE23B8E0412DD
:1025F3000CE2558E04120CE27A8E04120CE2998ED0
:1026030004120CE2B18E04120CE2DF8E04120CE20F
:10261300F98E04120CE2509504120CE26AE00312E4
:102623000CE271E003120CE27DE103120CE2ADE176
:1026330003120CE2D3E103120CE206E203120CE2F2
:1026430018E203120CE252E203120CE2B8E20312A4
:102653000CE2F1E203120CE23DE303120CE26AE343
:1026630003120CE28AE303120CE232FB03120CE2C4
:102673004AFB03120CE23CFC03120CE24D910412E0
:102683000CE2AC9104120CE2EA9104120CE22B92DC
:1026930004120CE2827B00120CE2A17B00120CE21A
:1026A300EC7B00120CE2087C00120CE2407C00126E
:1026B3000CE24D7C00120CE26A7C00120CE24D7DB0
:1026C30000120CE2847D00120CE28B7E00120CE2FD
:1026D300967E00120CE2A87E00120CE2B17E00127C
:1026E3000CE2BB7E00120CE2E2DC03120CE25CE0C3
:1026F30003120CE29E9E03120CE213FF03120CE280
:102703003DFF03120CE2C27F00120CE2909504120B
:102713000CE2D89504120CE2009F03120CE21EA4F3
:1027230003120CE2222D00120CE2F8E102120CE279
:10273300DAE102120CE20DE102120CE271E0021284
:102743000CE205DF02120CE2ADDC02120CE240DC0B
:1027530002120CE2EFDB02120CE258DB02120CE273
:10276300C83000120CE27B3000120CE24BDB021289
:102773000CE21ED802120CE25A3000120CE21A309C
:1027830000120CE2C3D502120CE267D402120CE26F
:10279300BBD302120CE202D202120CE212D00212DA
:1027A3000CE2A3CF02120CE248CF02120CE2D5CE08
:1027B30002120CE2ABCE02120CE299CC02120CE232
:1027C30071CC02120CE216CC02120CE2F3CB021211
:1027D3000CE222CB02120CE2CACA02120CE234C986
:1027E30002120CE231C902120CE231C802120CE2ED
:1027F30011C802120CE261C702120CE2E3C5021215
:102803000CE2DF2F00120CE2BB2F00120CE2A02F10
:1028130000120CE2302F00120CE25E2E00120CE2CA
:10282300AAC502120CE27BC502120CE278C50212A1
:102833000CE26AC502120CE2C42D00120CE256C56A
:1028430002120CE243C502120CE245C402120CE26E
:10285300D5C302120CE273FA02120CE2532D0012DA
:102863000CE29BC302120CE243C302120CE212C33A
:1028730002120CE22AC002120CE2E8BF02120CE2BE
:10288300DCBF02120CE24FBF02120CE29DBE021229
:102893000CE23CBC02120CE2A6B902120CE270B9C3
:1028A30002120CE204B802120CE2B3B702120CE2F9
:1028B300F7B602120CE2CAB602120CE21CB60212FE
:1028C3000CE2B5B502120CE2EFB502120CE20F8373
:1028D3000400000080FBC2C732E4730001363601F6
:1028E30001000102010001030100010401060605C4
:1028F300020000070100340801000F090401010D63
:102903000100FF0E08000017020000190100FF1A62
:102913000100011B0100FE1C0100081D0200001F35
:1029230001000120010001210200002301000F2406
:102933000200002601000127010008280200FF2AE7
:102943000100072B0102402C0100002D0100012E84
:102953000100012F0100FF30010B1C310800003A78
:102963000100083B01000F2F010000030271023038
:1029730001600211027002010202020202800210CF
:102983000261023A0041006302730272026202436F
:1029930002000213023800000200020402120200C5
:1029A3000200020002000204020402370037003C66
:1029B30002440200023900000200026502000235EF
:1029C30002810200020502820283020002010171F8
:1029D3000101010101110101013101010101018025
:1029E30001100161013B0014006301730172016274
:1029F3000143010001130106013D013500040112E9
:102A0300010001000100010001040104013301334D
:102A1300013C01440132013600000100016501005F
:102A230001350081010001050182018301000103D9
:102A3300047104020460041104700402040204011A
:102A43000402041004610400041404630473047294
:102A53000462044304000413040604000400040491
:102A63000412040004000400040004510464000080
:102A7300040004000444040004000400040004658A
:102A83000400043504810464000504000483040085
:102A93000401037103010301030103010301032281
:102AA30003020301031003000300030003000300F8
:102AB300030003000342030003240306030003008F
:102AC300030403120325032303250323030403043D
:102AD3000300030003000344030003000323030074
:102AE300036503210035038103000305030003008D
:102AF3000300030300710030016000110070003116
:102B030002200350048000100061000000140063E1
:102B1300007300720062004300000013000600000F
:102B23000000000400120000000000000000000488
:102B3300000400370037003C02440000000000009E
:102B43000000006500000035008100000005000062
:102B5300008300000036000100060000000F0000A3
:102B6300000000000000000000000003FFFF000061
:102B73000403FFFF0000FFFF0FF4010005C404037B
:102B830020000100000B0000000000000000030112
:102B93000F000084211300FA20010084210200B2F7
:102BA300200300B8200400BE200500C4200600D086
:102BB300201100EE201400F4201500E220FFFF0096
:102BC30000013E16066E160868160B7A1610C61517
:102BD300024416055C16074A160C26160D3216FF1C
:102BE3000000030003000400080010001F003E0063
:102BF3007B00F600EC01D703AF075D0FB91E713DF3
:102C03000000461A761A4C1A521A701A641A5E1A7F
:102C13007C1A821A881A941A581A401A3A1A03EA22
:102C2300F5E5D5D5C5B5A5959585857575656555C1
:102C3300554545353525251515059C36063A703D10
:102C4300D9404344AD47174B814EEA5100160F005C
:102C5300000B150B020002220F32000006000102D6
:102C6300030405060708090A0B0C0D0E0F301B425F
:102C73001B481B101A4E1B0A1A161AA21BC01BC68E
:102C83001BA81BB41BAE1B4A194419801986197A59
:102C9300193219303017181921301B1D1F3000034A
:102CA3004948424D181725050200383C3E363B3B48
:102CB300352B432C303016181920231A1C1E300CC8
:102CC3000E020B040B0A0708000F00011916181651
:102CD30016152303006A1A8E1ABA1B9A1AA01A969B
:102CE3001B541B5A1B661B601B56195C1950198C0D
:102CF300190005150D09100804000000000000620A
:102D030019741900BE040A0E00040015000103091A
:102D1300280C05100C0A0900040008040F0C08C055
:102D230082C0838A828B83E0D2E7F012201C02499F
:102D3300FBC082C08379001253AD900332125BDE75
:102D4300C3EA9CEB9D50061233FB6001090249FB69
:102D530074F7120A5DEA125A94EB125E37122F7C53
:102D6300AEF075F00BEDA42EFD900334E02CFEA322
:102D7300E03DFFEA2403FCEB3400FD7401696005C8
:102D830074026970278A828B83A31253B78E828F52
:102D930083A312470C740269701DECFAEDFB122831
:102DA30008E97013E48E828F83F0800BEE2403FA1C
:102DB300EF3400FB12280EEEFAEFFB122724023D3C
:102DC3002374F2120A5D8A088B09EA240BF50CEBD3
:102DD30012609C79008A828B83E0606F890A890B79
:102DE300805EE50A75F00BA4FAACF075F00BE50B09
:102DF30012318D7048AE82AF8385088285098312B4
:102E03006B15123247A3125E3D124994E508240361
:102E1300FCE5093400FDEE24030A0A0AEF3400FB43
:102E230012280E850C82850D83E50AF0A3E50B12AB
:102E33004EF6122724790190033212633F122E516A
:102E4300123185E50A9AE50B9B4097024677E50A1E
:102E53002401F50AE50B3400F50B2274F1120A5D27
:102E6300EAFEEBFF740F1213281242AE750E0185B2
:102E73000882F583A385820C85830DEE240BF8EF7E
:102E83003400F9EC7001ED6030EC125A94ED124706
:102E9300027901EEFAEFFB12285CE5087002E509FE
:102EA3007003022F29850C82850D831260A179029C
:102EB300AA08AB0912285C806DEE2403F50AEF1211
:102EC3002E59E5087002E5096033125A92E509129A
:102ED3004702E5082403FAE509340012317D700C3A
:102EE300EEFAEFFB122838E9F50E80B9AA0AAB0B0C
:102EF30012317E70317903EEFAEFFB80B78E828F49
:102F030083A3E064FE7004A3E064FF700A0A0A0A64
:102F1300AB0B12317E700CEEFAEFFB122838E9F599
:102F23000E8003750E00A90E7F07020D0974F712B8
:102F33000A5D90033212470CEA7001EB6031EA75C7
:102F4300F00BA4FAACF075F00BEBA42CFBEAFEEB50
:102F5300FF121E8490033412470C900334E0700276
:102F6300A3E06012EEFCEFFD7900121DE8800790EC
:102F73000334E4F0A3F0023D23125E66EC75F00B1C
:102F8300A4FC22E875F00BA4F8AAF075F00BE9A4F1
:102F93002AF9900334E02822EE98EF9922C082C0E8
:102FA30083EC7001ED600512268E80097C087D009C
:102FB3007900121DE80249FB74F6120A5D7900EAF2
:102FC3007001EB60147C008C081265F060047901D9
:102FD3007C080CECC3940840EE0249B374F7120A60
:102FE3005D74F31210F7ECFEEDFFE485188285198A
:102FF30083F074011213281242E61227607403123D
:103003001328AC82AD83EEFAEFFB12280EEEFAEF33
:10301300FB122808023D1E74F7120A5D74F31210A6
:10302300F7ECFEEDFFE4851882851983F0EAFCEBEB
:10303300FD740312132812431B7401121328125E2A
:103043003D12499574FE68700374FF696004790149
:1030530080027900023D1E74F7120A5DEAFEEBFF5F
:103063001230A870101230B364FFFC8A828B83E0A5
:103073005CF01227240245D374F7120A5DEAFEEBD3
:10308300FF7508008E828F83E060171230A87012DC
:103093001230B3FC8A828B83E05C7006E04CF01242
:1030A30027240245D3121D28E9F508740165082277
:1030B300EE1248D8124D2F122F86FAA3E039FB8E59
:1030C300828F83E02274F0120A5D8A088B09EA2456
:1030D30003FEEB3400FF7C007D000A0A0AFB122882
:1030E3000EE508240BF50CE50912609C79008508B0
:1030F30082850983A385820A85830BE064FE7004BD
:10310300A3E064FF6065890889098054E50875F0C8
:103113000BA4FAACF075F00BE50912318D603E8516
:103123000A82850B83126CF4A3E06C7003A3E06D39
:10313300702BEA2403F50EEB3400F50F12317A708D
:103143000BAC0EAD0FEEFAEFFB12280E850C828549
:103153000D83125F7179019003321242AE12499BC3
:10316300123185E5089AE5099B40A18005740D128B
:1031730010657F08020D090A0A0AFB122808E96490
:1031830001229003321253C1C322A42CFB900334B7
:10319300E02AFAA3E03BFB8A828B83E0540F22747C
:1031A300EF120A5D8A828B83A385820E85830F12B9
:1031B30060A1EA240BF508EB1249A385088212608B
:1031C3009F751000EA2403F50CEB3400F50D123162
:1031D3007A7065750A00750B008055E50A75F00B6A
:1031E300A4F8AAF075F00BE50B123242540F603DC0
:1031F300AE82AF83EE2403FCEF3400FDAA0CAB0DCB
:10320300122688E9640170258E828F83A31248E217
:10321300850E82850F83E8F0A3E9123247E50AF0B1
:10322300A3E50BF075100190033212633F122E5188
:103233009003321241A140A3A9107F09020D091284
:1032430032D1E02212324B22F08508828509832293
:1032530074F3120A5DEAFEEBFF8E828F83A38582ED
:103263000A85830B1260A1EE2403F508EF1249A32C
:103273007C007D000A0A0AFB12280EEEFAEFFB120D
:103283001D28E9F50C7401650C703EEE125A94EF9B
:103293001232DB75F00BA4F8AAF075F00BE91232C9
:1032A300D1A31253B7850A82850B8312470CE824F6
:1032B30003FEE93400FFEEFAEF12317D700BEEFCF2
:1032C300EFFDAA08AB0912280EA90C023DC0122F6C
:1032D30092F8A3E0390252C81248DD124D2FE822BA
:1032E30074EE120A5D74E61210F7EAFEEBFFEE24A9
:1032F3000BF50AEF122E59850A8212609F750E0193
:10330300750800750900751000751100E4851882B1
:10331300851983F0EE2403FCEF3400FD74031213CC
:1033230028AA82AB8312280E8E828F83A385820CF8
:1033330085830D851882851983AA82AB83121DA00C
:10334300E964017034740B1213281248E2850A826F
:10335300850B8312499574011213281248E2850CD8
:1033630082850D83E0687003A3E069605585188248
:10337300851983858208858309740D121328E41245
:103383005F62F8A3E0F9740E121328124995740DC5
:10339300121328AA82AB83122760E96401700B74AD
:1033A3000D1213288582108583117810121052ACE8
:1033B30008AD09EEFAEFFB12281A7402121065E940
:1033C300F50EEEFAEFFB122766A90E741A025C33B0
:1033D300C082C083780079008003123B5412318588
:1033E300E89AE99B500DE8FAE9FB1233FB70EB799D
:1033F30000800279010249FBEA75F00BA4FAACF0F4
:1034030075F00BEBA42CFB900334126E7CF583E078
:10341300540F22C082C083902D0E123CBEEC75F077
:1034230012A4FCAAF075F012EDA42AFD79FF7AE646
:103433007B14121DE80249FB74F6120A5D7E007FBD
:10344300007C007D0080348C088D09E50875F0123E
:10345300A4F508ABF075F012E509A42BF509E5080E
:1034630024EAF582E5093414F583E0FBC3994008A7
:10347300EAC39B4003123F2912394F1238E7C3ECCA
:103483009508ED950940C0EEFAEFFB0249B3C082FF
:10349300C083780079008003123B54902D0E123EB6
:1034A3009E500912385964FF70EE80047A007B0045
:1034B3000249FB74F0120A5D74F31210F78A0A8B47
:1034C3000BECFEEDFF890CEE7001EF6011EEFAEFED
:1034D300FB12137A8A088B09EA7001EB70501213FE
:1034E300508A088B09EA7001EB60437401851882E6
:1034F300851983F0121328E50AF0A3E50BF0EEFC1F
:10350300EFFD7403121328123648740B121328129A
:1035130048E212498DE4850882850983A3A3A3A306
:10352300A3A3125E5EAA0AAB0B12188A800BE508EE
:103533007002E50970030235C07A00E50C6007C329
:10354300940550027A04850882850983125F90A34B
:10355300A3A3E50CF0EA850882850983A3A3A3A3AB
:10356300A3F07402850882850983A3A3A3A3A3A35D
:10357300A3A3F07401850882850983A3A3A3A3A34E
:10358300A3A3A31235D4A3A3A3F0E5082410F582C3
:10359300E509125E37E4F01235D4F0125A92E509C8
:1035A300125E37E4F0908207780C1212C6E5082405
:1035B3000CF582E509125E37780C1212A81237BA9D
:1035C3004005E4901A41F0121764AA08AB090231CE
:1035D30070A31248F1025E5074F2120A5D74F31282
:1035E30010F78A088B09ECFEEDFF750A00EEFAEF7F
:1035F300FB12137A8A0C8B0DA80CA90DE87001E954
:10360300603E88828983E065087004A3E0650960F1
:103613002F88828983A3A3A3A3E0C3940550211217
:103623005F6D7401851882851983F0121328125F68
:1036330071EEFCEFFD7403121328123648750A016C
:10364300A90A0246721243221213382274F6120A8E
:103653005D1236B37002E5836010A3A3A3A3E060F9
:1036630009C3940550047901800279000249B374B7
:10367300F6120A5D1236B37002E5836010A3A3A3AA
:10368300A3E06009C3940350047901800279000226
:1036930049B374F6120A5D1236B37002E583600B08
:1036A300A3A3A3A3E070047901800279000249B3C4
:1036B3001213748A828B83E58222C082C083EAFC60
:1036C300EBFD7A007B001213800249FBC082C083AA
:1036D3007C007D0080F074F2120A5D74F31210F71F
:1036E3008A0C8B0D8C0A8D0B7E007F008021123A91
:1036F3003912132812375160137403121328AC8242
:10370300AD83AA0CAB0D122688E97035123F2990C0
:103713002D0E123F39503012390360F0E50C700260
:10372300E50D70CA74FF650A700474FF650B60DCF5
:10373300850882850983E0650A7004A3E0650B7040
:10374300CBAA08AB0980047A007B00024672E8F03A
:10375300A3E9124346121332E92274F4120A5D7488
:10376300F31210F775080012137A8A0A8B0BAE0A4C
:10377300AF0BEE7001EF602A7401851882851983FF
:1037830012491AF8A3E0F9740B12132812433E12DC
:1037930027787C127D0079FFEEFAEFFB121DE875A6
:1037A30008011237BA50097401901A41F0121764D4
:1037B300A908740D024A3C7A04790012134A902D29
:1037C3000E123F3FEA98EB992274F7120A5DE9FE65
:1037D30074FE6A700374FF6B780079007005804D86
:1037E300123B54902D0E123B475042E8FCE9FDEC8E
:1037F30075F012A4FCAFF075F012EDA42FFDEC24CC
:10380300E6FCED3414FD8C828D83A3A3A3A3E064B3
:10381300FF60CD8C828D83E06A7003A3E06B70C080
:103823008008EC6005C39405401C123B54902D0E98
:10383300123E9E501A123859FCEE70E674016C6009
:103843000574036C70E48A828B831253B780047A05
:10385300FE7BFF023D23E8FAE9FBEA75F012A4FAC6
:10386300ACF075F012EBA42C12396E2212138C02F9
:1038730049FBC082C083790180F274F0120A5D8A29
:103883000A8B0B7A04790112134A8A0CEA7001EB52
:103893006040EAC333FAEB33FB121E848A088B09B8
:1038A300AE08AF09EE7001EF60237AFE7BFF1213BF
:1038B3009274FE6A700374FF6B601B85088285092E
:1038C3008312470CE508240212499F80E1750C001E
:1038D30080047E007F00850A82850B83E50C124EEF
:1038E300F6023175902D0E1238EE22E493F508742A
:1038F3000193F50922902D0EE493FA740193FB22B0
:10390300EEF8EFF9E875F012A4F8AAF075F012E9F1
:10391300123A1EA3A3A3A3E064FF2274F7120A5D65
:103923007C007D0080041912394F123946500D1264
:103933003958C3940550F0E970EC80047A007B0099
:10394300023D231238F8C3EC9AED9B22EC24010CC0
:10395300ED3400FD22ECFAEDFBEA75F012A4FAAEA9
:10396300F075F012EBA42E12396E22FBEA24E6FA6C
:10397300EB3414FB8A828B830267ED74F3120A5DC6
:1039830074F31210F7750A00750B008052E50C12E0
:103993005E248E828F83125FE9E0687003A3E0697F
:1039A30060257401121328E0687003A3E0696017AF
:1039B300EE2402FCEF3400FD7403121328AA82AB39
:1039C30083122688E96007EEFAEFFB121896050CBE
:1039D300902D16E493FAE50CC39A40B1122E5112BE
:1039E3003A31E50A98E50B99502CE50A75F012A4D3
:1039F300F8AAF075F012E50B123A1EE064FF7004AA
:103A0300A3E064FF60D6123A3912132812375160CB
:103A1300CB750C0080BA740D023DBDA42AF9E824CD
:103A2300E6F508E93414F509850882F58322902D1B
:103A33000EE4123F402274018518828519831248CF
:103A4300F1124D2F740B2274F6120A5D12404312C9
:103A53003CBEEC8508F0A4CCAAF08509F0A42AFAB0
:103A63008508F0EDA42AFD79FF7AFD7B19121DE884
:103A730090033774BCF0A37413F090033974B6F059
:103A8300A37413F090033B74E0F0A37413F090035A
:103A93003D74F2F0A37413F090033F74F8F0A37431
:103AA30013F090034174FEF0A37413F09003437476
:103AB30004F0A37414F0E4900336F00249B3C08217
:103AC300C083780079008003123B54123E9B50243C
:103AD300E8FAE9FBEA75F00EA4FAACF075F00EEB28
:103AE300A42CFBEA24FDF582EB12453570DAAA8299
:103AF300AB8380047A007B000249FB74F7120A5DF2
:103B03007A007B0078007900802FE8FCE9FDEC75F2
:103B1300F00EA4FCAEF075F00EEDA42EFDEC24FD2A
:103B2300F582ED124535600EA3A3A3A3A3E0FCEA3F
:103B33002CFAEB3400FB123B54902D0C123B474004
:103B4300C9023D23E493FC740193FDC3E89CE99D02
:103B530022E8240108E93400F92274EC120A5D8991
:103B6300108A088B098C0D8D0C74141213281263A0
:103B73003F7E007F0012141CAA08AB091214228A8C
:103B83000E8B0F850882850983A3A3A3A3A3A3A3F5
:103B9300A3E0640170077508018E0980058E08850E
:103BA3000D0974FE650E700474FF650F7003023C0B
:103BB300A18E0D8002050D850D12902D0C126B3612
:103BC3005071E50D75F00EA424FDFEE5F0123FFCE7
:103BD300651070E1A3E0650870DB8E828F83A3A379
:103BE300E0650E7004A3E0650F70CA8E828F83A315
:103BF300A3A3A3E0650970BD750D00E50DC3950C86
:103C03004003023CA1E50DC333F8E433F9E50A2888
:103C1300F508E50B39F5098508821269361213C8D0
:103C2300E9700C8508828509831269381213D4055B
:103C33000D80C81213B08A128B13AE12AF13EE703D
:103C430001EF605A8E828F83E510F0A3E5081249D5
:103C53007EA3E50EF0A3E50F12497EA3A3A3E50916
:103C6300F0902D1EE493C3950C5004E493F50C8E51
:103C7300828F83A3A3A3A3A3E50CF0850A08850B76
:103C830009750A00780812104EE50CC333FCE433BF
:103C9300FDEE2406FAEF3400125F89121065EEFA86
:103CA300EFFB7F0C020D09C082C083123CBB79FF7E
:103CB300121DE879010249FB902D0AE493FC74017B
:103CC30093FD2274F7120A5DEA7001EB60498A8260
:103CD3008B83A3A3A3A3A3A3E5827002E583603729
:103CE3007E0080010E8A828B83A3A3A3A3A3E0FF9C
:103CF300EEC39F5022EEC333F8E433F9EA28F5828A
:103D0300EB39F583A3A3A3A3A3A3E06C7003A3E000
:103D13006D70D17901800279008005740D121065F0
:103D23007F01020D0974F3120A5DEA2405F8EB34EE
:103D330000F9E8FEE9FFEA7001EB606F8E828F8382
:103D4300E06073EA240608EB3400F9E0F50B750A2A
:103D530000800B8E828F83E014F0605A050AE50A17
:103D6300C3950B5046E50AC333F508E433F509EA76
:103D73002508F508EB3509F50974062508F508E467
:103D83003509F509850882F583E06C7003A3E06DBE
:103D930060C1850882850983E0F508A3E0125F6BA3
:103DA300E824020808E93400F980B18E828F83E0A9
:103DB300600479018002790080031210657F050297
:103DC3000D0974F7120A5DEA7001EB6037126CE2B9
:103DD300C0E0902D1EE493FED0E0C39E502688825F
:103DE3008983E0C333FEE433FFEA2EF582EB3FF52C
:103DF30083A3A3A3A3A3A3ECF0A3ED1267F304F09F
:103E0300790180027900023D2374F2120A5D890868
:103E13008C09123F48700512633B8003123F2174E3
:103E2300FE650A700474FF650B70067A007B0080E0
:103E3300647800790080187401650C700F8C828D92
:103E430083E0650A7004A3E0650B6049123B5412DA
:103E53003E9B50D71242CA8A828B83E0650870EC7E
:103E6300A3E0F50CEA2402FCEB3400FD8E828F8381
:103E7300E0640160C2E50C70D38C828D83E0650A37
:103E83007004A3E0650B70C48A828B83A3A3A3A3EE
:103E9300E0650970B7024677902D0C1238FBC3E832
:103EA3009AE99B2274F2120A5DEA2408F8EB12499C
:103EB300116401700512633B8003123F2174FE6598
:103EC3000A700474FF650B60527E007F008047EE2A
:103ED300F8EFF9E875F00EA4F8AAF075F00EE9A46E
:103EE3002AF9E824FDFAE93419FB85088285098358
:103EF300E06401701B8A828B83A3E0640170148ADF
:103F0300828B83A3A3E0650A7004A3E0650B7003AF
:103F13001213C2123F29123F3640B40246771214DD
:103F23000A8A0A8B0B22123F2EFF22EE24010EEF88
:103F3300340022902D0C123F3F022F9BE493F87420
:103F43000193F9C322EA2408F8EB126088E06401C4
:103F53002274F3120A5D890C8A0A8B0B75080075AB
:103F630009007E007F00801B12427B650C7011AC40
:103F73000AAD0BAA82AB831213C8E9600312499BF3
:103F8300123F29123F3640E0AA08AB09023DC07434
:103F9300F1120A5D890D8A0A8B0B8C0E750C007564
:103FA30008007509008005050C12499B902D0C1221
:103FB3003A34E50898E509995038E50875F00EA4F8
:103FC300F8AAF075F00EE509A42AF9E824FDFEE944
:103FD300123FFC650D70D2AC0AAD0BEEFAEFFB128B
:103FE30013C8E960C4E50CC3950E40BBEEFAEFFBC2
:103FF30080047A007B00022F2B3419FF0230C27435
:10400300F6120A5D7508007509007808121052123D
:104013004043124258E9A42AF975832D75820AE4B4
:104023009328FCA3E49339FD7A417B00121EEA74C2
:1040330002121065E9FE60031213F8EEF90249B3A8
:10404300902D0A1238EE902D0C2274F6120A5D742C
:10405300FE1210F712407112105275080275090012
:1040630078081210527C007D007A410249A8851815
:1040730082851983E4F0A31242BE858208858309F1
:1040830078082274F4120A5D74E71210F77E007F39
:10409300008518828519838582088583097808122B
:1040A30010527508028E0978081210527C007D00A8
:1040B3007A411241AC121065E960030241908E0A05
:1040C3008E0B80587402121328AC82AD83740D12C8
:1040D30013281253B7121410740A121328E060390C
:1040E30074111213288582088583097808121052E7
:1040F3007412121328E0FD7411121328E0FC7404E7
:10410300121328AA82AB83740D121328E0F9121339
:10411300BC7402121065123F29122E518518828534
:1041230019831241A15066740B12132885820885E6
:1041330083097808121052902D0A120E6C902D0AE2
:10414300124199E8850AF0A4C8AAF0850BF0A42AC5
:10415300FA850AF012426D1241AC121065E970B98A
:10416300740A121328E4F0740C121328E07003028B
:1041730040C7740A1213287401F0740D1213281225
:1041830048E274021213281249950240E3EEFAEF53
:10419300FB7419024A3CE493F8740193F922124D1B
:1041A3002FC3E50A98E50B99227B00121EFC7404C9
:1041B3002274F5120A5D74F01210F78518828519BE
:1041C30083E4F0A3F0FE805A12427B64FF605085C3
:1041D3008208858309750A00780812104E123CBBC9
:1041E3007405121328AA82AB83125F8A12106574B6
:1041F30002121328858208858309780812105290C9
:104203002D0A120E6C74041213281242AE902D0A5A
:1042130012425812426D1242B612106512429E1299
:104223003F2EFF123F3640A0851882851983858271
:1042330008858309780812105275080275090078F9
:10424300081210527C007D007A411242B6121065AA
:104253007410024511124199E88508F0A4C8AAF028
:104263008509F0A42AFA8508F022E9A42AF9740240
:1042730028FCE439FD7A4122124280E022EEF8EF75
:10428300F9E875F00EA4F8AAF075F00EE9A42AF97E
:10429300E824FDF582E93419F5832285188285190E
:1042A30083E02401F0A3E03400F022E0F508A3E06A
:1042B300F509227B00121EF67404221242C222F078
:1042C30085188285198322E8FAE9FBEA75F00EA4C2
:1042D300FAACF075F00EEBA42CFBEA24FDFAEB34F8
:1042E30019FB22EAF0A3EB12434622C082C0837477
:1042F300F31210F71244AF6402700E124334121318
:104303002812433E122760800CEAFCEBFD74031273
:10431300132812431B0249F0124322121DA022AAA2
:1043230082AB8312280E851882851983AA82AB83F8
:10433300228A828B83124D2F740122E8F0A3E912A3
:1043430043462212434A221242C280E074F7120A01
:104353005D74F31210F7ECFEEDFF7404851882858B
:104363001983F0740B121328EAF0A3EB123755F5F7
:1043730008601D74038E828F83A3A3A3A3A3A3A3A7
:10438300A3F0121328AC82AD83EEFAEFFB12268E54
:10439300A908023D1EC082C08374F31210F774048F
:1043A300851882851983F0740B1213281242E612C2
:1043B300133274010249F21253C1740D2274F612BE
:1043C3000A5D74F31210F7900336E0706E7404857F
:1043D3001882851983F0900375124338121328123B
:1043E3004995121740EAFCEBFD74031213281236A9
:1043F3004812174C8A088B09A808A90974011213DB
:1044030028E0687003A3E069602B74FE687003748E
:10441300FF69602174011213281249957403121362
:1044230028AA82AB83121752851882851983AA8220
:10443300AB831213387401900336F0740D0249B044
:10444300C082C08374F31210F71244AFFC74026C81
:10445300701E124334121328E8F0A3E9125C9E7015
:1044630048851882851983AA82AB83121338803951
:1044730074036C7011EAFCEBFD74031213281243EE
:104483001BE9702580DB74016C70128A828B8312A6
:1044930048E2740B121328E8F0A3E9800B740B12A3
:1044A300132874FEF0A374FFF00249F07404851816
:1044B30082851983F08A828B83A3A3A3A30267ED6A
:1044C30074F5120A5D78007900880888097C007DFC
:1044D30000800312394F902D0CE493FE740193FF77
:1044E300C3EC9EED9F5021ECFEED12451960E4AE46
:1044F30008AF0974012EF508E43FF509EA6E70026E
:10450300EB6F70CFA882A983E8FAE9FB800312104E
:10451300657F03020D09FFEE75F00EA4FE85F00A18
:1045230075F00EEFA4250AFFEE24FDF582EF124588
:1045330035223419F583E064FF22C082C0839003DF
:104543004A7456F0A37416F090034C7450F0A3749D
:1045530016F09003507488F0A37414F00249FB74AE
:10456300F7120A5DEAFEEBFF900384E0FA74086A2F
:10457300601974046A60148E828F83E0640170464C
:104583001248D31254D5E06406703B8E828F83A306
:10459300A31248E274FE68700374FF6960289003F5
:1045A30075E0687003A3E069700BEE2415F582EFE4
:1045B3001265F6600AEEFA121704E9F508800AEEAE
:1045C300FA12170A80F47508C2EEFAEFFB121E8A7C
:1045D300A908023D2374F2120A5D8A088B098A82B4
:1045E3008B83A385820A85830B8A828B83E0F8857C
:1045F3000A82850B83E028FAE43400FB121E848AC6
:104603000C8B0DAE0CAF0DEE7001EF605C85088274
:10461300850983E0FC7D007900121DE88E828F837B
:10462300A3A31260A11217468E828F83A3A3A3A311
:1046330012470C850882850983E0F8EE28F8EF34E9
:1046430000F91248D3124D12C0E0125E31D0E0F0EF
:10465300121758EE240E125E34E91248EDE0C0E062
:10466300EE2411125E34D0E0F0EEFAEFFB80057415
:104673000D1210657F06020D0974F4120A5D74EBC6
:104683001210F7EAFEEBFF900346E07002A3E0701E
:10469300677A077B00121E8490034612470C90032F
:1046A30046E07002A3E0604C900346125BDE8F830A
:1046B3008E827407120FB18E828F8378081212C60E
:1046C30085188285198378081212A88E828F83A396
:1046D300A3A3A3E0C0E07405121328D0E01267EA95
:1046E300C0E07404121328D0E0F0740712132812E8
:1046F300484C80067910800279017415024A3C12F5
:1047030048DD1253C188828983EAF0A3EBF022C00B
:1047130082C083900346E07002A3E06010900346DA
:104723001253B7121E8A900346E4F0A3F0121674D4
:104733001218360249FB74F3120A5D74EB1210F778
:10474300ECFEEDFF742212132878081212C67426A9
:10475300121328E0FC7427121328E0FD74281213A7
:1047630028E0F50C740F6C7005740F6D6012901ACD
:10477300BAE06402700579C1024847ECC39D40F674
:1047830090038578081212A8E990038BF0EC90034C
:1047930089F0ED90038AF0E50C90038CF074FF6AC6
:1047A300700374FF6B701F901AC7E064FF7004A35B
:1047B300E064FF7005121DFA800C901AC71248E6D8
:1047C300E8F0A3E98007900382EAF0A3EBF0EE7030
:1047D30001EF6017EEFAEFFB1218F6E96401700BB4
:1047E300EEFCEFFD7A967B0312268E900375E4F0C0
:1047F300A3F0900378F0A3F0900395F0901ABAE039
:104803006402700A740F900389F090038AF07405B0
:10481300900384F07404121328E4F090038578085D
:104823001212C685188285198378081212A890037C
:104833008BE0C0E07405121328D0E0F07407121364
:104843002812484C7415023DBDE41248512212430C
:104853004A1226B822E0F9121F3222C082C0839086
:104863000345E070031220E81214580249FBC0828A
:10487300C083900345E07007E4901A40F0803174E0
:1048830001901A40F0900345E064FF60237C41E00F
:10489300C394415002E0FCECFAE0C39AF0EC75F0EB
:1048A300E8A4CCAAF075F003A42AFD7A801248BFCD
:1048B3007A407B1A79411226A60249FB7B009003BA
:1048C300D0E0F9121F2622F582EF1248DD7401228F
:1048D300EE1248D822240BF582EF3400F58322121E
:1048E3004D2F22124D2F900382221248F122F08580
:1048F3000882850983A3A322F8A3E0F922C082C01A
:1049030083EB90038CF01216620249FBF8EF124B13
:10491300288882F583E022124982A3E02274F712E9
:104923000A5D74F81210F7EAFEEBFF790090038436
:10493300E06408704185188285198374FD1260A3B1
:10494300121740740212132812470C74051213280D
:10495300E412497EE0C0E07404121328D0E0124947
:1049630089C0E07406121328D0E0F07407121328EC
:10497300124D231217827408023D2012498222F03D
:104983008E828F83A322F00230C285088285098339
:10499300A3A3E8F0A3E9F022E5082401F508E5095B
:1049A3003400F509221242B6121065740212106522
:1049B3007F02020D09C082C0839003567412F0A3D4
:1049C3007415F09003FC74DCF0A37417F090035A91
:1049D3007442F0A37415F090035C7412F0A3741581
:1049E300F090035E7448F0A37415F0800B740B12FF
:1049F30013281243BA121065D083D082020CD574E7
:104A0300F4120A5D74F91210F78A088B098C0A8D67
:104A13000B85188285198378081212A8740412135F
:104A230028E9F07405121328E4F07406121328120F
:104A33004D23121440740780001210657F04020D89
:104A43000974F0120A5D8A828B83126193EE7001FE
:104A5300EF7003024B25EA2402F8EB124B28900374
:104A630012E07002A3E0601388828983E0F9EEFA12
:104A7300EFFB9003121254D51228DCEE2406F8EF54
:104A83003400F9880A890BEE2409080808EF34007A
:104A9300F9880C890D8882F583E06402704B850ADE
:104AA30082850B83E054026052850882850983E086
:104AB30064E96047EE240A08EF126CE7700A901A63
:104AC300BCE00488828983F0E014F07404850C82CE
:104AD300850D83F0901ABD125E4BE8F0A3E9126CCA
:104AE300FC7001EB70031267CF850C82850D83E0A8
:104AF300FA74026A600574066A7027850A82850B58
:104B030083E0A2E0501C850882850983E0F9EEFA70
:104B1300EFFB1227C6850A82850B83E054FEF0A3C0
:104B2300E0F00231753400F9880889092274EC1227
:104B33000A5D74DD1210F7EAFEEBFF8C128D13741D
:104B430037121328780C1212C6751000740512134D
:104B530028AC82AD83122748EE240BF508EF1249E7
:104B6300A37405121328E0A2E55019751001AC8255
:104B7300AD838508828509831253B71227D2E96072
:104B830003024CCB7405121328E0A2E650227406EC
:104B9300121328E0540370187405121328E0540C00
:104BA300FA740C6A600A74086A600575110180035F
:104BB3007511007405121328E05403FA74026A7025
:104BC30013AC82AD838508828509831253B71227FC
:104BD30036024CCBEE2406F50AEF122E5974016A05
:104BE3007037E5116003124D017405121328A88272
:104BF300A9837403121328E8F0A3E9124D2885183A
:104C030082851983124D12C0E07402121328D0E07A
:104C1300124D241228B0024CCBEA6003024CCB9015
:104C2300036CE06401700C850A82850B83E07003DA
:104C3300024CCB74221213287402124D28741A12D8
:104C43001328124995E51160087405121328124DB3
:104C5300017405121328E0540C64047073EE240FDE
:104C6300F582EF1265F6C0E07417121328D0E0F056
:104C7300900314E07002A3E0604E1217468A088B7B
:104C830009A808A909741A121328E0687003A3E09D
:104C9300697035780C12104AE510F508780812107F
:104CA300567812121052A911740C121328AC82AD4B
:104CB300837421121328AA82AB839003141254D550
:104CC3001228DC74071210657423121065023CA5C8
:104CD300780C12104A7812121052900382120E0EA0
:104CE300A9107422121328AC82AD83740D121328F9
:104CF300AA82AB831227BA740812106580CAAC82E9
:104D0300AD838508828509831253C112274222E8A5
:104D1300F0A3E9124D1A22F0850A82850B83E02263
:104D2300E41243462212324B124D2F22E00248FB7B
:104D3300C082C083121FDA0249FBC082C083121FE4
:104D4300E00249FBC082C083121FE60249FBC08216
:104D5300C083121FEC0249FB74F7120A5D74091237
:104D63001328E0F5087808121056121FF874010290
:104D73003D20C082C0831220040249FBC082C0834D
:104D830012200A0249FBC082C0831220100249FB91
:104D930074F7120A5DEAFEEBFF7401697010790083
:104DA3001215847C1E7900EEFAEFFB121500023D0A
:104DB3002374F4120A5D74F91210F78A088B098CB4
:104DC3000A8D0B74131213281253B790116EE070EF
:104DD30002A3E06027E9851882851983F074011224
:104DE300132878081212A8EAF8EBF97405121328AD
:104DF30012433E90116E1254D51228DC024A38C079
:104E030082C0831220400249FB74F7120A5D901A94
:104E130043E0F97F00800B125049540D6401700187
:104E2300190F1250065003E970ED023D2374F71277
:104E33000A5D901A44E0F97F00800B125049548DAB
:104E430064817001190F1250065003E970ED023DA1
:104E53002374F3120A5D890CE975F006A4F8A9F02E
:104E6300740C28F508E439F509EA2508FAE435094C
:104E7300FB121E848A0A8B0BAE0AAF0BEE7001EF96
:104E83006025AC08AD097900121DE81248D3E50C82
:104E9300F0EE2508F8EF3509F98E828F83A3A3A3DB
:104EA300A3A3A3A3124993EEFAEFFB023DC074F64A
:104EB300120A5DEAFEEBFF1214DC901A42E0FAE9F3
:104EC300C39A40099003521253B71214E2EE24021C
:104ED300F8EF124B28900354E088828983F0900303
:104EE30054E004124EF61214E8850882850983E023
:104EF30002403FF0EEFAEFFB22C082C083790090BC
:104F030003528001091253B78A828B83E5827002B0
:104F1300E58370F00249FB74F7120A5DEAFEEBFFCA
:104F2300EE7001EF605E900352E07002A3E0605404
:104F33009003521257687A007B00800FAA82AB83DA
:104F4300125768E5827002E5836039EE658270036B
:104F5300EF658370E78E828F831248E290035212CB
:104F63005BDEEE6C7002EF6D700590035280048A75
:104F7300828B83124995EEFAEFFB122880EEFAEF4B
:104F8300FB121E8A023D23C082C083900352E0F8C5
:104F9300A3E08003ECF8EDF9E87001E96009125B26
:104FA300DAEC7001ED70ED8A828B83E4F0A3F0E814
:104FB3007001E96006888289838003900352124757
:104FC3000C0249FB74F7120A5D90035280048A8233
:104FD3008B831260977001EB60227F0080010F12B8
:104FE300500650EAEF75F006A4FCADF0EA2CFCEB9A
:104FF3003DFD741012505D6970E480047A007B00FB
:10500300023D2312506AFCEFC39C2274F7120A5D1F
:105013007800800108125066FDE8C39D5025E875AD
:10502300F006A4FEAFF0EA2EFEEB3FFFEE2410F5F0
:1050330082EF1265F66970DCEE2411F582EF1265DA
:10504300F64CF0023D23EF75F006A4FCADF0EA2C1C
:10505300FCEB3DFD741112505D222CF582E43DF50D
:1050630083E02212506A22EA240BF582EB3400F526
:1050730083E02274F6120A5D1215FC7A008010EAAE
:10508300125FE4125107125FEFF01252C0F00A9060
:105093002D20126B2F40E87A00801E8A08750900C4
:1050A300740378081212231265E5888289831251EA
:1050B30007A3A3A3A3A3A3F00A902D1D126B2F4054
:1050C300DA7A00801A8A08750900740378081212C4
:1050D30023E5082488F582E509341912609F0A1232
:1050E3006B2C40E1902D10E493900360F01250F686
:1050F3000249B37CE87D037A107B009003D0E0F98A
:10510300121F2C2212510B22A374FEF0A374FFF082
:10511300E488828983A32274F0120A5D74F5121065
:10512300F78A088B09890A8C0BE9A2E050147508E9
:10513300FC7509FFA2E15005D2E40251E4D2E30277
:1051430051E41215DE8A0C8B0DA80CA90D90037582
:10515300E0687003A3E069700579000252BBAC0AF2
:105163007902AA08AB091215D8E960EDE50AF50C36
:10517300780C12105679027CFE7DFFAA08AB091247
:1051830058D6121065E960030252B9E50AC2E5F583
:105193000A9003C2E0704CE50AA2E640467403128B
:1051A3001328AC82AD83AA08AB09122802E9702D3B
:1051B3001253C7F8EBF9EA7001EB6027E82402FE0B
:1051C300E93400FF0A0AFB122808E96016EEFCEF37
:1051D300FD7403121328AA82AB8312268EE50AD22A
:1051E300E5F50A900355E0F50C900375E0F50EA381
:1051F300E0F50F780E1210527D017C00900355E00C
:10520300F9AA0EAB0F1215907402121065E9FA9009
:105213000355E004F0EA60030252B9E50AA2E5503F
:10522300047A0E80027A06740112132812634E8ADE
:105233000E8B0FAE0EAF0FEE7001EF60751252CEF4
:105243001248D412433888828983F07478550A123D
:1052530052C0A3A3E50C1265FAE508F0E5098882BC
:105263008983A3A3A3A3F0E488828983A3A3A3A32D
:10527300A3F0E50AA2E550147403121328AC82AD1F
:1052830083E82406FAE93400FB12268E8E828F838C
:10529300A3A374FD1260A3E50B600EC3941E500913
:1052A300EE2413125E34E50BF0EEFAEFFB12143426
:1052B30080067910800279C7740B023172A31252EF
:1052C300C522F08001F98882898322EE24171248CF
:1052D300DA7401F0121740EE241A1248DAEAF0A346
:1052E300EBF0EE22C082C08390120FE06401901AAB
:1052F300BB7006E0FC79018004E0FC79037A007B53
:10530300001215000249FB74F4120A5D8A088B0926
:10531300E9FE1217B8E960067AFF7BFF8078901ADE
:10532300BAE064027063790012539CEA7001EB6087
:1053330042126CE2FC74016C7022900374E08A8266
:105343008B83A3A3A3A3F08A828B83A3A31253B754
:1053530074FE6A700374FF6B6010803A74036C60B0
:105363001A74046C70047AFE80B088828983E064C6
:105373000270089003C1E06402700E1253C77001FB
:10538300EB6006AA08AB09800DAA08AB0990035687
:105393001254D51228DC024A3FAA08AB091253A4BF
:1053A300221215DEEEF91215D222EA240BF582EB56
:1053B3003400F5831253C122850E82850F83E0FAF0
:1053C300A3E0FB221253CF121878EA22900382E063
:1053D300FCA3E0FDAA08AB092274F7120A5DEAFEFA
:1053E300EBFF121362E9700AEEFAEFFB12136EE998
:1053F3006006EEFAEFFB80047AFE7BFF023D237426
:10540300F2120A5D8A088B098C0A8D0BE9FE7F0074
:105413001217B8E9790060030254CBAA08AB09124A
:105423006E6D7002E5836017A3A3A3A3A3E0FA74D0
:10543300026A704F9003C1E0640270030254C9AA68
:1054430008AB0990035C1254D51228DC1213748A3A
:105453000C8B0DA80CA90DE87001E96069E824051F
:10546300F582E91265F6A2E0505C750C01A2E150E9
:105473001C7901AC08AD09AA0AAB0B121530E9700F
:105483000F804374036A703E750C028003D2E1F00F
:10549300900375E0650A7004A3E0650B700E7C1E33
:1054A300EEF9AA08AB091215000F801AA90CAC0873
:1054B300AD09AA0AAB0B121530E9700A0FEEF9AA6F
:1054C30008AB09121584EFF9024677EEFAEFFB9069
:1054D30003581254D922E0F8A3E0F583888222749A
:1054E300E8120A5D74F01210F78A148B158C088D7C
:1054F300097428121328E0F510A3E0F511900402B3
:10550300E07002A3E06012126E737002E58360091B
:10551300A3E070057900025747E514241DF516E54D
:10552300153400F517851682125766A3E0F50A882D
:105533008289831258B6FA88828983A3A3A3A3E03E
:10554300F9EAFEE9FFAA08AB0912158AE9FA12572C
:105553006EE02AF50B530A78E514240BF50EE515D6
:105563003400F50F78081210527D001257591210AB
:1055730065E9FA74036A609CEA70407418550A700E
:1055830003025665E50AD2E0F50AA2E45004D2E12B
:10559300F50AE50AF50D780D12105612574C121044
:1055A30065E9701785108285118374FFF0A3F08578
:1055B3000E82850F831253B7121FFE851082851149
:1055C30083E064FF7004A3E064FF60399003C1E0EB
:1055D30064027003025517850E82850F83E0FAA3D8
:1055E300E01254D11228DCEA65087003EB65096008
:1055F300030255171254CE1228DC851082851183BD
:10560300EAF0A3EBF078081210527D0112575912F9
:105613001065A90AEEFAEFFB1215DE8A088B09A8BA
:1056230008A909900375E0687003A3E069600302A9
:10563300573EEEFAEFFB1236B37002E5836064A3C4
:10564300A3A3A3E0FA74016A600574026A70548527
:105653001882851983AC82AD83EEFAEFFB12280220
:10566300805590036EE0600FE50AF50D780D12107A
:105673005612574C121065E50AF50D780D121056A7
:1056830079027CFE7DFFEEFAEFFB1258D61210650D
:10569300E960030255BE85108285118374FFF0A370
:1056A300025607121740EAFCEBFD85188285198321
:1056B300AA82AB8312268E851482851583A3A3A3A6
:1056C300A3A3A3A3A3E06401701AE5142415F58230
:1056D300E515125E37125BDE7408121328AA82AB3B
:1056E3008312268E8516828517831254D5A3E04430
:1056F30030F50878081210567401121328858208B1
:105703008583097808121052740B121328858208B6
:105713008583097808121052E50CF50878081210F1
:10572300567900EEFCEFFD850E82850F831253B789
:1057330012152A740612106502551712576EE50BDF
:10574300F01217587410026B0D7901AC08AD0912F1
:1057530053BB1258D622AC0BA90C1253BB12159093
:10576300740222F583124D2F0252C98516828517C2
:10577300831254D9025E5074EE120A5D74F0121053
:10578300F78A108B11EA241DF50EEB3400F50F8513
:105793000E821257661258B6FC88828983A3A3A38C
:1057A300A3E0FBECFEEBFF88828983A3A3A3A3A35F
:1057B300E0FC88828983A3A3A3A3A3A3E0FAE4CA9A
:1057C300FBECF508EBF50988828983A3A3A3A3A3C4
:1057D300A3A3E0F50A88828983A3E05478F50BA29A
:1057E300E45016E82408FCE93400FD740812132879
:1057F300AA82AB8312268E7A08E50BA2E55024EA2F
:10580300F8850E82850F83E028F8A3E03400F9744D
:105813000828FCE439FD851882851983AA82AB83A5
:1058230012268EAC0AA90CEEFAEFFB121596E9FAD2
:1058330074036A6079900375E06E7003A3E06F6090
:105843005EEA7054E50BF50D780D1210561258C22E
:10585300121065E97058780B121056740112132850
:1058630085820E85830F780E121052740B12132843
:1058730085820E85830F780E121052E50CF50B7896
:105883000B121056A90AAC08AD09EEFAEFFB12157C
:105893002A7406121065801674046A701180B7E5C5
:1058A3000BF50A780A1210561258C21210657410BA
:1058B300025C33A3A3E0F50C888289830267EE7947
:1058C30001E510240BF582E5111248DD1253D212C3
:1058D30058D62212154E74012274E8120A5D74F52B
:1058E3001210F7EAFEEBFF8C088D0989127423125C
:1058F3001328E0F50F7424121328E0F516A3E0F53E
:10590300177428121328E0F50EA90F12159C8A109C
:105913008B1174011213287408F0E50EA2E45003EE
:105923007410F0E50EA2E55004E02408F085188217
:10593300851983AA82AB831217A08A0C8B0DEA7098
:1059430001EB7003025A8DEA2417F582EB1248CD5E
:10595300F0121740E50C241AF582E50D125E37129A
:10596300470CE50C2418F514E50D3400F515E50C8A
:105973002416F50AE50D122E597403121328AC826E
:10598300AD83AA10AB11122802E9601E7401850AC7
:1059930082850B83F07403121328A882A9838514CC
:1059A30082851583E8F0A3E98025E50EA2E4502063
:1059B300E5106E7003E5116F70167401850A828518
:1059C3000B83F0851482851583E516F0A3E517F0A4
:1059D300E50C125A94E50D125E3712633F7402858B
:1059E3000A82850B83F0A3E50E125A99E50FF0EEB8
:1059F300850A82850B83A3A3A3F0EF850A82850B17
:105A030083A3A3A3A3125A99A3A3A3E508F0E509CB
:105A1300850A82850B83A3A3A3A3A3A3F0AA10AB38
:105A23001112158AE92512850A82850B83A3A3A384
:105A3300A3A3A3A3F0750800E50EA2E45014AC16CB
:105A4300AD17E50A2408FAE50B3400FB12268E7520
:105A53000808E50EA2E5501C7426121328125BDE1B
:105A6300E50A2508F8E50B3400F9740828FAE43947
:105A7300FB12268E850C82850D83A3A3E510F0A36C
:105A8300E511F0AA0CAB0D121434740B026B0DE587
:105A930008240BF58222F0850A82850B83A3A322B7
:105AA30074F2120A5D8A088B09ECFEEDFF890A790C
:105AB300001215DE9003751232DE6A7002E96B7014
:105AC300047901802A750B01E865087003E965090B
:105AD3006012A90AEEFCEFFDAA08AB091217F4E95C
:105AE300F50B80097901EEFAEFFB1214B2A90B0250
:105AF300467774F5120A5D7ED07F177A10125BE247
:105B03007001EB70031250F6900360E014F0700C18
:105B1300902D10E493900360F01215EA750A00804B
