:020000040000FA
:060000000212B10207B07C
:03002B000225416A
:03003300020E7446
:030043000210F2B6
:03004B00020F6A37
:030053000207039E
:03005B00020F7918
:03006300020F8504
:03006B00020E5A28
:1000830002074C0101FF0503010300030003000302
:10009300000300030003000300030005000A00142B
:1000A3000028004F009E00000082188218821882E8
:1000B300183E1738178218FC2600000000D62500CA
:1000C3000000000C0000000C000100000E1A0000EC
:1000D30000000000AA1A0000000000000000C6048F
:1000E300FF01010100090D0000005A0DE80364003F
:1000F3006400B8010202008000000502071E020529
:100103001E0A03B80B020103320002341202020278
:1001130006123031323334353637383941424344AD
:10012300454600286E756C6C20706F696E7465723D
:1001330029003F3F3F000000807F0000803FF9021D
:100143001550B743BA510000204100E7DB2E0000F1
:10015300A04010000000080000000A000000121276
:10016300DF60461212FD603DE9687008F618F61864
:10017300F618F622748067F712019509090974804D
:1001830067F7221212FD601D1212DF70051919198B
:10019300801A12114A701F121174C37003E6673379
:1001A30019191940071818182208080874FFF618B7
:1001B300F618F618F622121174601712133C702108
:1001C30092F01213467019501720F014080808090A
:1001D3000909E7F61819E7F61819E7F61819E7F603
:1001E3002212134660E6E869701F0808E62480F6C9
:1001F30008E436F618547FB47F0CE654806007F6A3
:10020300E418F618F622181822E9C6CC08C6CD0859
:10021300C6CE08C6CFC0E0E8C0E0EAC0E0EBC0E06D
:1002230009E9F809E7FA09E7FBE6F918E6F8C3EC88
:1002330098ED99EE9AEBC2E7F5F0EFC2E795F0502F
:100243000E600CEBCFFBEACEFAE9CDF9E8CCF8EA85
:10025300A2E7D2E7FAEB33FB13F5F0EEA2E7D2E71E
:10026300FEEF33FFC5F013A2E730E601B313C5F089
:10027300C3C0E0C0F07F00C39BFB605B9418600CBD
:10028300401AD0E023F9D0E0F80203648AF0E94889
:100293006003D2F0E4AFF0FAF9F8803BEB30E40D01
:1002A30089F0EA6003D2F0E4AFF0F9CAF8EB30E387
:1002B3000D88F0EF6002D2F0AFF0E4CAC9F8EB5456
:1002C300076014FBC3EA13FAE913F9E813F8EF1311
:1002D3005002D2E0FFDBEDD0E0C0E030E739C3E409
:1002E3009FFFF5F0EC98FC42F0ED99FD42F0EE9A99
:1002F300FE42F0D0E0F9D0E0F8E5F0607AE923F9C6
:10030300EE20E742D8028067C3EF33FFEC33FCED06
:1003130033FDEE33FE80EAEC28FCED39FDEE3AFEC8
:10032300D0E023F9D0E0F84002801BC3EE13FEEDCA
:1003330013FDEC13FCEF135002D2E0FF08B80006E4
:100343007F7F74FF802EEF3350178CF020F0026014
:10035300100CBC000C0DBD00080EBE000408E860C4
:10036300DFE933E813FFEE2313FE4F4D4C8008E91A
:100373005480FFE4FEFDFCEE33EF33F47004FCFD28
:100383007E80D0E0FBD0E0FAD0E0F8D0E0CFC61812
:10039300CEC618CDC618CCC6F9221212FD700418A9
:1003A3001818221212DF700D74FFF61819F61819B7
:1003B300F61819F622E7548066F6121346700F12E8
:1003C300133C70F014F608F608F608F680D1121301
:1003D3003C700CF608F608768008E6447F80EC1241
:1003E3001177700C12114D60BFE65480F6E480BBA8
:1003F30012114D700519191980A5E869700C763F23
:1004030018768018F618F6E8F922E6CDC0E018EC65
:10041300C0E0E633CD33CDD313F6E719FCE7191962
:1004230033CC33C3947F400ECD9D502408E65480D3
:10043300F6E418F6800FF4043D14501408E6447FE4
:10044300F6187680E418F618F6D0E0FCD0E0FD222A
:10045300CCD313CCFD18E4C6CBC0E018E4C6CAC0A5
:10046300E00808ED08C633E613F618E433C675F062
:1004730003C3CA97CA09CB97CB199C40047D088054
:100483002EBD000302054616B6FF0506060816181C
:10049300C3CA33CACB33CB33CA27CA09CB37CB1929
:1004A3003CC37D08803E187D0820E75CC633C6CA7E
:1004B30033CACB33CB33DDF1D5F0EB30E77BCA97CF
:1004C300CA09CB974ACB199C406F4B7025E620E0B5
:1004D300218066187D08C3CA97CA09CB97CB199C9C
:1004E300D3C633C6CA33CACB33CB3350C9DDE7D502
:1004F300F0E1D3E4C636C608C636C608C636C60813
:10050300C636C61818188031C3CA97CA09CB97CB09
:10051300199CB34097C633C6CA33CACB33CB33DD3A
:1005230034D5F02EC6A2E0C640C8CA27CA09CB37C5
:10053300194A70BECB3CB480B90808E63308E633E9
:10054300601F181818D0E0FAD0E0FBD0E0FCD0E030
:10055300FD22187D08CA27CA09CB37CB193CD380A3
:100563008013F618E4B67F11F618B6FF0EF618C618
:100573000470D20808768080CAF618F618F680C58B
:10058300001212FD604F1212DF6012E7548066F60C
:1005930012114A701112133C703B090909F4F61841
:1005A300F618F618F622121174701512134608087D
:1005B3000860EAE6447FF618768018E4F618F62217
:1005C300121346601612133C7012E4F608F608F68E
:1005D30008E65480F609090918181822EAC0E0EB66
:1005E300C0E0ECC0E0EDC0E0E687F0A4FBACF008AF
:1005F300E687F0A42CFCE435F0FA1809E687F0A4AA
:100603002C4B60027401CA35F0FCE433FB09E68726
:10061300F0D2F7A42CCB35F0FC1908E687F0A42B15
:10062300CC35F0FBE433FD0819E687F0D2E7A42CC0
:100633004ACB35F0CD3400FC09E687F0D2E7A42D90
:10064300CC35F0FDE433FA0918E687F0D2F7A42C91
:10065300CD35F0CA3400FC08E687F0D2E7D2F7A420
:100663002ACC35F07A7E20E70B0ACB33CBCD33CDC2
:10067300CC33CC33CB3350147004ED30E00ED2F1D5
:10068300E4CD3DCDCC3CCC3B5005DA05C2F1EB5477
:100693007FC63308E63392F0FBE73309E733C39AA7
:1006A300502D2B70190C0D4C4D70151806E608C310
:1006B30033700D20F10AA2F013F6E418800B4024E6
:1006C300E4F630F002768018F618F618F68024D394
:1006D3003B14501074FFA2F013F6187680E418F65A
:1006E30018F6800FA2F013F618E63303F618ECF6AB
:1006F30018EDF6D0E0FDD0E0FCD0E0FBD0E0FA222C
:10070300C0E074F2120AC9E5A7F8E5A1F95854103C
:1007130060081220C853A1EF802AE8A2E0C0D0E904
:10072300A2E092F01211FF158182F05017906198A8
:10073300E0F8901064E0C398A2D265D0335002E889
:10074300F053A1FE7F01020B80C0E074F2120AC9CC
:100753009061A4E0F8759B00E59158540860087512
:1007630091F712210A802AE5915854106008759177
:10077300EF122110801BE8A2E0C0D0E591A2E09225
:10078300F01211FF158182F05007E0C2E0F012224F
:10079300309061A3E0F8E5E9585404600E12220694
:1007A30075E9FB906193E0A2E640F28097C0E074A4
:1007B300F2120AC99061A5E0F8E5BF585404600637
:1007C30053BFFB122248020747C3E498F8E499F9A0
:1007D30012080D8026C3E49AFAE49BFBE920E7E9BB
:1007E30012080DE498F8E499F922C3E498F8E4991F
:1007F300F912080DE498F8E499F9C3E49AFAE49B32
:10080300FB22EB20E7CFE920E7E0B90010BB0008AB
:10081300E88AF084F8AAF022E4FBC8FA22EB7022FB
:100823007B10C833C8C933C9335007C39AC3DBF23B
:1008330080069A50012ADBEAC833F4C8C933F4C9E5
:10084300FA2275F008E4C833C8C933C933C99AC951
:100853009B5004C92AC93BD5F0ECFBC833F4C8E468
:10086300C9FA221208A620F01430E72B74FFFCFB10
:10087300FA747F8022E4FCFBFA7480801AB4800847
:10088300BC00F2BB00EF800F50EBF9E4C39AFAE42B
:100893009BFBE49CFCE499C6CC18C6CB18C6CA18CB
:1008A300C6F922E4C9C608CAC608CBC6D3330308AF
:1008B300CCC63392F0C3947F402E94184019C9B923
:1008C3000704CACBCC225025C309CA33CACB33CBC6
:1008D300CC33CC33D9F422F4600DC9CCC313CB137E
:1008E300CBCA13CAD9F6CC22E4FCFBFA2214FCFBD4
:1008F300FA22080808EAC0E0EBC0E086F0E7A4FAB1
:10090300180986F0E7A42AFA180986F0E7A42AFA58
:10091300180986F0E7A42AFA1986F0E7A4FBE5F0A4
:100923002AFA190886F0E7A42BFBE5F03AFA19082E
:1009330086F0E7A42BFBE5F03AFA18180986F0E7EE
:10094300A4C5F02BFBE43AFA1908E7C5F0C6A426C0
:10095300F6E5F03BFBE43AFA1886F0E7A4F6E5F097
:100963000826F6E43B08F6E43A08F6D0E0FBD0E0CC
:10097300FA22080808E630E7111211B212098D08AD
:100983000808C64480C618181822181818E9799E52
:10099300C608CAC608CBC608CCC6C370207996CA97
:1009A300CBCC7019798ECBCC70137986CC700EF9C1
:1009B300802ACA33CACB33CBCC33CC331930E7F2DA
:1009C300CCCBCA3350147004EA30E00DE4CA3ACAFF
:1009D300CB3BCBCC3CCC500209C3E913C6CC182388
:1009E30013C6CB18C6CA18C6F922E4CFC0E0E4CEBA
:1009F300C0E0E4CDC0E0E4CCC0E075F020C3E63352
:100A0300F608E633F608E633F608E633F618181860
:100A1300EC33FCED33FDEE33FEEF33FFC3EC97090C
:100A2300ED9709EE9709EF97191919400FFFEC9706
:100A3300FC09ED97FD09EE97FE191906D5F0BEECFA
:100A4300F709EDF709EEF709EFF7191919D0E0FCEB
:100A5300D0E0FDD0E0FED0E0FF222518C582C0E043
:100A6300E51934FFC583C0E0E518C3958224F81067
:100A7300AF088583198582188008858319858218B4
:100A8300D2AFCEF0A3E520F0A37808E608F0A3DE0A
:100A9300FAEFF0A3E58124FAF8E608F0A3E608F0FC
:100AA300A3E608F0A30808E608F0A3E608F0A315F8
:100AB300811581D0E0FED0E0F8158115811581E81C
:100AC300C0E0EEC0E022C0D02518C582C0E0E51921
:100AD30034FFC583C0E0E518C3958224F310AF0843
:100AE3008583198582188008858319858218D2AF7A
:100AF300C8F0A3E9F0A3EAF0A3EBF0A37908E709B0
:100B0300F0A3D8FAECF0A3EDF0A3EEF0A3EFF0A37B
:100B1300D0E0F0A3D0E0F0A3D0E0F0A3E520F0A371
:100B2300E5F0F0A322121331B90003020B6AE4903B
:100B33000301787579128002F0A3D8FCD9FA9014D6
:100B430075AA82AB8390008678DC79018015E493E3
:100B5300A3AC82AD838A828B83F0A3AA82AB838CFE
:100B6300828D83D8E9D9E775825F75838674031212
:100B73000D0F75823C7583257400120D0F85198343
:100B8300851882E0C0E0A3E0F9A3E0FAA3E0FBA3A9
:100B93007808E0F608A3DFFAE0FCA3E0FDA3E0FE9B
:100BA300A3E0FFA3E0C0E0A3E0C0E0A3E0F5D0A38F
:100BB300E0F520A3E0A3F5F010AF08858319858243
:100BC300188008858319858218D2AFD082D083D04C
:100BD300E0F8D0E032C0E074F2120AC9E589A2E17C
:100BE30050117C647D007A087B00900494E0F91234
:100BF3001C6CE9758900C2C57F01020B80C0E074DB
:100C0300F2120AC9E58BA2E050117C0A7D007A0832
:100C13007B00900494E0F9121C6CE9758B00C2E828
:100C23007F01020B801212FD601C1212DF6017128B
:100C33001346700712133C7001D322C0D012133C29
:100C43007006D0D0B322C32233D0D0501430E0F694
:100C5300C3E7960809E7960809E7960809E796B3F4
:100C63002220E0D5E6970809E6970809E6970809E0
:100C7300E697B322D083D082ECC0E0EDC0E0E493EA
:100C8300A3FCE493A3FDED4C600D120DE5EC24FFF2
:100C9300FCED34FFFD80EFE493A3FCE493A3FDEDAF
:100CA3004C600D120F15EC24FFFCED34FFFD80EFBB
:100CB300D0E0FDD0E0FCE493A3C0E0E493C0E022E5
:100CC3001212FD601B1212DF601612134670071218
:100CD300133C600CB322C0D012133C7005D0D02259
:100CE300C32233D0D0501330E0EBC3E7960809E7B3
:100CF300960809E7960809E7962220E0E4E69708B4
:100D030009E6970809E6970809E69722C0F0F5F087
:100D1300E59F5407C0E0E59F54F845F0D0F0F59FF8
:100D2300E473859FF053F0F8D0E045F0F59F22D0AF
:100D330083D082E59F5407C0E0E493C0E07401933D
:100D4300C0E07402935407C0F0F5F0E59F54F845F2
:100D5300F0D0F0F59F22D083D082E9C0E0E493A3E2
:100D6300C386F0C5F095F0F908E493A386F0C5F0C7
:100D730095F0700BE493A3C3994005E9048002A3A3
:100D8300E475F002A42582F582E5F03583F583D07E
:100D9300E0F9E493A3C0E0E493C0E02285198385DE
:100DA3001882E0A3FEE0A3F5207808E0A3F608DFAD
:100DB300FAE0A3FFE0A3C0E0E0A3C0E0E0A3C0E04B
:100DC300E0A3C0E0E0A3C0E010AF088582188583EC
:100DD300198008858218858319D2AFD083D0820207
:100DE3000D25C0E0C3E49396087401939618400F51
:100DF300E49366700808740193661870007019A371
:100E0300A3C3E49396087401939618A3A3400DD04B
:100E1300E0D0E0D0E0020CB3A3A3A3A3A3A3D0E04C
:100E230022D083D082C5F0E493A3C5F0C395F0F537
:100E3300F0E493A3C395F04005E5F0048001E47565
:100E4300F002A42582F582E5F03583F583E493A3CC
:100E5300C0E0E493C0E022C0E074F2120AC9E5895D
:100E6300A2E15003121F72758900C2C57F01020BF4
:100E730080C0E074F2120AC9E58BA2E05003121F8E
:100E830072758B00C2E880E47404800474028000ED
:100E9300CCC0E0EDC0E0E518C39CCCAD1950011DFA
:100EA30010AF068C188D1980068C188D19D2AF12CD
:100EB3000FD9D0E0FDD0E0FC2274028000CCC0E06A
:100EC300EDC0E0E518C39CCCAD1950011D10AF0671
:100ED3008C188D1980068C188D19D2AF120FB7D0CC
:100EE300E0FDD0E0FC221212FD60251212DF60202B
:100EF300121346700302133C080808E766701018C3
:100F030019E766700A1819E76670041819E766226C
:100F1300F422C0E0C0F088F0E4936670080874011E
:100F23009366187000A8F0A3A3700BD0F0D0E0D0A4
:100F3300E0D0E0020CB3A3A3D0F0D0E022D083D062
:100F430082CCC0E0E493A360061210381470FAE474
:100F530093A360061211091470FAD0E0FCE493A382
:100F6300C0E0E493C0E022C0E074F2120AC9121F89
:100F7300F67F01020B80C0E074F2120AC9121FFC53
:100F830080EFC0E074F2120AC912200280E3C008A5
:100F9300C3E096F50808A3E096420808A3E096424A
:100FA3000808A3E0964208A2D265D033E508700191
:100FB300D3D00822CAC0E0E493A3C582CCC582C5BE
:100FC30083CDC583F0A3C582CCC582C583CDC5833C
:100FD300DAE5D0E0CA22CAC0E0E0A3C582CCC5826C
:100FE300C583CDC583F0A3C582CCC582C583CDC5DA
:100FF30083DAE6D0E0CA22700908080822601618CE
:101003001818C6C333C608C633C608C633C608C6CF
:1010130033C6D5E0EA22C008C3E096F50808A3E08A
:1010230096420808A3E096420808A3E09645087094
:1010330001D3D00822C0E0E493A3D39C5010E493DF
:10104300A3C39C400AD0E0D0E0D0E0020F5DA3A38D
:10105300A3D0E0222518F58210AF08F51840021539
:10106300198008F51840021519D2AF851983227427
:1010730004800A74038006740280027401C0E0F4E1
:1010830004121057D0E012130C22C0D0251810AF51
:1010930008F518500205198008F51850020519D2F1
:1010A300AFD0D022BB0102E722C082C08389828AEB
:1010B30083BB0003E08002E493D083D082226016D6
:1010C300080808C6C313C618C613C618C613C6181D
:1010D300C613C6D5E0EA22C3E0C696F608A3E0C667
:1010E30096F608A3E0C696F608A3E0C696F622C0D5
:1010F300E074F2120AC9C2C0E5D1A2E4500312207F
:101103002C7F01020B80C0E0E493A36C7009D0E054
:10111300D0E0D0E0020F5DA3A3D0E022251810AFEA
:1011230008F518400215198008F51840021519D260
:10113300AF22C3E7960809E7960809E7960809E787
:1011430096A2D265D03322181818E6084608700A0A
:10115300E608C3337005E633F4220822E066701014
:1011630008A3E066700A08A3E066700408A3E066BB
:1011730022191919E7094709700AE709C3337005EA
:10118300E733F4220922C3E09608A3E09608A3E01C
:101193009608A3E096A2D265D03322C3E096F00866
:1011A300A3E096F008A3E096F008A3E096F02218D7
:1011B3001818E4C396F608E496F608E496F608E4ED
:1011C30096F622E026F608A3E036F608A3E036F604
:1011D30008A3E036F622E026F008A3E036F008A3E1
:1011E300E036F008A3E036F022E627F60809E637F2
:1011F300F60809E637F60809E637F622C0E0E8C044
:10120300E0E58124FCF8E6A2E7D0E0F8D0E022E6AE
:1012130057F60809E657F60809E657F60809E657A8
:10122300F622E056F608A3E056F608A3E056F608C1
:10123300A3E056F622E647F60809E647F60809E66C
:1012430047F60809E647F622700422600D18C6C364
:1012530033C608C633C6D5E0F41822E056F008A317
:10126300E056F008A3E056F008A3E056F022C3E0EE
:101273009608A3E09608A3E09608A3E09622C6F496
:10128300C608C6F4C608C6F4C608C6F4C622600D6E
:1012930008C6A2E713C618C613C6D5E0F322C3E7F0
:1012A300960809E7960809E7960809E7962275D094
:1012B3000075814075180175190300020B28600C35
:1012C30008C6C313C618C613C6D5E0F422E6F00851
:1012D300A3E6F008A3E6F008A3E6F022E70947092E
:1012E300C3134709336002E733F422E0F608A3E0AF
:1012F300F608A3E0F608A3E0F622E6084608C313BF
:101303004608336002E633F422CAC0E0E6F0A308DD
:10131300DAFAD0E0FA22E0FAA3E0FBA3E0FCA3E0D0
:10132300FD22EAF0A3EBF0A3ECF0A3EDF022E5C776
:1013330054F84401F5C7790122E7C3331947194724
:10134300194722E6C333184618461846222518F5CE
:1013530082E43519F58322120D324D8402120D32C7
:10136300F08402120D32808502120D32938602122E
:101373000D32118702120D32238702120D322D878F
:1013830002120D32158802120D328C8802120D32B0
:10139300C98802120D32288902120D32788A02128C
:1013A3000D32948A02120D32F68A02120D32908B9C
:1013B30002120D32D78B02120D32728C02120D32D1
:1013C3001F8D02120D325D8D02120D32CD8D021270
:1013D3000D32188E02120D32518E02120D327F8F92
:1013E30002120D32B09002120D320F9102120D3221
:1013F300589102120D32809102120D3203920212A1
:101403000D32819202120D32F69202120D320793BF
:1014130002120D327D9302120D322F9402120D32FD
:10142300719402120D32079502120D324E9502127B
:101433000D32979502120D32079702120D32D5988D
:1014430002120D32B99902120D32B39B02120D3200
:10145300BD9B02120D32C79B02120D32D19B0212A9
:101463000D32DB9B02120D32E59B02120D32EF9B14
:1014730002120D32109C02120D32349C02120D32F4
:10148300589C02120D32B59C02120D32049D0212B9
:101493000D32229D02120D32929D02120D32CF9D0A
:1014A30002120D321D9E02120D328F9E02120D3258
:1014B300C8A002120D3242A102120D328FA30212F2
:1014C3000D32EBA302120D3210A402120D323AA513
:1014D30002120D3279A502120D32BFA502120D328E
:1014E3009DA602120D32F7A602120D3249A702126F
:1014F3000D32CDA702120D32F52800120D3241290B
:1015030000120D321F2B00120D325D2B00120D3213
:10151300A92B00120D324E2C00120D32B42C0012E6
:101523000D32FF2C00120D32232E00120D32432FE9
:1015330000120D327A3200120D32F73200120D32E0
:10154300EE3300120D32933400120D32A93500121E
:101553000D32D33800120D32793900120D32AF3902
:1015630000120D32833A00120D321A3B00120D3273
:10157300643B00120D32913B00120D32B33B00125B
:101583000D32C13D00120D32963E00120D32E33E84
:1015930000120D32523F00120D32004000120D3284
:1015A300354000120D32834000120D32B840001254
:1015B3000D32104100120D326A4100120D32EA4120
:1015C30000120D324B4200120D32CA4200120D328C
:1015D300994400120D325B4500120D328F46001202
:1015E3000D32FC4800120D32AE4900120D32484B49
:1015F30000120D32E54B00120D32364C00120D3243
:10160300F14D00120D32054E00120D32124E001232
:101613000D32464E00120D32524E00120D32704EF4
:1016230000120D32664F00120D329D4F00120D3223
:10163300AA4F00120D32075000120D32085100124A
:101643000D32EE5100120D32875200120D32FE524E
:1016530000120D32155300120D324E5300120D328B
:101663006C5300120D32B05300120D32D1530012DD
:101673000D32B95400120D321D5500120D328F5523
:1016830000120D32945600120D329D5700120D3286
:10169300085800120D32B65800120D32DC580012F1
:1016A3000D32C55900120D32085A00120D32775A05
:1016B30000120D32ED5A00120D322A5B00120D3268
:1016C300755B00120D329C5B00120D32215C00121F
:1016D3000D32B35D00120D32205E00120D32865EB4
:1016E30000120D32E25E00120D323A5F00120D322B
:1016F30054AC03120D329FAC03120D32B5B001127C
:101703000D3216B101120D3276B101120D32C7B18D
:1017130001120D32E2B101120D3212B201120D3279
:1017230033B201120D323FB201120D3280B30112F6
:101733000D329EB301120D3207B401120D321AB4E9
:1017430001120D3231B401120D32C4B401120D3243
:10175300C3B501120D32BFB601120D3241B70112EA
:101763000D324BB701120D32AEB701120D32BFB7B6
:1017730001120D3202B801120D3249B801120D32B5
:101783007FB801120D32B5B801120D32D3B8011270
:101793000D32F7B801120D3238B901120D322BBADE
:1017A30001120D3271BA01120D32ACBA01120D32AF
:1017B30009BB01120D3231BB01120D326ABB01129A
:1017C3000D3278BB01120D32D9BB01120D3216BC9A
:1017D30001120D3258BC01120D3289BC01120D32B7
:1017E300BDBC01120D32C8BC01120D32E6BC0112A0
:1017F3000D32AEBD01120D32B8BD01120D32F7BD6F
:1018030001120D320DBE01120D3216BE01120D3240
:1018130080BE01120D3294BE01120D328CBF011233
:101823000D329FBF01120D32B4BF01120D3254C0ED
:1018330001120D32B8C001120D327BC101120D32FB
:1018430086C101120D32A5C201120D32C1C20112AD
:101853000D3219C301120D3250C301120D326AC386
:1018630001120D32A9C301120D32C4C501120D328A
:101873002EC601120D3299C601120D32F0C80112A3
:101883000D3200C901120D3203C901120D320FC905
:1018930001120D3223C901120D322BC901120D326F
:1018A30060C901120D320ECA01120D327ECA011235
:1018B3000D32E2CA01120D327BCB01120D3215CC6F
:1018C30001120D323CCC01120D32CCCC01120D327F
:1018D300D8CC01120D3207CD01120D3229CD0112E0
:1018E3000D3250CD01120D32B6CD01120D3220CF83
:1018F30001120D3223CF01120D329ACF01120D3294
:1019030086D001120D325ED101120D32E8D10112DF
:101913000D321DD301120D32CFD301120D3208D473
:1019230001120D3239D401120D3242D401120D329B
:101933002ED501120D32AAD501120D3237D601125E
:101943000D3201D701120D3285D701120D32BBD7EB
:1019530001120D3204D801120D327CC202120D3273
:101963008AC202120D32F3C202120D322BC30212CB
:101973000D327EC302120D321AC502120D32FAC69F
:1019830002120D32D9C902120D3205CA02120D32EA
:1019930025CA02120D3283CA02120D32C1CA0212C3
:1019A3000D32FFCA02120D3245CB02120D32ECAAE0
:1019B30003120D3245F901120D32C5F901120D3230
:1019C30037FA01120D32AEFA01120D3294FD0112F3
:1019D3000D3238FE01120D321BFF01120D326FFF63
:1019E30001120D3284A003120D32A2A003120D3294
:1019F300F3A003120D3238A103120D32E2A1031238
:101A03000D32B79803120D32FC9903120D32B5DC77
:101A130002120D3238DD02120D3242DD02120D3296
:101A230069DD02120D327DDD02120D32E3DD021299
:101A33000D3213DE02120D3215DF02120D32E5DF15
:101A430002120D3245E002120D328EE002120D3207
:101A5300CBE002120D322EE102120D325AE10212D4
:101A63000D32E5E102120D323FE202120D324C95C6
:101A730003120D32659503120D32DF9503120D32F9
:101A83008C9603120D32B49603120D325B89031246
:101A93000D32D58903120D32E08903120D32018A0A
:101AA30003120D32A0B802120D32A3B802120D3286
:101AB30064B902120D3292B902120D32EDB902125B
:101AC3000D3211BA02120D3231BA02120D327BBA43
:101AD30002120D32A9BA02120D32D8BB02120D3214
:101AE30007BC02120D3228BC02120D3283BC021253
:101AF3000D3246BD02120D3266BD02120D32DBBE3F
:101B030002120D3273BF02120D327CC002120D326B
:101B1300E5C002120D3213C102120D32D8C10212F6
:101B23000D320DC202120D3240C202120D3283CBAE
:101B330002120D328DCB02120D32D5CB02120D32B1
:101B430043CC02120D3266CC02120D3206CD0212C4
:101B53000D32B5CF02120D32BECF02120D320BD0B1
:101B630002120D3234D002120D3294D002120D3211
:101B730059AF01120D325ED102120D32ABD10212F6
:101B83000D3205D202120D328DD202120D32D2D293
:101B930002120D3211D302120D3246D302120D324C
:101BA30058D302120D326AD302120D3289D30212B4
:101BB3000D3252D402120D3287A703120D32A9AC93
:101BC30003120D3206FE02120D326AFE02120D32AC
:101BD3008EFE02120D3287FF02120D324AD8011215
:101BE3000D3229D901120D32758302120D3202DB37
:101BF30001120D3244DB01120D32F8DC01120D32F9
:101C03003CDD01120D321DDE01120D32AADE01127E
:101C13000D3235DF01120D328BDF01120D32CBDFB6
:101C230001120D326DE101120D32F6E201120D3295
:101C33000DE501120D321BE501120D3280E5011293
:101C43000D32CAE501120D32A3E801120D3207AEBF
:101C530003120D32008003120D32138003120D3272
:101C6300B18003120D32EC8003120D32078103128F
:101C73000D322C8103120D32718103120D32A281B8
:101C830003120D32D38103120D324A8303120D3234
:101C9300539A03120D32C09A03120D32DC9A0312C7
:101CA3000D321E9B03120D322E9B03120D32C69B67
:101CB30003120D32D09B03120D323C7000120D3211
:101CC3008A7000120D323B7100120D32D271001274
:101CD3000D321C7200120D32797200120D328D72A8
:101CE30000120D325E7400120D32DB7400120D32DD
:101CF300057500120D32BC7600120D32D776001234
:101D03000D32187700120D32547700120D32AD7771
:101D130000120D32C87700120D322B7800120D32EB
:101D2300B57900120D32DD7900120D32067A0012F8
:101D33000D32667A00120D32837A00120D32867AE2
:101D430000120D32897A00120D32F47A00120D322C
:101D53000F7B00120D32757B00120D32B07B001227
:101D63000D326BAB03120D3277AB03120D32B1ABF5
:101D730003120D32E4E801120D320FE901120D32A4
:101D8300DBE901120D3264EA01120D32C7EA0112D6
:101D93000D3213EB01120D3282EB01120D320CECFA
:101DA30001120D3283EC01120D32C5EC01120D321A
:101DB30085F001120D324BF201120D3284F2011241
:101DC3000D3226F301120D320AF401120D32FAF527
:101DD30001120D3275F601120D32A5F701120D3203
:101DE300745F00120D32336000120D32AA600012CC
:101DF3000D32B96000120D323E6100120D32A7613F
:101E030000120D32A76200120D32D06200120D32A1
:101E1300696300120D32AC6300120D3209640012C3
:101E23000D32386500120D32F26500120D3257661D
:101E330000120D32026800120D32BA6800120D3220
:101E4300556900120D32B46900120D321F6A001277
:101E53000D32326B00120D32056D00120D329E6D84
:101E630000120D32086E00120D32066F00120D3291
:101E7300BF7B00120D32317C00120D329A7C0012AE
:101E83000D32087D00120D32407D00120D32C87DE7
:101E930000120D32117E00120D326E7E00120D32D1
:101EA300E67E00120D32EB7E00120D325D7F0012D2
:101EB3000D32BD8E03120D320C8F03120D32C58FFE
:101EC30003120D322B9003120D329C9003120D322C
:101ED300E28603120D323B8703120D32BA880312D6
:101EE3000D3282A503120D3291A503120D329AA56C
:101EF30003120D32D8A503120D32F7A103120D32CE
:101F030031A203120D32ECA203120D320597031214
:101F13000D32139703120D321DAE03120D32C5A9F4
:101F230003120D32D5A903120D32F3A903120D3298
:101F330054AA03120D3264A403120D328BA40312AC
:101F43000D3210A503120D3269A503120D32DD9E69
:101F530003120D32009F03120D32229F03120D3222
:101F63008C9F03120D32AC9F03120D32F29F0312AA
:101F73000D324DA003120D326EEC02120D3283ECC2
:101F830002120D3298ED02120D32D9ED02120D320A
:101F9300F3ED02120D32A4EE02120D3218EF02120B
:101FA3000D3232EF02120D3245EF02120D3253EFB2
:101FB30002120D326DEF02120D3284EF02120D3256
:101FC300AEEF02120D32FFEF02120D32A1FA02122E
:101FD3000D32AFFA02120D3229FB02120D32F5FB5C
:101FE30002120D32A1FD02120D32769D03120D3243
:101FF300AF9D03120D32CC9D03120D322A9E0312A4
:102003000D328F9E03120D325EE202120D32CBE2CD
:1020130002120D3282E302120D32EFE302120D328D
:102023000CE502120D32A8E602120D320CE7021281
:102033000D3261E702120D326AE702120D3279E7BF
:1020430002120D328CE702120D32A2E702120D3298
:10205300ABE702120D325EAA03120D326BAA031212
:102063000D3293AA03120D32BEE702120D3211E8AC
:1020730002120D3219EA02120D324BEA02120D322C
:102083006DEA02120D3286EA02120D329FEA021243
:102093000D32A1EB02120D322FEC02120D327D93A1
:1020A30003120D32AF9303120D32BB9303120D32A1
:1020B300EE9303120D321F9403120D324D9403124B
:1020C3000D32C29403120D32F19403120D32278C98
:1020D30003120D324D8C03120D328A8C03120D3212
:1020E3009C8C03120D32B88C03120D32268D031211
:1020F3000D322F8D03120D328E8D03120D32B28DE0
:1021030003120D32718E03120D327E8E03120D32C5
:102113008F8E03120D32E8AB03120D3235AC03126E
:102123000D3279F702120D32C1F802120D32CEF8D8
:1021330002120D32E1F802120D3200F902120D32D1
:1021430016F902120D322AF902120D32A4F9021203
:102153000D323AFA02120D3282FA02120D3292FA5B
:1021630002120D328CA803120D32B0A803120D32E5
:10217300D8A803120D3200A903120D321F910312C6
:102183000D32389103120D32449103120D325891DE
:1021930003120D32769103120D32809103120D3228
:1021A3008A9103120D329D9103120D32F1910312A4
:1021B3000D322A9203120D32599203120D32A79255
:1021C30003120D32F69203120D32119303120D32E4
:1021D3001B9303120D322C9303120D3272930312CD
:1021E3000D32F4AC03120D327BD402120D32A7D49C
:1021F30002120D32C3D402120D32D6D402120D32A2
:10220300ECD402120D3258D502120D328BD50212C4
:102213000D32E8D802120D3213DA02120D3246DA09
:1022230002120D32ABDA02120D3293DB02120D32BF
:10223300BBDB02120D32D0DB02120D32E0DB0212E5
:102243000D3224DC02120D3279DC02120D3289DCEC
:1022530002120D3231A303120D324CA303120D32BD
:1022630075A303120D328FA303120D32B4A303120D
:102273000D32D3A303120D32EBA303120D3219A4B3
:1022830003120D3233A403120D323CAD03120D328F
:1022930034F002120D323BF002120D3247F10212FA
:1022A3000D3277F102120D329DF102120D32D0F18F
:1022B30002120D32E2F102120D321CF202120D3241
:1022C30082F202120D32BBF202120D3207F3021236
:1022D3000D3234F302120D3254F302120D32E89B25
:1022E30003120D32FA9B03120D32E99C03120D32D5
:1022F30087A603120D32E6A603120D3224A703129A
:102303000D3265A703120D32578303120D32738307
:1023130003120D32BE8303120D32DA8303120D3220
:102323000B8403120D32328403120D32158503120E
:102333000D321F8503120D322C8503120D323386A5
:1023430003120D32478603120D32508603120D32EB
:10235300B4F302120D322EF702120D32B2AD031294
:102363000D3225A903120D324FA903120D327CAD94
:1023730003120D32DFAD03120D32DEFF01120D32F7
:1023830051A802120D326FAD02120D323BAF011292
:102393000D3268AE01120D32D6AD01120D3284AC8E
:1023A30001120D3233AA01120D32C3A901120D32EB
:1023B30072A901120D32DBA801120D32CEA801124F
:1023C3000D3289A501120D32288302120D32E882E3
:1023D30002120D3231A301120D32EAA101120D32A4
:1023E300AD8202120D32898202120D3232A1011224
:1023F3000D32749F01120D32809D01120D32119D19
:1024030001120D32B69C01120D32579C01120D328E
:102413002D9C01120D32139A01120D32EB99011208
:102423000D329F9901120D327C9901120D325F9882
:1024330001120D32079801120D32709601120D32FE
:102443006D9601120D324E9501120D322E95011229
:102453000D32879401120D320A9301120D32D1927B
:1024630001120D32A29201120D326E8202120D324E
:10247300FE8102120D322C8102120D32A280021251
:102483000D32318002120D329F9201120D32919260
:1024930001120D32739201120D325C9201120D3250
:1024A300128002120D32699101120D32FF90011256
:1024B3000D32CC9001120D32749001120D3265D998
:1024C30001120D32008002120D32439001120D32BF
:1024D300508D01120D32518C01120D32E78B011216
:1024E3000D32A78B01120D32708B01120D32648BEA
:1024F30001120D32D78A01120D32258A01120D32D3
:102503004D8801120D32C78501120D3291850112DA
:102513000D32288401120D32D78301120D320F833D
:1025230001120D32708201120D320F8201120D322F
:10253300498201120D322AD10200000080FBC2C77A
:1025430032E4730001363601010001020100010388
:10255300010001040106060502000007010034081A
:1025630001000F090401010D0100FF0E080000170F
:10257300020000190100FF1A0100011B0100FE1CEB
:102583000100081D0200001F0100012001000121BC
:102593000200002301000F2402000026010001278E
:1025A300010008280200FF2A0100072B0102402C2A
:1025B3000100002D0100012E0100012F0100FF3059
:1025C300010B1C310800003A0100083B01000F2FEA
:1025D300010000010371030103010301030103016E
:1025E300032203020301031003000300030003009B
:1025F3000300030003000342030003240306030054
:102603000300030403120325032303250323030405
:102613000304030003000300034403000300032334
:102623000300036503210035038103000305030051
:102633000300030003030271023001600211027000
:10264300020102020202028002100261023A004108
:102653000063027302720262024302000213023831
:102663000000020002040212020002000200020043
:102673000204020402370037003C0244020002391C
:102683000000020002650200023502810200020519
:1026930002820283020002010171010101010111A1
:1026A3000101013101010101018001100161013BBF
:1026B30000140063017301720162014301000113FD
:1026C3000106013D01350004011201000100010072
:1026D30001000104010401330133013C01440132CF
:1026E3000136000001000165010001350081010090
:1026F30001050182018301000103007100300160C3
:1027030000110070003102200350048000100061AA
:1027130000000014006300730072006200430000B5
:102723000013000600000000000400120000000077
:10273300000000000004000400370037003C02449E
:10274300000000000000000000650000003500816B
:1027530000000005000000830000003600010006B1
:102763000000000F00000000000000000000000057
:102773000003FFFF00000403FFFF0000FFFF0FF44F
:10278300010005C4040320000100000B0000000049
:102793000000000003010F01001C1E02008C1D033A
:1027A30000921D0400981D05009E1D0600AA1D1120
:1027B30000C21D1400C81D1500BC1DFFFF0000034F
:1027C3000003000400080010001F003E007B00F619
:1027D30000EC01D703AF075D0FB91E713D00000385
:1027E300EAF5E5D5D5C5B5A5959585857575656571
:1027F30055554545353525251515059817C8179E93
:1028030017A417C217B617B017CE17D417DA17E6DF
:1028130017AA1792178C170A6A15023A15054C1551
:102823000740150C22150D2E15FF00009C36063AA5
:10283300703DD9404344AD47174B814EEA510016D2
:102843000F00000B150B020002220F3200000600DE
:102853000102030405060708090A0B0C0D0E0F827B
:102863001894189A186217A0185C176817FA1818A2
:10287300191E1900190C19061900034948424D186D
:102883001725050200011916181616152303000053
:10289300383C3E363B3B352B432C0C0E020B040BD2
:1028A3000A0708000F303017181921301B1D1F307D
:1028B300303016181920231A1C1E30BC17E01712CB
:1028C30019EC17F217EE18A618AC18B818B21800BE
:1028D30005150D0910080400000000000000BE04E7
:1028E3000A150004000E0028080C0C0A090504044C
:1028F3000F08C082C083E99003BEF0E4900372F036
:102903001222DE9003C2E4F0A3F09003BFF0A3F021
:102913001216A21222E4900341E4F0A3F09003DD27
:10292300E07002A3E060099003DD124FC512254455
:102933009028F3E493FA790212233E024C2674F2B0
:10294300120A5DEAFEEBFF74805FF9E47001E9604F
:10295300619003BEE0F9121B6A8A088B09EA7001D1
:10296300EB60467B0080010BEB75F003A4241AF89F
:10297300E5F03428F988828983E493FA74FF6A6066
:1029830021850882850983E06A70DCAA08AB09887F
:10299300828983A3E493C0E0740193F583D0821208
:1029A3002544AA08AB09121B5EEEFA74806FFB0282
:1029B3002B0974105FF9E47001E9601D1215C48AD4
:1029C300088B09EA7001EB600A12152EAA08AB09FD
:1029D300121B5EEEFA741080D4EEA2E0501A90033C
:1029E30077E0640F700B7900121504E96003122B72
:1029F3001574016EFAEF80B654207003022AD57560
:102A03000C00123DB37001EB70107C027D007A2044
:102A13007B009003BEE0F9121C727C0079047A00FB
:102A23007B001215A08A088B09800D7401888289A6
:102A330083F0850A08850B09E5087002E5096070D3
:102A43007C007904AA08AB091215A08A0A8B0B75BE
:102A53000C01E5082404F8E50912446224FFF0A3FD
:102A6300E034FF1248DA7002A3E070C6E5082409D7
:102A7300F8E5093400F9850882850983A3A3A3A394
:102A8300A3A3A3A3A3A3E0640170A085088285097F
:102A930083A3A3A3A3A3A3E05404708F7406888223
:102AA3008983F07AB7850882850983122C42808254
:102AB3001215707C0079017A007B001215A0EA7070
:102AC30001EB7009E50C70057A20124F5B7420024C
:102AD30029F674025FF9E47001E9600A12169CEEAC
:102AE300FA74020229B074045FF9E47001E9601218
:102AF3001250A3124D1779011233E4EEFA74040253
:102B030029B07A007B008005740312108D7F0602C2
:102B13000D9F9014DE1241DD12151C22C082C0836A
:102B230074EA12111F851882851983AA82AB8379EF
:102B33004B12231474081213507402F07409121305
:102B430050AA82AB837950122314741312135012B8
:102B530054AA1223327416024C2374F7120A5D74BA
:102B6300E112111FEAFEEBFFEE7001EF60338518EF
:102B730082851983AC82AD831215E8740612135053
:102B8300E0601E7417121350E0FD7401121350E03D
:102B9300FCEEFAEFFB790012238CE9600479A48040
:102BA30002790002419174F6120A5DEAFEEBFF8E90
:102BB300828F83A3A3A3A3A3A3E05440601B124F5C
:102BC300C11250DA60067AFF7BFF801A8E828F83F0
:102BD300124489FAA3E0FB800312160C74FE6A7098
:102BE3000374FF6B6041124FC1125102121660E968
:102BF3008E828F836006122C3BE48005122C3B747B
:102C030001F07C0A7D158E828F83124E4212233887
:102C1300E9F5087015EE7001EF60097901EEFAEF3E
:102C2300FB12157C024FB37508CDAA088E828F83E1
:102C3300122C42E960DF80ECE0240D12466B22E0A7
:102C4300240C12466BE0F91215162274F6120A5D73
:102C5300E9FEEAFF7A0F7B00121B58EA7001EB6072
:102C630019740C8A828B83F0EEA3A3F0EF8A828B14
:102C730083A3F0124FEF79008034EEF91215A68A80
:102C8300088B09A808A909E87001E9601F74068880
:102C9300828983A3A3A3A3A3A3A3125964A3A3A376
:102CA300A3A3E0F91214CEEEF91215827910024FA4
:102CB300BCC082C083900377E0640F7018EA700190
:102CC300EB6012900372E0FC74086C600574046C92
:102CD3007003122CDB024C26EAFCEBFD7A017B002D
:102CE3009003BEE0F9121C6C221250C2640222EE61
:102CF3002409F8EF3400F9880A890B2274F2120AC6
:102D03005D74FD12111F8A088B09EA2402F50CEB8E
:102D13001248AAF91215A68A0A8B0BAE0AAF0BEE5C
:102D23007001EF7003022E0B850882850983A3854A
:102D3300820A85830BE064F16014E064CD600FE0E8
:102D4300641A600AE064E96005E064E1701C7900DC
:102D530012157CE960148E828F83A3A3A3A3A3A37C
:102D6300E04420F0A3E0F0022DF5850A82850B8371
:102D7300E0C0E07402121350D0E0F01257FCEE24CE
:102D83000B12594E851882851983AA82AB8370056D
:102D930012143E8003121648850A82850B83E06471
:102DA300F1604FE064CD604AE0641A6045E064E19D
:102DB3006040E064F0603B7402121350E0FC74B7AF
:102DC3006C602F122E17750A01780A12107EECF52B
:102DD3000A780A12107EE508240CF582E509125CD4
:102DE3001D12388FFCA3E0FD8A828B831238A9124F
:102DF300108DEE2409122CEC70037406F0850C82FE
:102E0300850D83E0F91215821215709014E2122BCE
:102E130018022B0B8E828F83124555E8FAE9FB22A9
:102E230074F2120A5DEAFEEBFF750A00EE24091242
:102E33004D072405122F1EF583E06034750A0885BB
:102E430008828509831244747001EB600D750A2CA6
:102E5300850C82850D83E0D2E0F0850C82850D839D
:102E6300E0540364016003022F19430A11022F196E
:102E7300EE241812594E6032EE241A12594EFA708B
:102E830018850882850983122F347003A3E06960D3
:102E930003022F19750A22807DEE241B125790EE30
:102EA30024191259551214BC806C85088285098334
:102EB300122F3D7003750A01850882850983124C20
:102EC3002D7003A3E06B7006E50AD2E1F50A123D0B
:102ED300A8E50A6015850882850983E07006E50A7E
:102EE300D2E58004E50AD2E6F50A121660E9640128
:102EF3007006E50AD2E0F50A850882850983E06059
:102F030015EE241DF582EF3400122F2A64016006AA
:102F1300E50AC2E0F50AA90A022B10F8EF3400F91A
:102F2300880C890D88822212448EE0F912164EE92C
:102F330022124555900363E068221250DE64022298
:102F430074E8120A5D74DE12111FEAFEEBFFEE2431
:102F53000412444F60109014E0E07002A3E0600696
:102F63009014E0122B18EE2402F50CEF12386B7458
:102F730003121350AC82AD8385088285098312380E
:102F830085FAA3E0FB1215E8EE241B12419B741093
:102F9300121350124D177409121350E0601C741A67
:102FA300121350E0FD7404121350E0FC124E3C79EE
:102FB3000112238CE960030232557403121350AAE1
:102FC30082AB83121528E9F50A7409121350E070D5
:102FD3000E90035AE06008E9A2E14003023255E98A
:102FE300A2E650277420121350125584E064037034
:102FF30006A3E0640D60147403121350AA82AB831A
:10300300121672E964017003023255EE2412F514AC
:10301300EF3400F515EE242A123DABEE242EF516FF
:10302300EF3400F517EE242C125C1A1235A2E06877
:103033007003A3E069701E750B00780B12107E7885
:103043000B12107E851682851783E0F912326A12FD
:1030530038A912108D7406121350E0FA900360E041
:103063006A60030232557409121350E0700302318F
:103073002D12326A124E421216C08A088B09A80812
:10308300A909E87001E970030231CE7404121350E8
:1030930012325FFAA3E03400FB740D2AF582E43B9D
:1030A300F583E0FAE82404F508E9123DAEE82403C9
:1030B300F582E91259516A601FEAF09081F27810A3
:1030C3001212EE850882850983E510F0A3E511F05D
:1030D300A3E512F0A3E513F07904E91213501232B9
:1030E3005FFCA3E034008C82F583A3AA82AB831236
:1030F3001B468A0C8B0D8C0E8D0F850882850983E8
:1031030078101212EE7810790C1212A150030232C9
:1031130055908206780C1211C685088285098312A0
:103123005779A3E50EF0A3E50FF0900372E0FA746C
:10313300046A600874096A6003023255E50AA2E56D
:103143004003023210851682851783E08518828535
:103153001983F0EE242F12594EC0E074011213505C
:10316300D0E0F0EE243012594EC0E0740212135036
:10317300D0E0F07414121350E064017028740E123E
:1031830013501241A1851482851583E0687003A34F
:10319300E0697011740C121350122F3D70077414F0
:1031A300121350E4F0EE2424125C1A120E8B7404F2
:1031B300121350AC82AD837407121350AA82AB83EF
:1031C300121444740412108D0232559003B7E06454
:1031D30001600302312D74201213501244896406D6
:1031E3007009E50AA2E6500302312D741012135040
:1031F300E064FF7004A3E064FF6057EEFCEFFD742E
:1032030003121350AA82AB831215348045A2E650F1
:10321300417420121350124489FA74046A701874AA
:103223001A121350E0640270297403121350AA8215
:10323300AB8312163C801B74076A7016741A121340
:1032430050E06404700C7403121350AA82AB83120F
:103253001636742212108D7F10020D9FE0FA850C32
:1032630082850D83E02A2285088285098312579778
:103273008514828515832274F2120A5DEAFEEBFF40
:103283008C088D09122CF279008882F583124E4244
:103293001214DA8A828B83E5827002E583603AA393
:1032A300A3A3A3A3A3E05418602FE508241BF5826E
:1032B300E509125C1D120E8FE5082412F582E5095B
:1032C300125C1D120E8FEE24181259551232E7129A
:1032D30014EC740412108D800879001232E7121472
:1032E300B0022B10850A82850B83125797EE240BAD
:1032F3001241D62274F6120A5D74F712111F8A085E
:103303008B09900372E0FA74036A600D74016A60BA
:103313000874096A60030233D68508828B83A3AEDF
:1033230082AF83E060030233BB7C007D007A027BC3
:10333300001222EAE50824021233D91241A19003B4
:1033430063124D17795312231A79001233E4900351
:1033530072E064096009900370124E421216BA7447
:1033630001124FE27404900372F07401121350AA15
:1033730082AB83794A1223147401121350AC82ADC9
:10338300837A687B031223029003631257937A03B1
:103393007B001222EA9003661257937A047B001291
:1033A30022EA90035DE0A2E35004D2F08002C2F06F
:1033B300124FCA122B158018FC7D007A037B101262
:1033C30022EA8E828F83E0F91233E4E4900372F0F1
:1033D300121558024FB7FAE5093400FB8A828B8332
:1033E300229003701241DD12145022C082C08390D8
:1033F3000341E07002A3E07041900372E0120F40BA
:103403000003011034051F34062E343D3490034964
:10341300E07002A3E06076900349806B900345E07F
:103423007002A3E06067900345805C900347E070FF
:1034330002A3E06058900347804D900341E070027F
:10344300A3E06009123B12FC74016C7023790090B5
:1034530003BF800909EA124FF8EB125C1D12407E8C
:103463007001EB70EF9003BF124E4212144A801D9D
:1034730074026C700512169080139003DFE07002E3
:10348300A3E060099003DF124FC5122544024C26C6
:1034930074F4120A5D74FB12111F8A088B097A0FE8
:1034A3007B00121B588A0A8B0BAE0AAF0BEE70011E
:1034B300EF700302359D74028E828F831254AB79B1
:1034C30050122314850882850983A3858208858386
:1034D30009E0600302358690037012595D7003742E
:1034E300FF69602F74FE68700374FF696025851897
:1034F30082851983E0687003A3E069601674EA8526
:1035030008828509831238BB7A707B0379501223B2
:103513001A80708518828519831235A2124D177A85
:10352300637B037953122314900363124D127A665B
:103533007B03794B1223147A657B0379E1122314FD
:10354300900377E0C3940F5022900365E0C0E074CA
:1035530002121350D0E0F074041213507401F0748B
:1035630002121350AA82AB8312232C750A00780A25
:1035730012107E780A12107E901502E0F91238A01C
:1035830012108D850882850983123870F0740390B8
:103593000372F0EEFAEFFB124FEF74050242AD1225
:1035A30045559003702274EC120A5D74ED12111FDD
:1035B3008A828B83A3123875EA24081242B5FEE986
:1035C300FF851882851983AC82AD838E828F831227
:1035D300388FFAA3E0FB12155E851882851983E004
:1035E30070708E828F83E0C3940B4066850882855A
:1035F3000983A3A3A3A3A3A3A3A3E064027053908B
:103603000372E0FAE5082410F510E5093400F5111A
:10361300E508240912386774026A603B74066A601D
:1036230036900341E07002A3E06007123B1264018D
:10363300605574086A600574046A70167402121384
:1036430050E0F97407121350AC82AD83124E3C1252
:103653001564741302574A900341E07002A3E070AB
:1036630026750A00780A12107E780A12107E8510D9
:1036730082851183123885FCA3E0FD8508828509C4
:10368300831238A912108D9003BF1259BF9003BF44
:10369300125742E508240DF50EE5093400F50F80B5
:1036A300308E828F83E0F8A3123885687003A3E01D
:1036B3006970128E828F83A3A3E0FA850E82850F31
:1036C30083E06A606D8E0A8F0BEE124FF8EF12598A
:1036D300BCEE7001EF70CA7A187B00121BD08A12FD
:1036E3008B13AE12AF13EE7001EF70030236557CED
:1036F30018125B0F125B19EE240C125C1A74FFF0A4
:10370300E508240BF8E50912446212385D1248DA21
:10371300C412385DA3F09003BFE07002A3E070050C
:103723009003BF800AE50A124FF8E50B125C1D12E5
:103733005802740112135012387FA3F0740212134B
:103743005012387FF0850E82850F83123870A3F0F4
:10375300125994124B41240DFAEF3400FB740212F8
:103763001350E06401600E7407121350AC82AD83F2
:1037730012230280097C087D0079FF121B4074121A
:10378300121350E0C0E0EE2415125C1AD0E0123898
:10379300B2FC901502E0C39C400302365512557BE0
:1037A300125C1DA3E05480F9E47001E97009900DE7
:1037B30000E070030236557D00EE240CF8EF340070
:1037C300F9EE240BFAEF3400FB9003AFE0640270D0
:1037D3001D8A828B83E0F50AC39C500D7405121376
:1037E30050E0C39414401B801AE50A6C70157405ED
:1037F300121350E0C0E088828983E0FCD0E0C39CD0
:1038030050010D7406121350E06035ED60258508F4
:1038130082850983125512ECF0A3ED1238B28A8225
:103823008B83F0740512135012447E7406121350E6
:10383300E0600D74018E828F83A3A3A3A3A3A3F0DF
:103843007404121350E0700302365574018E828F94
:1038530083A3A3A3A3A3F0023655540F8E828F83B1
:10386300A3A3A322F50CE5093400F50D221239A90F
:10387300A322A3A3E0F508A3E0F509221239A902C4
:103883004683E0F9850C82850D83E022E0F98A8284
:103893008B83A3A3A3A3A3A3A3A3A3E02290037057
:1038A3001257979003661241DD12161E740222F01E
:1038B300851082851183E022F07A637B03795312AA
:1038C30038C62212231A7A667B03794B12231A22F3
:1038D30074F0120A5D74F812111F8A0C8B0D8C0A96
:1038E3008D0B890E851882851983AC82AD83758310
:1038F300817582C17408120FD9F50FAC0CAD0D851B
:103903001882851983AA82AB8312578B7003750FB4
:10391300019003BF8030AC0CAD0DEE240DFAEF34F3
:1039230000125C13601A850882850983E0650E70B6
:103933000F8E828F83E0650A7004A3E0650B602F0E
:10394300EE2416125C1A1241097001EF6021123D38
:10395300A8E50F70C18E828F83E0650A7004A3E02F
:10396300650B70DC850882850983E0650E70D1EEF6
:10397300FAEFFB02597374F7120A5D9003BF124901
:10398300A4800CEA24161259B9121BD6EEFAEFFBE7
:10399300EA7001EB70ED9003BFE4F0A3F0024196EF
:1039A3007F07020D9FA3E08E828F832274F1120A98
:1039B3005DEAFEEBFF890A8C088D098E828F83E016
:1039C3008C828D83124D66AE82AF83E0124BD5128B
:1039D3003A7EC4124BD5123A72E054038C828D8323
:1039E300123A7CA2E2E492E08C828D83123A7B133A
:1039F3001313541F124BD5A3123A7BA2E7E492E0B0
:103A03008C828D83A3A3A3A3123A728E0C8F0D75A0
:103A13000E00780C1210767C087D00E5082407124E
:103A23003A6612108D1257618E0C8F0D780C12109E
:103A3300767C037D00E508240F123A6612108DE5AB
:103A4300082412F8E5093400F9E50AC3940F400A83
:103A53008E828F83A3A3A3E08001E488828983F00D
:103A63000239A3FAE5093400FB121B34740322A3C1
:103A7300A3124D660EAF8322A3A3A3A3F002568E17
:103A830074F4120A5D74F912111FEAFEEBFF90033E
:103A930041E07002A3E06010123B1264027009EE71
:103AA300FAEFFB12168A8062900370E06E7003A334
:103AB300E06F705674016960097A847B0312578B37
:103AC30070487A007B02123DB77001EB703C9003A3
:103AD3007378081212EE85188285198378081212FA
:103AE300D0900379E0C0E07404121350D0E0F07476
:103AF300051213507401F074061213507402125419
:103B0300AB121420E9609812142674070242AD9098
:103B13000341124678E02274F7120A5D8A828B838E
:103B2300A3AE82AF83E0F91214688E828F83E0FA2A
:103B330074EB6A600574E16A7002E4F0122B157588
:103B43000801780812107E8E828F83E0F5087808CA
:103B530012107E79001238A012108D1215700241D6
:103B63009674F6120A5D9003C1E0701F7C00790120
:103B73007A007B001215A0EA7001EB600E8A828B3B
:103B830083E07002A3E06003121510024FBCC082F1
:103B9300C083123FE9401079FF12159AE9FA902881
:103BA300ECE493C39A5004790180027900024C2615
:103BB30074EE120A5D8A088B09890D750E00EA24DA
:103BC30008F50AEB3400F50B850A82F583E0F91258
:103BD30015A68A108B11AE10AF11750C01EE700192
:103BE300EF6003023C76850882850983A3A3A3A320
:103BF300A3A3125793850A82850B831249A9124EF8
:103C03004212158E8A0A8B0BAE0AAF0BEE7001EFD0
:103C13007003023DA08E828F83A3A3A3A3E4F0A32A
:103C2300F0E508240BFAE509124B28C0E0125C17F3
:103C3300D0E0F0121666EE240C1250FB750E01EE66
:103C43002406F8EF123FF8E0547FF0A3E054FC128F
:103C53003E9154046003023D089014E612499D749A
:103C630007780812124B8A828B83E04508F0A3E0A1
:103C73004509F0EE2406F8EF1242B7FCE9FD8C8209
:103C83008D83124E4274805AF50874035BF50974F0
:103C93000778081212C1E508F510EE2404F50AEFBF
:103CA3003400F50BEE2409123DABE50D60607402A0
:103CB300850882850983123A7F240D124667E0A2A4
:103CC300E2500F90035E1241A1850A82850B831295
:103CD3004D17E5107003023D67747F5AFA74FC5B5D
:103CE300FB74FF2510F51074FF3400F51174077889
:103CF3001012124BE5104AF8E5114BF98C828D83B3
:103D0300124D17805FE04480F0A3E0023C75E5109C
:103D13007005750C00804DEA54206015121B528A01
:103D230010747F5510F8745F28850A82850B838091
:103D33001BEA5410600E121B528A10740F5510F8B0
:103D4300740F80E4850A82850B837401F0A3E4F089
:103D53007404850882850983F0123DB37001EB700A
:103D630003124F907401650E7036850A82850B83AA
:103D7300125793850882850983E0F9EEFAEFFB1267
:103D83001594E9601BEE240C125C1A12407E70013C
:103D9300EB6003121BD6EEFAEFFB121BD6750C0079
:103DA300A90C024B1CEE2402F508EF3400F509229E
:103DB3007A207B009003BEE0F9121C7EEA2274F69F
:103DC300120A5D74F712111F7E001215A6EA700124
:103DD300EB7003023E8C8A828B83A3A3A3A3A3A3CA
:103DE300A3A3A3E064066003023E8C8A828B83A3B1
:103DF300A3A3A3A3A3A3E0FF8A828B83124672E04B
:103E0300C0E07408121350D0E0123E91124FC61254
:103E130051E8124D171215B874085FF9E47001E9FF
:103E230060658518828519831257937A007B001287
:103E33001588EA7001EB704F9003701242BC122395
:103E4300447C007D007A007B0080268E828F83E095
:103E53001241A57004A3E064FF602C900370125715
:103E63009312206EE9641A601E7C007D00EEFAEF67
:103E7300FB1215888A088B09AE08AF09EE7001EFB3
:103E830070C9790012234A7E01EEF9024FB7123F3F
:103E930047E02274F7120A5DEA7001EB70059003A4
:103EA300C280068A828B83A3A312407E7001EB60DB
:103EB300288A828B83A3A3A3A3A3A3A3E05408F913
:103EC300E47001E960DDEC7001ED60111244856C72
:103ED3007003A3E06D70CC80047A007B00024196EE
:103EE30074F2120A5DEAFEEBFF890A8C088D097AE7
:103EF3000E7B00121BD0EA7001EB603AE48A828BDE
:103F030083A3A3A3A3A3A3A3A3123F4BE50A124135
:103F1300B1E508F0A3E509125945E4F0123F4BA3BC
:103F2300A3123F47125802EA240CF582EB12446EA7
:103F3300123F3CF0A3F0022B10A3123F4122123F89
:103F430047A3A322F00233DFA31241B5A3A3227434
:103F5300F5120A5DEAFEEBFF890A8C088D09EE7003
:103F630001EF60567401650A7014790112159AE91C
:103F7300FA9028F4E493C39A500F7911806574047E
:103F8300650A7030123FE940F18E828F83A3A3A3A9
:103F9300A3A3A3A3A3A3E50A124B35125E6EE4F019
:103FA300A3F09003C2E07002A3E09003C260241266
:103FB30041A1800A7402650A60CF79C18025E82493
:103FC300020808E9123FF81240B37001E970EF8A62
:103FD300828B83125802123DB37001EB7003124FB0
:103FE300907900025ED2790412159AE9FA9028F0CA
:103FF300E493C39A221242B7FAE90233DEC082C0C5
:1040030083E9FC79009003C2801D8A828B83A3A37A
:10401300A3A3A3A3A3A3A3E06C600574FF6C700127
:10402300098A828B83A3A312407E7001EB70DB02AB
:104033004C2674F7120A5DEA7001EB70059003C217
:1040430080068A828B83A3A312407E7001EB6024D7
:104053008A828B83A3A3A3A3A3A3A3A3A3E06970CF
:10406300E1EC60148A828B83E0240D125688A2E26D
:1040730040D080047A007B000241961241DDEA229F
:10408300C082C0839003C280068A828B83A3A3125B
:10409300407E7001EB60128A828B83A3A3A3A3A348
:1040A300A3A3A3E06970E280047A007B00024C269C
:1040B300124555E82274F1120A5D8A0A8B0B8C0CA7
:1040C3008D0D750800750900EA7001EB60319003EE
:1040D300C280068E828F83A3A31241097001EF6011
:1040E3001EAC0CAD0DEEFAEFFB850A82850B831235
:1040F3002544E9640170DCEEF8EFF988088909AA20
:1041030008AB090239A3E0FEA3E0FFEE2274F71225
:104113000A5D9003C21241A17C007D008007E8FC88
:10412300E9FD1241A1E87001E9603AE82402F58251
:10413300E9125C1DEA687002EB6970E2124E42906C
:1041430003C21259BFE86E7002E96F70099003C28F
:10415300EAF0A3EB800EEAF8EBF98C828D83A3A33C
:10416300E8F0A3E9F0802C74F7120A5DEAFEEBFF96
:10417300EE7001EF60161215B21241BBEA7001EB4B
:104183006003121BD6EEFAEFFB121BD68005741FD9
:1041930012108D7F01020D9FF582EF1259B1124566
:1041A3005522FAA3E0FB8A828B83E064FF2212414B
:1041B300B522123F470246848E828F83E0241C126D
:1041C300466B1241E28E828F831241E2EE240C127F
:1041D30041D622F582EF3400F5831249A4FB221263
:1041E30049A4FB121BD622C082C083EAFCEBFDEC80
:1041F3007001ED70047905804CEC24FBF582ED34FD
:10420300FFF583E07002A3E07011EC24FFF8ED34B6
:10421300FFF988828983E064FF6005121B5E80D505
:104223009003BE12447E9028EEE493F97AC47B0394
:10423300121B88E96401700B7A007B10124F94798A
:104243000080027904024C2674F4120A5DA2AFE4E2
:1042530092E0F508C2AF9003C41241097001EF6008
:104263003DEE24FBF582EF34FFF583E07002A3E01B
:104273007A007B109003BE6005124F978005E0F92A
:10428300121B94750A00750B00780A12107AEEFC63
:10429300EFFD7AC47B03121B82740212108DE508B2
:1042A300A2E092AFEEFAEFFB800312108D7F0402BF
:1042B3000D9FF8EB3400F9E8221257978518828591
:1042C3001983AA82AB832274EE120A5D74FC121165
:1042D3001FEAFEEBFF750CFE750DFF121576E96004
:1042E30005791102444AEE240FF50EEF3400F50F61
:1042F300EE2402F50AEF3400F50BEE241512444FB9
:10430300603E9014FCE0C43354E0C0E0E033335427
:10431300FCFAD0E04A850882850983F0850A828504
:104323000B831244747001EB6016750CFF850E82CB
:10433300850F83E04404F0A3E012468BE0D2E0F063
:10434300850A82850B831250DA6006EE241212442A
:104353006BEE241312594E7003741EF0EE2411F801
:10436300EF1250CB7019900DAEE0600D90035AE040
:10437300700D8E828F83E07006E488828983F0EE6D
:104383002414080808124461700C90034F12447EF1
:1043930090034FE004F08E828F83E0640170171264
:1043A3005C171244896402700D850E82850F83E0C9
:1043B3004440F0A3E0F0851882851983AC82AD8375
:1043C300EEFAEFFB1215DC8A088B0974FE650C709C
:1043D3000474FF64FF7009850A82850B831248BE4B
:1043E300EA7001EB605D8E828F83E0C0E07401129E
:1043F3001350D0E0F07402121350125802740112D9
:10440300135085820A85830B780A12107A850E82EF
:10441300850F83120E8F12594BF50A780A12107EFC
:104423007405121350E0F9AC0CAD0D1215D67405DA
:1044330012108DE9FE74106E700BAA08AB09121BE3
:10444300D680027E10EEF97404024B19F508EF349E
:1044530000F509850882F583E022EE2405F8EF12C2
:10446300446622125EDDE022F582EF1259B1E4F0D8
:10447300221241DD79FF1223B0EA22E08882898388
:10448300F0228A828B83124490E022F583E0F8A322
:10449300E0F583888222C082C08374DE12111F8AF2
:1044A300828B83A3A3A3A31241A1740E121350E81A
:1044B300F0A3E912454E740C121350124547240D14
:1044C300F582EB125951C0E0741A121350D0E0F088
:1044D300EA240BF582EB12419E742012135012450D
:1044E300472415F582EB125951C0E074081213509A
:1044F300D0E0F0EA241CF582EB12419E74121213F1
:1045030050124D1774FF851882851983F0740112B8
:10451300135074FFF0740212135074FFF09081F281
:10452300120E8B7404121350AC82AD8374071213F2
:1045330050AA82AB83121444740412108D79007450
:1045430022024C23E8F0A3E9F0EA22123F4112458C
:104553005522E0F8A3E0F92274EF120A5D74F01219
:10456300111F8A0C8B0DECFEEDFF891074211213C1
:1045730050E0F50F74221213501257427424121391
:1045830050123877750E107A1E7B00121BD07402FE
:104593001213501251027402121350E07002A3E07E
:1045A300700302465B851882851983AA82AB8379DF
:1045B30050124E32124E427402121350124672A31C
:1045C3001251027402121350E0240B124667740254
:1045D300F01213501246727402F0121350124FC5A8
:1045E30012580274021213501252EBE510F07402C7
:1045F300121350E0240C124667E50FF074021213F5
:1046030050E0241C1246671257797408121350E5C0
:104613000AF0A3E50BF0740A121350E50F12468B50
:10462300C082C083740D121350AC82AD83D083D08B
:10463300827403120FD9F97402121350AA82AB8346
:1046430012157CE964017005750E00800B7402126B
:104653001350124E42121BD6A90E741012108D7FE6
:1046630009020D9F12466B22F8A3E0125EDD2212AF
:104673004678A3A322E0F8A3E0F58388828002A30F
:10468300A3A3A3A3A3A3A322F00250B274E8120A24
:104693005DEAFEEBFF8C088D098E828F83A38582F2
:1046A300128583137408F0EE2416F50CEF1248AA52
:1046B30060097410851282851383F0EE2417F50EBA
:1046C300EF3400F50F850E82F583E0600A851282D0
:1046D300851383E02408F0EE241512594E600985F2
:1046E3001282851383E004F0EE2407F514EF3400FF
:1046F300F515EE2406F516EF3400F517851682F549
:1047030083E06015851482851583E0C3332402FAA0
:10471300851282851383E02AF0EE2411124460602F
:1047230005750A0E8003750A00851282851383E0DE
:10473300C0E0EE240D125C1AD0E0FAE02A250A8CC0
:10474300828D831248DA601390035BE0F9121B70C9
:10475300E9FA850882850983E02AF08508828509BC
:1047630083E0FAC39475400975080075090002488F
:104773009F7B001258B07001EB700302489FEEFA62
:10478300EFFB1215E2EA850882850983125103EED5
:104793002402F81250AD1248E1F0EE240408081286
:1047A30050ADA3A31248E1A3A3F0EE24131248C60D
:1047B300F0EE24141248C6A3F0751008850C828508
:1047C3000D83E06010EE2418125790E508240812B8
:1047D3005738751010850E82850F83E06016EE241E
:1047E3001A12579085100CE508250C1257387408D7
:1047F3002510F510851682851783E0606085148285
:10480300851583E0C0E085100CE508250CF582E5ED
:1048130009125C1DD0E01248D0E0C0E085100CE521
:1048230008250CF582E509125C1DD0E01248D0A3DF
:104833001248B5121076851482851583E0C333FCC4
:10484300E433FD85100CE508250C123A6612108D31
:10485300851482851583E0C3332510F510EE2415E6
:1048630012594E6010C0E0E5082510F582E50912E3
:104873005C1DD0E0F0125C171248B5121076EE24DE
:104883000D12594EFC7D00851282851383124D87CC
:10489300E50A28FAE4391248A612108DAA08AB09D2
:1048A30002325AFB023A6C3400F50D850C82F58313
:1048B300E0221248BE750E00780C22E0F50CA3E04E
:1048C300F50D221259AE1248F1A3A3A322F005104D
:1048D3008E828F83024682F088828983E022124887
:1048E300E81248F122A3A3F088828983A322E085FA
:1048F3000882850983A3A3A32274F6120A5DEA241E
:1049030015F582EB12595160047C0180027C008A08
:10491300828B83E0FE90036012499D740278081233
:10492300124BE5084EFEAF09EA24121249977406AA
:10493300780812124BE5084EF8E5094FF9ECFDE84B
:10494300FCED49FDEA241112499774097808121203
:104953004BE5094DFDEA2416124997740B780812AA
:10496300124BE5094DFDEA2417124997740C780898
:1049730012124BE5094DFD8A828B83A3A3A3A3A344
:10498300A312499D740A780812124BECFAE5094DFB
:10499300FB024FBCF582EB1259B1E0F50875090033
:1049A30022E0FAA3E022E0F90250B274EE120A5DAB
:1049B3008A088B09ECFEEDFFE98E828F83F0124D9E
:1049C3009CC0E0EE2411125C1AD0E0124D33C0E01B
:1049D300EE2412125C1AD0E0124D556006124CF907
:1049E300124D798E828F83A3A3A3A3A3A3A3A3E0D2
:1049F3006003124D6D12445D6003124D39EE2419AC
:104A0300F8EF3400F9E488828983F0EE241BF51073
:104A1300EF3400F511851082F583E4F0A3F0EE2462
:104A230018FAEF124B287003024AB5850A82850BE8
:104A330083E0FCE5082C124D44FCE5082CF582E5E7
:104A430009125951C0E0EE241A125C1AD0E0124D3B
:104A53004F88828983E0FC60539028EDE493C39CE4
:104A63005005750F0C80028C0F850A82850B83E03D
:104A7300F8E50828F50CE509124B21121076E50F2D
:104A8300C333FCE433FD7A7A7B13123A6C12108D34
:104A9300851082851183747AF0A37413F0E50FC334
:104AA30033FA850A82850B83E02A8005E48A828BA8
:104AB30083F0850A82850B83E0F50AF50CE508256A
:104AC3000CF8E5093400F9EE241DFAEF3400FBEA93
:104AD300FCEBFD8C828D83124B412417FAEF3400DB
:104AE300FB8A088B098E828F83E0C3950A8A828BA7
:104AF30083124B35A3A3E0601B8A828B83E024F2ED
:104B0300F0E8240EF8E9124D1DFA85088285098321
:104B1300E0C39AF0800312108D7F0A020D9F3400C8
:104B2300F50D0248B8124B2C223400FB8A828B838A
:104B3300E022124B3922F08E828F83024686E8F000
:104B4300A3E9F0EE2274F4120A5D8A088B09EA12D3
:104B53004BDCF0EA1313543F124BD5A3A3A3F0EAA3
:104B6300C41313124BDCA3A3F0EB124BC2F08A0A5B
:104B73008B0B7409780A1212C1E50A124BC2A3F017
:104B83008A0A8B0B740A780A1212C1E50A5401C00F
:104B9300E0EC2418F582ED125C1DD0E0F08A0A8B5C
:104BA3000B740B780A1212C1E50A124BCFF0740C86
:104BB30078081212C1E508124BCFA3F00242B012DB
:104BC3004BC62254018C828D83024685124BC6A3A9
:104BD300A322540F8C828D832254038C828D83A352
:104BE300A322C082C083790090035A12509AA3A3D0
:104BF300A3A3E0600FEC70268A828B83A3A3E070EB
:104C03001D09801AEC60178A828B83A3A3A3A3A335
:104C1300A3A3A3A3124C2D7003A3E06B70E3800343
:104C230012108DD083D082020D251241DD900363D3
:104C3300E06A2274EE120A5D8A088B09890CECFE85
:104C4300EDFF124D9CC0E0EE2411125C1AD0E0126D
:104C53004D33C0E0EE2412125C1AD0E0124D5560C1
:104C630006124CF9124D798E828F83A3A3A3A3A3BB
:104C7300A3A3A3E06003124D6D12445D6003124DC4
:104C830039EEFAEFFB1215F4E9F50D7064850A822B
:104C9300850B83E0F50EF510E5082510FAE50934D8
:104CA30000FBEE2417124D07241DF8EF1242B7FC48
:104CB300E9FD8E828F83A3A3A3A3A3A3E07012EACB
:104CC300F8EBF98C828D83124D17E50CC3950E809A
:104CD30019EA240EF8EB124D1DFB850A82850B831E
:104CE300E0FAE50CC39A24F2C39B85088285098305
:104CF300F0A90D024B1CE5082408F8E5093400F976
:104D0300EE241322F8EF3400F988088909EE221201
:104D1300599EA3A3E8F0A3E9F0223400F98C828D15
:104D230083E8F0A3E9F090035BE0F9121B70E9223A
:104D3300124DE702389B850A82850B83E0FAE5086A
:104D43002AF582E5091250C588828983124D93049E
:104D5300F022124D6685820A85830B7408124B3943
:104D630002389BF08E828F83A322850A82850B8370
:104D7300124D87EE24151259AEE8F0A3E9124D93B4
:104D83002408F022E0F8E50828F8E5093400F922C0
:104D9300F0850A82850B83E0228A828B831241DDB0
:104DA3001215EE850882850983A3A3124DDBE0F972
:104DB300EA8E828F83A3A3A3A3A3A3A3A3A3124DCA
:104DC300E0124DDBA3A3E0F9EAF8EE240B1259AE8F
:104DD300E8124DE0A3A3E022E0FA0248F2F0A3E9CF
:104DE300124DE722F0850882850983024686C08238
:104DF300C0837AD27B0379E21223147AD27B030233
:104E03004C26C082C083900363124E42024C26C0DC
:104E130082C08374FE12111F851882851983AA82AA
:104E2300AB83794B124E32124E427402024C231260
:104E3300231485188285198322850C82850D83129C
:104E430041DD22C082C083794A122314024C2674A6
:104E5300F6120A5D9003DAE0FE04F0EEF91215A6ED
:104E6300EA7001EB70EEEE60EBF9024FBC74EE12E8
:104E73000A5DEAFEEBFF8C088D09890A741212138E
:104E830050E0F50B7413121350E0F50C750D00751B
:104E93000E001216C08A108B11AC10AD11EC70010C
:104EA300ED7014E50C704DA90AAC08AD09EEFAEFEC
:104EB300FB1216D8024F56EC2402F8ED3400F9E544
:104EC3000A601988828983E0FA850A08E5082AFAC4
:104ED300E4340013EA13F070037401F0E50C60206E
:104EE300E50B70108C828D83E0600914F06402700E
:104EF30003750E017401650C7035E50B7016802A7D
:104F0300901502E0C0E088828983E0FAD0E0C39A7A
:104F1300504180DD9003E1E004F0C0E09014E7E04D
:104F2300FAD0E0C39A4008750D01E49003E1F0E57F
:104F33000E7004E50D601CE50D6018900366E06ECD
:104F43007003A3E06F700CEEFAEFFB7901121462A9
:104F5300124F59024B1C7A017B009003BEE0F912F9
:104F63001C7822C082C08374016A7001EB70077AD7
:104F730001124F9280149014DE125102EA7001EB79
:104F83006005122CDB8003124F59024C267A207BDA
:104F9300009003BEE0F9121B8E22C082C0839014DE
:104FA300E0125102024C26C082C0839014E280F1C9
:104FB300A9088005740912108D7F02020D9F8E824D
:104FC3008F83E012449122A2F0E492E0124FD87949
:104FD3005212231A22851882851983F00242C512C0
:104FE3004FD8794212231A22AA08AB099003BEE0D4
:104FF300F9121B64222416F58222F582EF3400F5A0
:105003008374012274F4120A5DEAFEEBFF7A007BDB
:1050130004124F5D1250A3124D177409900372F0DE
:105023001216008A088B09AC08AD09EE2413125C32
:105033001A124E4212578B6401704E7A0F12508F20
:105043007001EB604474028A828B83F0EE241DF8B6
:10505300EF125ED9124E428A828B83A312509AE0DA
:10506300FBEC850882850983A3A3125103888289F7
:1050730083124FC5A3A3A31250B11250B9FAA3E0F0
:10508300FB794A12231A124FEB0242B07B00121B28
:10509300588A088B09EA22E0FC8A828B83A3A32225
:1050A3009003431245559014E222EF125EDDE08532
:1050B300088285098322A3F0EE24151250C222F53B
:1050C30082EF3400F583E022124466640122A3A335
:1050D300A3A3A3A3A3A3A31250DE221249A4FB12EA
:1050E3001660E9221254B312165422EE2417124FFB
:1050F300FDF0121600EE241AF582EF3400F583EA70
:10510300F0A3EBF02274F4120A5D74F312111FEA98
:10511300FEEBFF7C0D7D007900851882851983AA3B
:1051230082AB83121B40EE241D125C1A124FC5A3DF
:10513300E0F854206008740C1213507401F0E85422
:10514300806008740B1213507401F0E85440600A35
:10515300740A1213507401F0800A740A121350E097
:1051630064017005EE24138003EE24151257907426
:1051730002121350AA82AB83122302EE240BF8EF20
:105183003400F9880889098882F5831251E8124DA1
:1051930017740A121350E0640170388E828F8312E1
:1051A30050D1703C12160C8A0A8B0BA80AA90B85E6
:1051B3000882850983E0687003A3E06970221216F0
:1051C30000EAFCEBFD7402121350AA82AB83125760
:1051D3008B600D851882851983AA82AB8312145CB8
:1051E300740D0242AD124555024E3574F6120A5D36
:1051F30074F312111F8A088B09ECFEEDFF7C0D7D01
:10520300007900851882851983AA82AB83125B1308
:10521300A3A3A3A3A3A3A3A3A31251E8E8F0A3E921
:10522300125278FAA2E55008740B1213507401F06D
:10523300EAA2E75008740A1213507401F0EAA2E6D6
:10524300EE50042413800224151257907402121393
:105253005012526EA3A3E0C0E0740C121350D0E0BE
:105263001254AB121456740D024FB9AA82AB8312B7
:1052730023020250B2F0EE241DF582EF34001244F3
:105283008EA3E02274F7120A5D74E112111FEAFE85
:10529300EBFF122E17EA2406F8EB124462A2E05049
:1052A3004454FEF0A3E01252F28A828B831252EB33
:1052B300E0F98A828B83E0241CFAA3E01233DC1228
:1052C3004E421215FAE9701D741D121350124489CF
:1052D30064047011851882851983AC82AD83EEFA5C
:1052E300EFFB121642024191E0241B12466B22127D
:1052F30052FAAC82AD8322F0024E35E9FA7900749A
:10530300046A600A740A6A600574036A7001090218
:105313000D2574F6120A5D74208A828B83F0740162
:10532300A3A3F01214148A088B09AE08AF09EE7018
:1053330001EF600774018E828F83F09003B0E070F9
:10534300031250EEEEFAEFFB024FBCC082C083742F
:10535300019003C6F0E9A2E350037403F0E9A2E16C
:105363005004E0D2E2F0024C2674F6120A5D790092
:105373007C008A088B097808120D59F8FF079F53A0
:105383009D539D539D539D5396539A539F539353AC
:105393000C80097C0480050C80F67C089003C6E031
:1053A3005C6003098003EC600109024FBC74F612D0
:1053B3000A5D8A828B83E0700EA312407E7001EB3C
:1053C30060051224A680047A007B00024FBC74F5AA
:1053D300120A5D74F312111F8A088B09ECFEEDFFAC
:1053E300750A12EA7001EB700579000254A290036A
:1053F30063E065087004A3E065097014121600EAFF
:10540300FCEBFD125C107005750A018003750A0040
:10541300E4851882851983F07401121350E508F0AE
:10542300A3E5091254AB121BE8E9602774031213B6
:1054330050AA82AB831223E6E964017016750A0150
:105443007403121350AC82AD83125C106021750A91
:1054530000801C7412650A70169003AFE06402703A
:105463000EEEFCEFFDAA08AB0912136CE970DFEE38
:10547300FCEFFDAA08AB091216C6E9FA740A6A70B2
:1054830005750A01801774A06A7012EEFCEFFDAA7D
:1054930008AB091216D2AA08AB091216E4A90A74BA
:1054A3000D12108D025ED2E41254AF221254B322B5
:1054B3001252FA0242C574F7120A5DEAFEEBFF7557
:1054C30008008E828F83A3A3A3A3A3A3A3A3E06057
:1054D30014EE2415125C1A1232ED12166CE96401F3
:1054E30070037508018E828F83A3A3A3A3A3A3A331
:1054F300E06017EE2413125C1A125512124E421278
:10550300166CE964017003750801A908024196123B
:1055130057978E828F83A302468274F2120A5D74B8
:10552300FD12111F8A088B09ECFEEDFF890A750B2A
:10553300017401121350740412596E7001EB60333D
:10554300EA240BF582EB12419E740388828983F06F
:10555300A3E50AF0EE88828983A3A3F0EF8882890A
:1055630083A3A3123F3CE508F0A3E509F012140E50
:10557300E9F50BA90B022B0BE508240BF582E509D2
:10558300221245558001F9888289832274EC120A1C
:105593005D74F512111F8A0C8B0D89108C0A8D0B0B
:1055A300741F121350E0F5117420121350E0F50E1E
:1055B300A3E0F50F7E01EE121350740AF0E97007B1
:1055C300E511C333240AF0851882851983AA82ABB7
:1055D300831216548A088B09EA7001EB7003025692
:1055E300811259B6740912576A4511125784AC0ACD
:1055F300AD0B125752E510702D7C008023ECC333A2
:10560300F8E433F9E50E28F8E50F39F98882898340
:10561300125781888289831239A8F0A30EAF830CB5
:10562300ECC3951140D7E5082417125983121600CD
:10563300E508241AF582E5091250FE74031213508B
:10564300AC82AD83AA0CAB0D1223E0E9601EE50822
:1056530024161259837403121350A882A983E508F0
:105663002418F582E509125C1D124D178508828501
:105673000983125777AA08AB0912140EE9FEEEF953
:10568300740B02574AFEA3E03400FF8E828F83E03F
:105693002274EC120A5D8A0C8B0D89118C0E8D0F0E
:1056A3007414121350E0F51074151213501257426C
:1056B300900D1DE07002A3E06078E510C333F50898
:1056C300E433F509740E2508FAE43509FB121B5877
:1056D3008A128B13AE12AF13EE7001EF605474D4C1
:1056E3008E828F83F01257778E828F83A3A3A3A317
:1056F300E511F0AC0EAD0FEE2405FAEF12573BEEB9
:10570300240D125C1AE510F0850A0C850B0D750E3D
:1057130000780C121076AC08AD09EE240EFAEF12E5
:105723003A6912108DEEFAEFFB900D1D124FC51260
:10573300254402574DFAE5093400FB12230222E007
:10574300F50AA3E0F50B2212108D7F0C020D9FEEDC
:10575300FAEFFB12575A2212230212576122EE2448
:1057630008FEEF3400FF228E828F83F0A3E510C47E
:105773003354E022A3A3E50CF0A3E50DF022123984
:10578300A9F0A3AE82AF83221222FCE9221259AE02
:1057930012579722E0FCA3E0FD2274F6120A5DEA99
:1057A300FEEBFF9003C7801388828983E06E70034A
:1057B300A3E06F603B88828983A3A31240B3700187
:1057C300E970E57A047B00121BD08A088B09A808CC
:1057D300A909E87001E96018888289831258029048
:1057E30003C71257F6A3A31251029003C7124D1712
:1057F300024FBC1241DD02558A851882851983EE5A
:10580300F0A3EFF02274F4120A5D7E009003C780C8
:10581300070E88828983A3A31240B37001E970F154
:10582300EEC333FAE433FB1258B07001EB60787FB8
:10583300009003C7802488828983125793EFC33370
:10584300FAE433FBE5082AF582E5093BF583ECF03E
:10585300A3EDF00F88828983A3A31240B37001E9FB
:1058630070D49003B9124C2D7003A3E06B780870C9
:105873001612107AEEF50A780A12107E7C847D03E4
:105883007900121684801412107AEEF50A780A123F
:10589300107E7C847D03790012167E740312108DB2
:1058A300AA08AB09121BD61214260242B0121BD04F
:1058B300025094C082C08380128A828B83A3A31276
:1058C30041A19003C7124D17121BD69003C7124074
:1058D3007E7001EB70E3024C2674F6120A5D9003AE
:1058E300701259BF9003DB1235A2124D177ADB7B7E
:1058F30003795012231A9003DB12598C1216DE908F
:1059030003DB1259BF900D1FE07002A3E060307AF1
:10591300067B00121B58EA7001EB602374D58A8260
:105923008B83F0E4A3A3F074018A828B83A3A3A3E4
:10593300125945125802900D1F124FC512254402E9
:105943004FBC123F41A3A322EE240EF582EF125067
:10595300C522F582EF1250C5F92212455574FF682E
:1059630022125968221248E8A3A3221250E7EA221E
:10597300740812108D7F08020D9F08E93400F92284
:10598300F582E509125000F022125797EEFAEFFB69
:1059930022850C82850D8312599E22E0F8A3E0F93B
:1059A3000239AAF0EE240F1259AE22F582EF340029
:1059B300F58322EA240BF582EB1259B1E0FEA3E052
:1059C300FF2274F7120A5D7E008008EE125B6812F4
:1059D30016B40E9028F2E493FAEEC39A40ED7E00DB
:1059E300EE1259FA125B21E488828983F00EEEC32A
:1059F300940340EC02419675F003A424C9F8E5F042
:105A0300340302558974F7120A5D78007900800324
:105A1300125AE79028F2E493FEC3E89EE9940050FB
:105A23004CE8FEE9FFEE75F017A4FE85F00875F06B
:105A330017EFA42508FFEE2406FEEF125F286A7015
:105A430003A3E06B70CA8E828F83A3A3A3A3A3A334
:105A5300A3A3A3A3E06C7003A3E06D600A74FF6CBF
:105A6300700374FF6D70A9EEFAEFFB80047A007B7C
:105A73000002419674F6120A5D7CFF7DFF7AFE7B7D
:105A8300FF1216A8EA7001EB70577508007509003C
:105A9300803FE50875F017A4F8ACF075F017E50939
:105AA300A42CF9E82406FEE93412FFEE240F125960
:105AB3004E600512594B700E8A828B83124E42122E
:105AC30014F2EEFAEFFBE5082401F508E509123DAF
:105AD300AE9028F2E493F8C3E50898E509940040F2
:105AE300B1024FBCE8240102597D74F7120A5DEA42
:105AF300FEEBFFEE7001EF600E125B0D125B228E68
:105B0300828F83A3125B190241967C177D00790073
:105B1300121B400239AAA3A3A3A3A3A3A3A3A37401
